:040000006F2080638A
:100004000000000000000000900000202E080020E6
:10001400A9BDF9F5940000200000000000000000D4
:10002400960000209800002000000000000000005E
:100034009A000020000000009C0000200000000046
:100044009E000020260300202A030020A400002094
:10005400A6000020A8000020AA000020AC00002078
:10006400AE000020B0000020C60000205E01002089
:10007400AA080020B8000020BA000020BC0000201C
:10008400BE000020F60100208E020020C4000020E3
:1000940001A001A001A001A001A001A001A001A054
:1000A40001A001A001A001A001A001A001A001A044
:1000B40001A001A001A001A001A001A001A001A034
:1000C40001A001A001A037370040834747009946AB
:1000D4004111BD8B638ED70231476386E706114712
:1000E4006390E704A3030100175600000346068F3C
:1000F40037370040834771006317F6022C00174519
:100104000000130565A197A000E0E78020D409A8AA
:100114008347570093F7F70F2304F10083478100C7
:1001240041017300203083477100834687000C0827
:10013400AE97238CD7FE83477100850793F7F70F9B
:10014400A303F10045BF280097F000E0E780C0DD7D
:100154001375F50FA303A1000346710045B73737A4
:1001640000408347474099464111BD8B638ED702B7
:1001740031476386E70611476390E704A303010050
:10018400175600000346A6853737004083477100A1
:100194006317F6022C00174500001305259997A054
:1001A40000E0E780A0CA09A88347574093F7F70FF8
:1001B4002304F10083478100410173002030834709
:1001C4007100834687400C08AE97238CD7FE834783
:1001D4007100850793F7F70FA303F10045BF2800CB
:1001E40097F000E0E78000E61375F50FA303A10084
:1001F4000346710045B73747004083474780994617
:100204004111BD8B638ED70231476386E7061147E0
:100214006390E704A3030100174600000346167C1D
:1002240037470040834771006317F6022C001745D7
:1002340000001305E59097A000E0E78020C109A81D
:100244008347578093F7F70F2304F1008347810016
:1002540041017300203083477100834687800C0876
:10026400AE97238CD7FE83477100850793F7F70F6A
:10027400A303F10045BF280097F000E0E78040EEBB
:100284001375F50FA303A1000346710045B7374763
:100294000040834747C099464111BD8B638ED70206
:1002A40031476386E70611476390E704A30301001F
:1002B4001746000003462674374700408347710001
:1002C4006317F6022C00174500001305A58897A0B4
:1002D40000E0E780A0B709A8834757C093F7F70F5A
:1002E4002304F100834781004101730020308347D8
:1002F4007100834687C00C08AE97238CD7FE8347D2
:100304007100850793F7F70FA303F10045BF280099
:1003140097F000E0E78080F61375F50FA303A100C2
:100324000346710045B773002030371700408357E8
:10033400E7098357E709C207C18393F7F7CFC207D9
:10034400C183231FF7087300203041118146014601
:100354008145114506C60D2DB7270040114723835B
:10036400E780B7F700E003A707D16D9B23A8E7D088
:1003740003A707D15D9B23A8E7D0730050100100A9
:100384000100B2404101828041118146814501460C
:10039400114506C6D52BB727004011472383E780B4
:1003A400B717004003C7E70283C5E70483D7870371
:1003B40091661377F70F93E5350063E5D700719BDA
:1003C40013671700B7170040130670052380C7048E
:1003D400930680FA2380D7040100010023820702D8
:1003E4002380C7042380D704010001002387E70288
:1003F4002387B7042380C7042380D70401000100A6
:1004040003C7B70413670702A385E704238007041F
:1004140037F700E0832507D193E545002328B7D0BB
:10042400832507D1DD992328B7D07300501001002C
:1004340001002380C7042380D7040100010003C7FF
:10044400B7041377F70DA385E70423800704B240AC
:10045400410182800111B7F5070022CC8146E105F4
:100464002A840A86194506CE26CA02C02312010030
:10047400212BB717004003C7E70283C5E70483D7DE
:10048400870391661377F70F93E5350063E5D7008B
:10049400719B13671700B71700401306700523807C
:1004A400C704930680FA2380D70401000100238245
:1004B40007022380C7042380D70401000100238797
:1004C400E7022387B70423800704B7F500E003A7F6
:1004D40005D11367470023A8E5D003D50702657744
:1004E400110713750560418D598D42054181010045
:1004F4002380C7042380D7040100010003C7F70049
:1005040037F40700B7F400E013670704A387E70094
:1005140003C7B704610413670702A385E7042390A4
:10052400A70283A704D1DD9B23A8F4D07300501045
:100534000100010013056004352E81463000A285B8
:10054400194502C423160100812122478247E31A78
:10055400F7FCB7170040130770052380E70413075F
:1005640080FA2380E7040100010003C7B70413776E
:10057400F70DA385E70423800704F2406244D244C4
:100584000561828001114EC681460146AA898145D2
:10059400114506CE22CC26CA4AC8FD26B71600400D
:1005A40083C7E60203C7E60483D68603116693F77E
:1005B400F70F1367370063E5C600F19B93E7170055
:1005C400371400401309700523002405930480FAAE
:1005D40023009404010001002302040223002405E3
:1005E40023009404010001002307F4022307E40418
:1005F40023000404130550025920B7F700E003A7B1
:1006040007D11367470023A8E7D02300240523005C
:100614009404010001000347F40013670704A307CF
:10062400E40023002405230094040100010025674D
:10063400B3E9E9002310340303A707D15D9B23A882
:10064400E7D0730050100100010081460146814546
:1006540011451D2E230024052300940401000100EC
:100664008347640493E717002303F404230004047A
:10067400F2406244D2444249B24905618280B717CC
:100684000040930670052380D704130780FA238063
:10069400E7040100010003C6B7041376F60DA38531
:1006A400C70423800704137605024DC203C6A700BE
:1006B400118A1DE22380D7042380E704010001008E
:1006C40003C7A700136747002385E7009307004B80
:1006D40001000100FD17EDFFB717004093067005F8
:1006E4002380D704130780FA2380E7040100010064
:1006F4007D892394A70001000100010001002380EB
:1007040007042380D7042380E704010001000100CB
:1007140001003727004093061005A303D7802380E8
:100724000704B7170040130770052380E704130775
:1007340080FA2380E7040100010003C7B7041367AC
:100744000708A385E7042380070482801376050441
:1007540041C603C6A700418A1DE22380D704238033
:10076400E7040100010003C7A700136707012385FD
:10077400E7009307007D01000100FD17EDFFB717A7
:100784000040930670052380D704130780FA238062
:10079400E704010001001376F501136606042394AF
:1007A400C700010001000100010023800704238029
:1007B400D704130660042380E7046318C50001000E
:1007C400010037270040894689BF0100010037270F
:1007D40000409306200591B72380D7042380E704C3
:1007E4000100010003D787001367070C2394E70077
:1007F4000DBF4111814601468145114506C6692256
:10080400B7170040130770052380E704130780FA25
:100814002380E7040100010003C76704136717007E
:100824002383E70423800704B24041018280814688
:10083400014681451145892AB71700409306700582
:100844002380D704130780FA2380E7040100010002
:100854007D562396C7022380D7042380E704010032
:10086400010003C76704136717002383E704238089
:10087400070401A0BD473305F50201007D1575FD90
:100884008280411122C426C206C6AA840144631789
:100894009400B2402244924441018280050413052D
:1008A400803E4204C13F4180DDB7B71700401307C3
:1008B40000032388E702854717470000232AF72807
:1008C40073002030411106C6852DFDBF230304802B
:1008D40015472303E48001002302A4808280830758
:1008E4006480E3CE07FE2303048082808307648050
:1008F400E3CE07FE03454480828083076480E3CE11
:1009040007FE2302A4808280411126C44AC24EC03D
:1009140006C61377F50BAD47AA892E89954463065D
:10092400F70019456537653F8D444E854537FD59B8
:10093400FD1463983401B240A24412498249410132
:100944008280135509011375F50F453F2209CDB770
:10095400011126CC06CEB704080051371545BD3722
:10096400713769372AC6A53F32459377150089EB5D
:10097400136515001375F50FF240E244056182809A
:10098400FD14E9FC0145CDBF397126DC4ADA4ED8A5
:1009940052D656D45AD25ED006DE62CE66CCB7E7C3
:1009A40000E07D5783AA070022C603AA470023A0BC
:1009B400E71823A2E718B717004013077005238030
:1009C400E704130780FA2380E70483C74704930BE3
:1009D40075FFB684E20793FBFB0F8546AA892E8B2D
:1009E400328937240040E187015763FA76016308AE
:1009F400D5008946130700026313D5000157D98F28
:100A040093F7F70FB71C00402382FC04114723031C
:100A1400E4801305F00F5D3D094CD135636D7C1105
:100A2400B7050700DA9537870700795563F2E504BF
:100A3400B3879500636EF702370B0800A94733EBC1
:100A440065016399F90689E48144513D26850DA029
:100A5400DA850945553D05090345F9FFFD14050BE4
:100A6400693D81C49377FB0FFDF7DD3569FD7D5545
:100A7400B7170040130770052380E704130780FAB3
:100A84002380E70403C74704418B2382E704F25021
:100A9400B7E700E023A0571123A24711E2543244E0
:100AA4005259C259325AA25A125B825B724CE24CBE
:100AB40021618280A5476395F90685691309F00FC2
:100AC400B3069900B3742B01B6941349F9FFB374B8
:100AD4009900856B33796901416B9387F9FFB3F70B
:100AE400270199E363FC340193D94900C147E3E644
:100AF40037FF99BF0569C1697D19D9B71305800D01
:100B040063886901130500026384790113051008E1
:100B1400CA85DD3B353D21DD4E99B3843441D9B7D7
:100B2400DA852D45D533CA94E30099F205097D3B56
:100B3400A30FA9FED5BF9387F9FF93F7F70F63615E
:100B4400FC0C83C71C0413073008631FF704370722
:100B54000800636BEB04B3079B00B706100063F552
:100B6400D704334BEB0089476393F9068980D54951
:100B7400E38C04ECDA850945413B11090327C9FFDD
:100B840091472320E48003076480E34E07FE230398
:100B94003481FD17EDFBFD14110B81C49377FB0F1A
:100BA400E9FF7D3371F5E1B5B717004003C757047A
:100BB400B70708001377070219E3B78707007955C9
:100BC400E378FBEA33079B00E3FFE7F855B5854775
:100BD400E382F9F2DA852D45053B9389F4FFE38539
:100BE40004E6293393F7390091EB83260480032725
:100BF400090093074900E39AE6E43E89CE84F1BFF5
:100C0400B5476396F9001305900BC93135BDB1475B
:100C14001305B00AE38BF9FE99476391F904B7050C
:100C24000800B365BB002D45C53181448D4BA149F6
:100C3400753963967401832704802320F9008504A1
:100C4400E39834FF8327048013172B0163550700AF
:100C54002312F900D5BB2322F900FDB39D47639904
:100C6400F90281451305B0044531BD442320090030
:100C740023220900FD599D3993F77400CA9703C7CD
:100C84000700FD14398D2380A700E39634FF6DBB64
:100C9400A1476392F9046D398144630D0B008D47BC
:100CA4009304C0036308FB009304000563048B01F1
:100CB400930440041375C507E30895D819453931E1
:100CC40039390545213126850D3909453D314931EB
:100CD400E31C05D669BB91476399F90013056006C7
:100CE400F536F53E130590090DB7E38F09D4F15499
:100CF400A9BB19CD91CD09CE81473387F500834631
:100D040007003307F50085072300D700E317F6FE35
:100D1400828019C991C909CA910583A7C5FF110524
:100D24007D16232EF5FEC5BF828001C919C62A96F9
:100D34000505A30FB5FEE31DA6FE82808147330798
:100D4400F5000307070019E33E8582808507C5BFC8
:100D540001112E8626CAAA84131506019305F004F0
:100D6400418122CC06CE32C6EF1080632A8401C5AD
:100D74003246A685BD3F2285F2406244D2440561D5
:100D84008280854715C18DC105C28147B306F50030
:100D94003387F50083C60600034707006398E6001F
:100DA4008507E315F6FE85473E8582808147EDBFC2
:100DB4009307F6FFBE952A966313C5008280FD153E
:100DC40083C715000505A30FF5FEFDB7AA870145E6
:100DD40081CF09CE3E96850703C7F7FF6317B70097
:100DE400E39BC7FE0545828082800145828079713C
:100DF400975700009387C75D22D4804306D626D236
:100E04004AD04ECE52CC56CA5AC85EC662C45DCCD5
:100E140037C9C901814B175A0000130AEA5F975476
:100E240000009384245B1309F937975A0000938ACE
:100E3400EA54B709C0A8370B40578357240095E3F9
:100E44005C44639D0B00175700002323F758032CC1
:100E5400C4002285EF10E061628499A823A6FB00F8
:100E6400FDB783270A008297838664011C4463DBF1
:100E740006063307F5406367E9089757000023A780
:100E840007508355240003450400973001E0E780B0
:100E940020835C405844A9CF1444B69783866401E8
:100EA40063C5060063E33701DA971CC4A28B3A8456
:100EB40049F4975700009387674C9C4B0947637824
:100EC400F706F917175700002322F74CB2502254A3
:100ED40092540259F249624AD24A424BB24B224CD2
:100EE40045618280E377F5F83387F9402A9761B743
:100EF40063970B009757000023ACE74C89BF23A6E8
:100F0400EB00B1B7D85009CF63DF06003385A740A3
:100F140083A70A016376F5009757000023A8A74624
:100F2400A28B404471B7E3F3A7FECE97C5B797579A
:100F3400000023AD074459BF411122C417540000D7
:100F44001304C4461C4006C626C24AC091C78297F1
:100F54009757000023AC07445C4091C382971C4020
:100F64006391071C9757000083C7D762858B9DC781
:100F740097570000A3800762175700000347B76123
:100F8400954763FDE700EF0050419757000083C782
:100F94009760F5178A07A2979C4382971759000018
:100FA400130909638347C900918B99C3EF10A032D9
:100FB4001C4491C382979754000093842441984021
:100FC400175600000346963B9757000083C7073B1C
:100FD40093961700BA9683D60600D5CA9757000091
:100FE40083C7C73963EFC70A9757000023880738B8
:100FF4001C40639807129757000083C7F75991CF95
:101004009757000083C7375989EB97570000A3858A
:10101400075897B002E0E78080189757000093873D
:10102400A73F9C43638F070EB707C0A8175700005C
:10103400232EF7346D3B975700009387A739DC5371
:10104400EDC31757000013076733184B9757000079
:1010540083C797396367F70C175700000347B753E3
:10106400954763E0E70C8347C900918BDDEB904023
:101074009756000083C6963063CBD70A2244B24009
:10108400924402494101172301E067008340850728
:1010940093F7F70F975600002382F62EE3E6C7F284
:1010A40035BF86073E9783550700231007009757DF
:1010B4000000239B0730975700009387E72E9C433B
:1010C400175500000345852B13172500BA979C4339
:1010D40082979757000083D7272F1757000003479D
:1010E400E72993C7F7FF7D8D9317170098403E9724
:1010F400835707005D8D2310A7009757000083C70F
:10110400E72791C78507175700002309F7261757C4
:1011140000000347A7269757000083C73726E375C7
:10112400F7ECB24022449244024941018280139771
:1011340017003297035707006DF7850735BFAD6772
:1011440037C70040BD072326F7200F10000097572C
:1011540000009387A722C84F83278726BD66BD0654
:1011640093C7F7FF99836A052326D7205D8D828074
:101174004111B7170040985F3AC6945F3247E39C29
:10118400E6FE324541018280828003278511630097
:101194000712411122C406C68347C5008345C5040E
:1011A4002A8493F7C70F2306F50083469700035656
:1011B400C70013958601618563F1C508635A050666
:1011C4000345870093F6F607A304D700054693E684
:1011D40027006314C50093E617002306D4005C437C
:1011E40089075CC3A30AB400032504112E864C436B
:1011F400090501368327841103465401D44303D7D8
:10120400C700B296118FD4C32396E7008947A30D74
:10121400F400034744039757000083C7C71C63784F
:10122400F7048347C40093E707012306F40081A071
:1012340093E717002306F40075B79376F60F635D02
:10124400050203458700854513E627006314B500AE
:1012540013E617002306C400A30AD400A30407005E
:101264008547A30DF400832784119C43DDF3B2402A
:10127400224401454101828093E717002306F400CC
:10128400A30AD400A3040700032504114C43090551
:101294008D348327841103465401D44303D7C700F4
:1012A400B296118FD4C32396E7008D475DBF0545E1
:1012B4008280975700009387272C9C43411122C4B6
:1012C40006C6858B2A84C5EF4165130525F597204D
:1012D40002E0E780806645C58347A5002315F50035
:1012E40083270412BDE72320A4122322A4128547D6
:1012F4002310F4042320050083476401544123167A
:10130400F5000347D4002304E5000547A304E500E2
:10131400175700001307C727184F138517021581A5
:101324001C437D151375F50F9CC25C43DCC21C473E
:101334009CC65C47DCC61C4B9CCA5C4BDCCA1C4F7D
:101344009CCE5C4FDCCE19CD9386060213070702B0
:10135400C1BF8327441288C3835704042322A412E1
:10136400850779B79757000083D7C72F8507175785
:1013740000002319F72EB2402244410182808347A2
:10138400C40023090400054593C747002306F4005D
:10139400DDB78347850193F7E70FD5EF83479501C1
:1013A400DDEB034625018346C50009CA8345450391
:1013B400175700000347370363E7E50013F70601F7
:1013C40041CF014709C6C18A0357651C81C68356AC
:1013D400A51C369751C31307C712175500000355B0
:1013E40065FCB335A70237460F00411113060624E6
:1013F400814622C426C206C67D543305A7029740FF
:1014040003E0E780E0AF9757000083C737FEB3845B
:10141400A700975700009387672403A7070983272A
:10142400070963F387003E84184375FB9757000050
:10143400938787FE9C43829781476364A400B30724
:10144400A440B2402244B3B7970093C71700924414
:101454003E854101828081473E858280797126D212
:1014640006D622D44AD04ECE52CC56CA5AC85EC6EC
:101474008347350303447513AA843E941374F40F0D
:101484009307400263F687001304B4FD1374F40F4A
:1014940003AA841383AAC413A38B841222865285BD
:1014A400D685974003E0E78020A0058915E503CBA6
:1014B400D41201498149337B6403930B50024A8659
:1014C4005285D685974003E0E780009E058915C5BF
:1014D400639169031374F90F238B8412B25022545D
:1014E40092540259F249624AD24A424BB24B456184
:1014F40082808509E20993D989410509E31179FDBF
:10150400E1BF832785090356E503797193D6070163
:10151400BD8EC206C182358E13577640935756400E
:10152400898B058B5D8F93573640918B5D8F9357D5
:101534001640A18B5D8F93171600C18B5D8F931797
:10154400360093F707025D8F931756009355860074
:1015540093F707041E065D8F1376F60F518F93D70A
:10156400554013D63540118A898BD18F13D67540D7
:10157400D18F13D61540218AD18F13961500418A35
:10158400D18F1396350013760602D18F139655002A
:10159400137606049E05D18F93F5F50FCD8FA20720
:1015A40045465D8F3307C70222D42A8426D252CC03
:1015B40056CA032A8413832AC4135AC806D63697F4
:1015C4004207418393577740135557400989858BC8
:1015D400C98F135537401189C98F13551740218975
:1015E400C98F131517004189C98F13153700137557
:1015F4000502C98F13155700935587001375050409
:101604001E07C98F1377F70FD98F13D5354013D71A
:1016140055401189098B498F13D57540498F13D5CE
:1016240015402189498F139515004189498F1395D8
:10163400350013750502498F13955500137505047C
:101644009E05498F93F5F50F4D8F2207D98FB387E8
:10165400C7024AD04ECE5EC662C4B697C207C183E3
:1016640013D7774013D557400989058B498F13D574
:1016740037401189498F13D517402189498F139514
:1016840017004189498F1395370013750502498F57
:101694001395570093D58700137505049E07498F4A
:1016A40093F7F70FD98F13D5354013D755401189C8
:1016B400098B498F13D57540498F13D5154021895E
:1016C400498F139515004189498F1395350013757A
:1016D4000502498F13955500137505049E05498F1E
:1016E40093F5F50F4D8F2207D98FB387C7021306E1
:1016F40050025285D685B697BD8E93940601C1805B
:1017040033F6C402137BF60F973003E0E780C07909
:1017140005890DED8347D41201498149B3849702A9
:10172400130C5002C1804A865285D685973003E057
:10173400E78080770589937BF90F11C563863403AD
:10174400850993F9F90F0509E31F89FD230B641338
:10175400B250225492540259F249624AD24A424B3C
:10176400B24B224C456182805E8BCDB7011122CCF5
:10177400604126CA4AC84EC652C406CEAA841D4A2F
:10178400130965058549BC446364F400054581A8D3
:1017940003C7D40083474400631B470503C784027F
:1017A4006304F7000040C5B70347540083C75405DA
:1017B400E31AF7FE1946CA8513056400EFF06FDCDF
:1017C400E31235FF0347C40083C79402E31CF7FC0C
:1017D4000357E40083D7A402E316F7FC0145F24063
:1017E4006244D2444249B249224A05618280E31BE1
:1017F400F7FA0347540083C75405E315F7FA19466B
:10180400CA8513056400EFF0CFD7E31D35F9F9B7A6
:10181400011197570000938767E422CC03A4470B78
:1018240026CA06CE2AC42EC6854419E40145F240D0
:101834006244D244056182808347910003471400C7
:10184400858B6304F7000044CDB719469305A100C6
:1018540013052400EFF0EFD2E31795FE0545C1BF51
:10186400011122CC17540000130444D418402AC692
:101874002EC432C206CE3C4B93F7F7F73CCB97B05D
:1018840002E0E780808E184097560000938646CF8A
:101894003C4B93E707083CCB9C423245A24523A02E
:1018A4000700034715000348250022074208429712
:1018B400034805004297034835006208429798D7C9
:1018C400034755000348650022074208429703482E
:1018D400450042970348750062084297D8D70347EA
:1018E40095000348A5002207420842970348850053
:1018F40042970348B5006208429798DB0347D50036
:101904000348E5002207420842970348C5000345FF
:10191400F500429762052A97D8DB03C7150003C573
:101924002500220742052A9703C505002A9703C507
:10193400350062052A9798CF03C7550003C5650093
:10194400220742052A9703C545002A9703C5750057
:1019540062052A97D8CF03C7950003C5A5002207BF
:1019640042052A9703C585002A9703C5B500620579
:101974002A9798D303C7D50003C5E500220742057B
:101984002A9703C5C50083C5F5002A97E2052E975B
:10199400D8D3D843759BD8C3D84313671700D8C38B
:1019A40098431367170098C3124698425C43858B8B
:1019B400D1E71C4F01452300F6009C429C4FA183B4
:1019C400A300F6009C429C4FC1832301F6009C4275
:1019D4009C4FE183A301F6009C42D84F2302E6000A
:1019E400D84F2183A302E600D84F41832303E600A6
:1019F400D84F6183A303E60098532304E600985369
:101A04002183A304E600985341832305E6009853F9
:101A14006183A305E600D8532306E600D853218347
:101A2400A306E600D85341832307E600DC53E18391
:101A3400A307F600F2406244056182800100B5B755
:101A440017570000130707B41443411122C49C5EC6
:101A54004AC006C6998326C2858B3A84175900006A
:101A6400130909B2D1CB9C5E97540000938444B20D
:101A740093F7F7F99CDE175700000347C7B19307A4
:101A84000008631BF700832709009C4393F70704AE
:101A9400175700002301F7B083C7040093F7070426
:101AA4009DC397570000938727979C438297975726
:101AB400000023A7A7AE83C7040093F7F70B1757BB
:101AC40000002307F7AC83C7440093F707048DE7AE
:101AD400854717570000A30FF7AA9757000093876D
:101AE400E7AC9C43096798C7130700FC97560000AE
:101AF4002382E6AAD844F8D31C40985F1183058B4F
:101B040009CB985F3D9B98DF0547975600002383D8
:101B1400E6A8985F1D83058B11CB985F1377F7F7C1
:101B240098DF8547175700002306F7A68327090087
:101B3400D8430583058B19C7D843759BD8C3D843AD
:101B4400799BD8C3B2402244924402494101828025
:101B5400397106DE16DC1ADA1ED82AD62ED432D211
:101B640036D03ACE3ECC42CA46C872C676C47AC291
:101B74007EC0F935F250E2525253C2533255A25547
:101B8400125682567247E2475248C248324EA24E1B
:101B9400124F824F216173002030975700009387C2
:101BA400E7A09443975700009387879E03C70700D5
:101BB400058B11CB97570000238E079C9757000085
:101BC400A38A079C828003C71700058B65F7F85228
:101BD40071FF83C75700DDB7175800001308889AB0
:101BE400032708001C5F9583858BD1E709C61C5B1E
:101BF400BD832300F60085CA83270800985B460747
:101C0400935767016356070093E707C0C207C18370
:101C140003970600C207C18709C7BA970947B3C724
:101C2400E7022390F60085CD834715008DCB9756A8
:101C3400000083C6469693F60604138797008947E7
:101C44008DCA3A9503470500854699471376F706EA
:101C54006311D60262076187B947634C0700832783
:101C640008009C5FED838D8B17570000A307F79244
:101C740081473E8582808547EDBF411122C406C657
:101C84001754000013048492184049E9AE87745332
:101C9400FDFE3E85B28597570000238C078E97A0E2
:101CA40002E0E7808022975700009387A78D9C432A
:101CB400B70680009843558F98C3D857719BD8D7DF
:101CC40097570000A388078C97570000A382078CBE
:101CD4001C40094798C3B7F700E003A707D16D9BE1
:101CE40023A8E7D003A707D15D9B23A8E7D07300FF
:101CF40050101440175700001307878983472700A3
:101D0400858B89EB83473700858BD9C797570000AC
:101D140023820788B2402244410182808D476310A8
:101D2400F502975700009387E7859C43B706800028
:101D34009843558F98C3D857719BD8D75DBF8547B3
:101D4400E319F5FAB567BD075CC70F1000001C4026
:101D54000967094698C7130700F897560000238BB4
:101D6400E682175700001307E78114439842318332
:101D74000D8B6319C7001307E043F8D33D673D0794
:101D8400D8C785BF984231830D8B01E713076019CB
:101D9400EDB71307E01BD5B7FC52ADF3A5BF5D71DA
:101DA40052DC174A0000130AEA7D03270A0086C69C
:101DB400A2C4A6C2CAC04EDE1C4397590000938930
:101DC400A983174900001309697E93F7F7E793E79E
:101DD40007081CC383A609003707CEFF7D179C465E
:101DE400130680022A84F98F9CC6832709001307EF
:101DF40000082800B8CBAE8493051008EFE0FFF28A
:101E040097A002E0E780603697A002E0E780604395
:101E140083270A009376F41F370FFCFF23A40700DF
:101E2400984B4E88CA881367F70398CBF84F13056D
:101E340010F8D285137707E0558FF8CF9843F576DD
:101E4400FD16758F98C39843B7063300B702040094
:101E54001377F7E798C398439303401F7D1F1377C5
:101E6400F7E71367071098C303A70900930F8002CD
:101E740085491C47D58F1CC7832709001307900D7C
:101E84003400B8CB114901471353370026938347D5
:101E9400030013767700B3D7C740858BDDCF9C4111
:101EA400832E0800239C07042390070603AECE026A
:101EB400137EDEFF23A6CE0383AE0700137EF7074F
:101EC40093FE0EF833EECE0123A0C70103AE470202
:101ED400336E5E0023A2C70383AE0800014E23A223
:101EE4007E0603DA070663074E0303AE0703038A7D
:101EF4000600135EFE00620E135E8E416358CA0133
:101F040003AE0703135EFE002380C60103DE07064B
:101F1400137EFE0F03AA4E0663060A0003DA870542
:101F2400E37F49FB03AE4702337EEE0123A2C703DE
:101F340083870600635CF400034E03003396C900F4
:101F44001346F6FF3376C6012300C3003E8663D3EF
:101F5400A7002A8613158601618505071377F70FF5
:101F64008506E313F7F3B640264496440649F2592E
:101F7400625A6161828097460000938626639C4280
:101F8400D84713161701635506029847131617010D
:101F9400635006027D57B8D7174700001307073E62
:101FA400584F0507174600002328E63E116798C7D7
:101FB40098470D83058B1DC3174700000347675DD2
:101FC40013671700174600002305E65C130700F8A3
:101FD400174600002300E65C214798C79847058B05
:101FE40009CF174700000347B75A1367170017466E
:101FF4000000A30FE658054798C798470983058B47
:1020040009E798470583058B31CF984717460000A9
:1020140013060658174500001305C5560983058B9A
:10202400630307101841184331830D8B75EBAC4BD8
:10203400184E93F5050203471700CDCD79EF13072A
:102044007006D8CF03470600136717001746000031
:102054002300E654114798C718415C57F19B93E756
:1020640017005CD79C4298479316370163D6060243
:102074009746000083C6C665C18A17470000130748
:10208400E75DC5CE0347470713670702974600007D
:102094002380E664056798C798479316270163D1A0
:1020A4000602174700000347E74E6207618763573C
:1020B4000700054797460000238EE64C096798C73A
:1020C40098479316070163D606029746000083C615
:1020D4003660858A1747000013074758ADCE03477B
:1020E40057071367270097460000A383E65E21671E
:1020F40098C7828029D785456315B7001307B006B2
:1021040089B789456315B7001307F0061DBF8D45D0
:102114006315B700130730072DB71307500715B71A
:102124001307600739BF03473600136717001746C4
:102134000000A300E646094739BF8346470709461E
:10214400BD8A6388C600034747078D463D8BE3136A
:10215400D7F4114725BF83465707918AC9DA034745
:1021640057071367870041B7397106DE16DC1ADAA0
:102174001ED82AD62ED432D236D03ACE3ECC42CA3B
:1021840046C872C676C47AC27EC0F533F250E252B3
:102194005253C2533255A255125682567247E247E1
:1021A4005248C248324EA24E124F824F21617300F0
:1021B4002030174700001307A73F8346B70197470E
:1021C400000083C7B7414C4BB697FD8B33D7F5005E
:1021D40097460000A38EF63C97460000A380F64085
:1021E400058B15EF174700000347973FB3F7E70246
:1021F400814601471305000233D6E500058A1378AA
:10220400F70F19CA6397D70097470000A382073BCB
:102214008280850693F6F60F0507E31FA7FC8280EC
:10222400974700009387471F9C43011122CC4EC659
:1022340006CE26CA4AC852C456C28297974700009F
:1022440093870739804781496305A406BE8497476D
:10225400000093872718038767013E8963550706A3
:10226400018D135455009747000083C707369379AF
:10227400F501636DF402370AC0A8B70A4057153F49
:102284009C449746000083C64634139756003E97F5
:1022940083076901158C63C507006363470156977B
:1022A4009747000023AAE732E37BD4FC1604B36902
:1022B4003401F24062444E85D2444249B249224A32
:1022C400924A05618280E37D85F8B707C0A833840C
:1022D4008740229579B7974700009387E7139C437B
:1022E400411122C406C626C28297974700009387ED
:1022F400272E80476309A406BE849747000093876E
:10230400670D8387670163D80704018D1354550053
:102314009747000083C7672B6367F404593D9844CB
:102324009747000083C7672A9396570036971D8CFA
:102334009746000023A2E62AE372F4FE2244B24048
:102344009244174500000345B5268145410117A372
:1023540002E067002336E37A85FAB707C0A833841E
:102364008740229565B7B24022449244410182805D
:1023740097470000938747289843B75702009387ED
:10238400079F832607091396560063580600832681
:1023940007091396660063440600FD17FDF3828067
:1023A40071C5AA870145E9C58D07C207C183F19BA1
:1023B400C207C18313074003636FF7021747000086
:1023C4001307872908431747000013076728144396
:1023D4006398A602174700001307C7FF185B01455F
:1023E40041CB4111C20706C60545DD8D0297B240B7
:1023F400014541018280174700001307A725D9B77B
:102404000357650035E303574500636FF704B306CC
:10241400F7402146637CD602032805009386870093
:102424001D8FAA96611717460000035686F523925E
:10243400E60023A006012393060014C12312F5002D
:10244400130786FF97460000239DE6F22313B50089
:102454009745000083D5E5F2B387F54017470000A0
:102464002311F7F22105828008419DB7014582803E
:1024740082800DC1974700009387071E03A30700BE
:10248400974700009387C71C83A8070081469A8753
:1024940063E31701828003A80700636DF50A636B89
:1024A400A80A13878700E367E5FE03D66700216760
:1024B40005076317E60003C7C1930507238EE1925E
:1024C40097450000938585EB03D6470003D7650045
:1024D40023930700329742074183174500002312D4
:1024E400E5EA638A6702174500001305A51608414B
:1024F4006303F50203D5660019ED83D7460023A0D4
:10250400060121073E9621062392C6009747000044
:102514002399E7E6B6879843E30E17F7974600003A
:10252400938646139442E307D7F683566700BDF2B9
:1025340083D64700035647001843A106B296239258
:10254400D70098C383D76500A10717470000231A53
:10255400F7E28280BE86C28725BF0111974700003B
:102564009387C70F22CC03A4C70B26CA4AC84EC6FA
:1025740006CEAA8413092500854915C083C7140013
:1025840003473400858B6304F700405CFDB71946AC
:10259400930544004A85EFE0CFFEE31835FF22851A
:1025A400F2406244D2444249B249056182804111F9
:1025B400974700009387870A22C403A4C70B26C247
:1025C4004AC006C693042500054901E82285B240A5
:1025D40022449244024941018280A6851305A40243
:1025E400972003E0E7804046E30225FF405CF1BF0B
:1025F4004111974700009387670622C403A4C70BC1
:1026040026C24AC006C693042500054901E822856E
:10261400B24022449244024941018280A6851305B6
:10262400A401972003E0E7802042E30225FF405CF9
:04263400F1BF0000F2
:1026380097110020938101B1176100201301019CBB
:102648001305400097E5FF1F9385459B170600205B
:10265800130606FE63FAC5008322050023A0550071
:1026680011059105E3EAC5FE17F503001305C588B2
:10267800970500209385C5FB1386018563FAC5007D
:102688008322050023A0550011059105E3EAC5FE44
:1026980013850185974500209385C50D6377B5009F
:1026A800232005001105E36DB5FEFD42739002BCC1
:1026B8008D4273904280B72200009382828873A073
:1026C800023097E2FF1F9382629393E23200739085
:1026D800523097E20000938262CC739012347300F8
:1026E80020303D432A876373C3029377F700BDEF19
:1026F800ADE5937606FF3D8ABA960CC34CC30CC76A
:102708004CC74107E36BD7FE11E28280B306C34092
:102718008A069702000096966780A6002307B700EE
:10272800A306B7002306B700A305B7002305B70023
:10273800A304B7002304B700A303B7002303B7001B
:10274800A302B7002302B700A301B7002301B70013
:10275800A300B7002300B700828093F5F50F939686
:102768008500D58D93960501D58D61B79396270081
:102778009702000096968682E78086FA9680C117AF
:102788001D8F3E96E374C3F8A5B73367B500FD53B4
:102798000D8B79E7B7877F7F9387F7F710419441CF
:1027A800B372F6003363F600BE92B3E26200639739
:1027B800720C6318D6065041D441B372F6003363E5
:1027C800F600BE92B3E262006398720A631BD604F5
:1027D80010459445B372F6003363F600BE92B3E237
:1027E80062006391720A631ED6025045D445B372E3
:1027F800F6003363F600BE92B3E26200639A720891
:102808006311D60210499449B372F6003363F60097
:10281800BE92B3E26200639372085105D105E30FDB
:10282800D6F61317060193970601631CF700135792
:10283800060193D706013305F7409375F50F91E923
:1028480082804183C1833305F7409375F50F91E189
:1028580082801377F70F93F7F70F3305F7408280DD
:102868000346050083C60500050585056313D600E4
:1028780065FA3305D640828011059105E312D6FE2C
:10288800014582802105A105E31CD6FC0145828013
:102898003105B105E316D6FC014582804105C10525
:1028A800E310D6FC01458280014711464148B386B2
:1028B800E5008147B308F50083C808008507C1060D
:1028C80023A816FFE398C7FE11071105E31107FFB8
:1028D8008280935785019CC19357054193F7F70F61
:1028E800DCC19357854093F7F70F1375F50F9CC517
:1028F800C8C582801C414111130705013EC05C41D7
:102908003EC21C453EC45C453EC69397250014084C
:10291800B69783A707FF85051105232EF5FE8D8938
:10292800E315E5FE41018280397122DC416613849A
:10293800C19B06DE26DA4AD84ED652D456D25AD091
:102948005ECE93050501A2863708FF007D16830732
:102958000500034735001105E207D98F0307D5FFA6
:102968009106420733770701D98F0307E5FF22074E
:10297800718FD98F23AEF6FEE39BA5FC8149914464
:10298800930A010117AB0300130B0BF897AB030075
:10299800938B0BF5130AC00293F734000329040044
:1029A8004844BDE78A85353785450A85A1370A87B2
:1029B8001C43110793F6F70093F7070FDA97B697BA
:1029C80083C70700232EF7FEE394EAFE02459247E9
:1029D8006205C2075D8DB2475D8DA247A2075D8D76
:1029E80093972900DE979C4385093D8D3345250142
:1029F80008C885041104E39144FBF2506254D25490
:102A08004259B259225A925A025BF24B2161828092
:102A18003345A90008C8F1BF797122D426D24AD01B
:102A28004ECE52CC56CA06D62A8A939945000144FE
:102A3800938AC19B13090101C144B3073401D69796
:102A480088438A85793533078A008A8714439043F7
:102A580091074107B18E2328D7FEE39927FF110478
:102A6800E31D94FCB250225492540259F249624A2E
:102A7800D24A45618280397122DC1304050106DEE1
:102A880022878147C1460C433306F10011070CC267
:102A98004C4710083E960CC24C4F10103E960CC284
:102AA8009107E392D7FE85450A85A9358945080827
:102AB80091358D4508103D3D81474147B306F100EA
:102AC80094421104232ED4FE1408BE96944254C492
:102AD8001410BE969442910754CCE391E7FEF2504D
:102AE80062542161828006059377051089C71375A2
:102AF800F50F1345B5018280411106C6ED37B24086
:102B08004101D5B781471148C1483386F500B3065E
:102B1800F500014703AE06003303E600050723006E
:102B2800C301C106E31807FF9107E39017FF8280EE
:102B38009306050117A60300130606ED1305050500
:102B4800138706FF1C43110793F5F70093F7070F48
:102B5800B297AE9783C70700232EF7FEE394E6FEED
:102B6800C106E31FD5FC82801C414111FD563EC0C1
:102B78005C413EC21C453EC45C453EC68D47B3859C
:102B8800B7409307C500139725001008329703270D
:102B980007FFFD1598C36393D5008D451387C7FFBD
:102BA8006314F50041018280BA87F1BF397122DCD4
:102BB8001304050106DE22878147C1460C4333060C
:102BC800F10011070CC24C4710083E960CC24C4F3E
:102BD80010103E960CC29107E392D7FE85450A85F0
:102BE80061378945080849378D450810B53F814741
:102BF8004147B306F10094421104232ED4FE140871
:102C0800BE96944254C41410BE969442910754CC74
:102C1800E391E7FEF2506254216182809306050138
:102C280017A60300130646CE13050505138706FFEE
:102C38001C43110793F5F70093F7070FB297AE9768
:102C480083C70700232EF7FEE394E6FEC106E31FC1
:102C5800D5FC8280411122C406C626C285472E842F
:102C68006301F50289476318F5002244B240924493
:102C78002E8541018DBD8D47631BF5002E85A53539
:102C8800298C2285B2402244924441018280A54782
:102C98006315F5002E858D35DDB7AD47631AF50050
:102CA8002E85993D8935AA842285353D258DC9BF54
:102CB800B5476316F5002E858135AA84FDB7B94757
:102CC800E311F5FC2E850D3DAA84313DA98C2285A2
:102CD800193D3344950075B7597186D6A2D4A6D24A
:102CE800CAD0CECED2CCD6CADAC8DEC6E2C4E6C2D4
:102CF800930605040A87AA879043C107410723283A
:102D0800C7FE03A647FF232AC7FE03A687FF232C77
:102D1800C7FE03A6C7FF232EC7FEE39FD7FC17A94C
:102D28000300130969E2130A050193090505832CB9
:102D38000900032C4900832B8900032BC900930A3F
:102D48000AFF8A848C406685910A29378C482A8430
:102D5800628509378C50298C5E85ED3D8C58298C0D
:102D68005A85CD3D218D23AEAAFE9104E31C5AFD60
:102D7800410A4109E39D49FBB65026549654065929
:102D8800F649664AD64A464BB64B264C964C656180
:102D980082806382051493F7F500639E071215710C
:102DA800D6C3AA8A3285A2CDA6CB86CFCAC9CEC73A
:102DB800D2C5DAC15EDF62DD66DB6AD96ED73284DE
:102DC800AE84EF505315C147631EF5002285A93E16
:102DD8000149130A010697AB0300938BEBD6294CE4
:102DE80063419902FE406E44DE444E49BE492E4A74
:102DF8009E4A0E4BFA5B6A5CDA5C4A5DBA5D2D61ED
:102E08008280338B2A010C105A85793C8145081041
:102E180021318549081019350810B1391C10D2869E
:102E28003E8710434107C10623A8C6FE032647FF75
:102E380023AAC6FE032687FF23ACC6FE0326C7FFC8
:102E480023AEC6FEE31FEAFC17A703001307C7CB90
:102E580003280700832D4700032D8700832CC70014
:102E68005284138607010C4042853ECE3ACC32CAC2
:102E780042C8CD330C482AC66E85E93BB2460C5091
:102E88001104A98E6A8536C6F133B2464C54A98E10
:102E9800668536C6C133B246F2475246358D88C379
:102EA800910742486247E310F6FC4107B287E39175
:102EB800EBFACE85081085098536E39D89F508105B
:102EC800B13B08104D3EA9450810B936DA850810FF
:102ED8001539410931B78280638D051093F7F500E4
:102EE800639907105171CECFAA893285A2D5A6D38E
:102EF80086D7CAD1D2CDD6CBDAC9DEC73284AE8462
:102F0800EF507301C1476319F5002285313C01492F
:102F1800138BC19B634D9900BE502E549E540E597D
:102F2800FE496E4ADE4A4E4BBE4B6D618280338A43
:102F380029018C0052858D3AA9458800F13C1384FB
:102F4800C1A4C14A930B00048800DD368800B93952
:102F58008800593308408A85AD3A48400C08953AAC
:102F680008440C10BD3248440C18A532180181479A
:102F7800B306F100944241072328D7FE1408BE96F1
:102F88009442232AD7FE1410BE969442232CD7FECF
:102F98001418BE9694429107232ED7FEE39A57FD44
:102FA80008011D3B01479C003385E7001C01B30560
:102FB800F70081473306F5003388F50014420328EB
:102FC80008009107B3C6060114C2E39557FF4107ED
:102FD800E31B77FD4114E31964F78800913E8800EC
:102FE800F136814588000D3CD2858800213E410993
:102FF80015B782809307F00F6385F60A2D71232A8F
:10300800911023282111B2842326311113060010B0
:103018002E89AA89930530020A85232E1110232CA4
:1030280081103684EFF0EFEBA2852685EFA02017FC
:1030380013178500935785003365F7002310A10007
:10304800A6852286130531009304340023018100EC
:1030580093F4F40FEF40F30193F6F40089C64D049E
:10306800158C9374F40F1C02A697A6850A8517A6DB
:103078000300130626B3238007F0213B26868A85A2
:103088004E85EF40037F230099008320C11103245C
:10309800811183244111032901118329C11015616C
:1030A80082808280797122D432844AD04ECE2A8995
:1030B800AE892285B68517A603001306A6AE26D2CA
:1030C80052CC06D636C6093DB246130A340052859C
:1030D800A296238006008344040083471400834596
:1030E8002400A204DD8CEFA0800B639AA40203469F
:1030F8002400D2854A852380C900EF50A365254561
:1031080097A50300938545A8EFA0200D0545B2506B
:10311800225492540259F249624A456182802380BE
:10312800090025452300090097A50300938585A676
:10313800EFA0A00A0145E1BF411106C6EF60F010FB
:10314800B240AA8617A70300130747AC171600203A
:103158001306D62C97A50300938585AC114541012C
:103168006FA0E01D130101DB2324812423202125E6
:103178002326112423229124232E3123232C412377
:10318800232A5123232861230347050093071004AA
:103198002A892E84631EF7560347150093074005B6
:1031A8006318F756034725009307E0056312F7569F
:1031B8002E86AA852545EFA0600D1306D003A285AB
:1031C8004A85EFA0A024AA84635A05003546A28543
:1031D8004A85EFA0A023AA84634405089389D4FFF5
:1031E8009307100363CE37074E86930539002808E6
:1031F800EF5043561C1CBE9917AA0300130A0ACAAB
:10320800238409DED28A8149554B83254A00280840
:10321800EFA080190DC18E09D69983D709005147AF
:10322800636FF70017A70300130707998A07BA9770
:103238009C43BA9782878509210AE39869FD97A577
:1032480003009385E5C4F5A89305F4FF858D1385E0
:103258001400C20581460146C1814A95EF20B02578
:103268008320C124032481248324412403290124A5
:103278008329C123032A8123832A4123032B012382
:103288001301012582801306F4FF058E938514002F
:1032980042064182CA95E800EFA0A03F1305D10479
:1032A800EF50634793150501C1811305D104EFA0C1
:1032B800C04A97A503009385E5971305D104EFA0AD
:1032C800A00E19CD97A50300938545970545EF9066
:1032D800D0701725002003452583EF40D04049B71B
:1032E80097A503009385C5961305D104EFA0C00BDD
:1032F80019CD97A50300938525960545EF90F06DA8
:103308001725002003454580EF40B04091BF97A5A1
:103318000300938565951305D104EFA0E00897A5F0
:1033280003009385E59411ED97A503009385059512
:103338001305D104EFA0400709C997A50300938599
:1033480065942545EF90706921BF97A50300938583
:10335800E5931305D104EFA0200511CD37170040E0
:103368008327C70A896697A503009385E592D58FB9
:103378002326F70AF9B797A503009385E592130565
:10338800D104EFA0600211CD371700408327870AC8
:10339800896697A503009385E591D58F2324F70ABD
:1033A8004DB797A503009385E5911305D104EF90D8
:1033B800B07F97A503009385A59141F597A50300D4
:1033C8009385C5911305D104EF90107E97A503004E
:1033D800938585913DF597A503009385A5911305E0
:1033E800D104EF90707C11C59717002023AE0772A7
:1033F80085BD97A503009385A5901305D104EF908B
:10340800B07A01C5EF50A002A1BD97A5030093852E
:10341800E58F1305D104EF90307901C5EF50E00531
:1034280081B597A503009385258F1305D104EF90E7
:10343800B07701C5EF40104425B597A503009385E3
:10344800658E1305D104EF90307601C5EF700063E7
:1034580001BD0346D104A547130606FD1376F60FF2
:10346800E3E0C7E0971700202388C76A97A5030001
:103478009385C58BEF90B06CE5B31306F4FF058E0A
:10348800138514004206418297A503009385052BF6
:103498004A95EFA02005971700209387276683D7C2
:1034A800070009CD93E71700171700202318F764C2
:1034B80097A503009385C588114569B5F99B17172A
:1034C8000020231DF76297A5030093852588EDB793
:1034D800A53179B31306F4FF058E1385140042064F
:1034E800418297A50300938565254A95EF90907FC3
:1034F800171400201304846021C997A5030093853D
:10350800A585E800EF500320E800EF50C32013160C
:1035180005014182EC00170500201305655FEF6087
:10352800506D97A503009385E5851145EF90F04A06
:1035380083570400414593E7170017170020231FFE
:10354800F75AEFA0E07A29BB97A503009385458435
:103558001145EF90904841657D15EFA0407C835759
:103568000400F99B17170020231AF758D5B9EF6004
:10357800604C9717002093876758A843EF40830350
:10358800AE862A8697A50300938545811145EF905D
:10359800105BF9B1EF40D01DE1B117A60300130687
:1035A800661A97A50300938525801145E1B5EF605C
:1035B800604E979503009385E57FE31F05EE97A579
:1035C800030093852580CDBD3545EF704040AA8422
:1035D800EF30537E2A86AE8625459795030093855E
:1035E800A57FEF90D055979703009387676488432A
:1035F800A68517140020130464D8EF30531123282C
:10360800A426EF60A04F03250427EF30B37AAE86D7
:103618002A86979503009385E57C8DBF81450D45E6
:10362800EF40904DEF6020412A86979503009385DF
:10363800257EA5BF81453145EF40104C8145394570
:10364800EF40904B81453545EF40104BEF60403FD0
:103658002AC6EF602040B2462A87171600201306B4
:10366800F6DB979503009385A57B1145EF90304DC8
:10367800C5BE17170020035707F797160020938633
:1036880036DB17160020130676D997950300938525
:10369800657BE1BF8547171700202300F7F6EF6029
:1036A800E045979503009385257B39B517170020CA
:1036B8000347A7F48547979503009385657AE31D2B
:1036C800F7DEC5B78547171700202303F7F8EF6023
:1036D800E0429795030093852579F9BB17170020D9
:1036E800034707F785479795030093856578E315A2
:1036F800F7DCC5B79717002093874740C85FEF30BE
:10370800736BAE862A869795030093852577BDBD92
:103718000146A2854A85EF40102399B6411122C47B
:1037280021649305048099460146254506C697D02D
:10373800FF1FE7802025930504802244B240994664
:10374800138601852945410117D3FF1F670083238D
:1037580099E10145828075DD011152C403DA418582
:1037680026CA93548A008504A204C204C18056C2A2
:10377800B38A4441C20A22CC4AC82E862E842A899A
:1037880097A503009385C597254593DA0A014EC688
:1037980006CE93890185EF90903A63ED8A0883D528
:1037A800418593F7F50FB1CF8D6783D54185938711
:1037B8000780A2864A86BE95294597D0FF1FE780D5
:1037C800601C1375F50F29ED83D749001566A2977C
:1037D800239AF18403D7418583D721856309F700AC
:1037E80063F3E700B297998F139607014182254545
:1037F80097A5030093854592EF9070341375F40FE5
:103808000DA08D6793870780930600100146BE952B
:10381800254597D0FF1FE780E0161375F50F49D5AA
:103828000145F2406244D2444249B249224A924A8E
:1038380005618280B3079440D297C207C183A183F0
:1038480003C74900850793F7F70F9396870011EB95
:103858009386170093740AF0A206C204C206C180B8
:10386800C18283D7218563F6F40033879600E3C9C4
:10387800E7FA0D6A130A0A800146B3854401254513
:1038880097D0FF1FE78000101375F50F51F983D506
:103898004185A2864A86D29505B7411122C4138470
:1038A800018522858145194606C697D0FF1FE78006
:1038B80080479307B0FA2300F4008D352244B240C4
:1038C800979503009385457C254541016F90F0103D
:1038D800A1654111994613860185938505802D457B
:1038E80006C697D0FF1FE780E00903C70185930745
:1038F800B00A6303F7005537B24083D6418503D633
:103908002185979503009385E578254541016F90BA
:10391800102383D7C1A60145638C071003D5E1A600
:103928006366F50023A601A6014582803385A7407A
:10393800D1473355F5021375F50F01E5239601A616
:103948008280130101BD23248142232611422322B0
:10395800914223202143232E3141232C4141232A04
:10396800514195471374F50F63F3A7001544228658
:10397800979503009385057C2545EF90501C0149D8
:103988008144938901A7514AA14A9377F90F03D536
:10399800E1A617170020034737B663E98704D14724
:1039A8003304F4022A94239781A6A147631CF706DF
:1039B800A6850808EF30700803D7E1A683D7C1A60B
:1039C80005456364F70023A601A68320C1420324AA
:1039D800814283244142032901428329C141032AA8
:1039E8008141832A4141130101438280B30749037E
:1039F8001408AA97CE9733859600631E5701BE8593
:103A0800EF3030232317A1008357E1000509BE9446
:103A1800C204C1809DBFAA851306E1003E85EF70F0
:103A2800B042DDB726860C080145EF50706D69B7C6
:103A38008280011106CE22CC26CA4AC84EC691E918
:103A480001442285F2406244D2444249B2490561A8
:103A58008280AA8975D583D7418503D621852E848E
:103A68009564638AC7006374F60015673A961D8EDD
:103A780093140601C1802686979503009385C55D3A
:103A88002545EF90D00B938714F06356F400930705
:103A9800F00F63EA9700979503009385655D2545C8
:103AA800EF90F00971BF83D441853387840095670F
:103AB80063C7E700A2854E8561398D3159B715690D
:103AC80033099940420913590901CA854E8549317C
:103AD80025D9ED75A695A295C205239A0184C181C1
:103AE80033852901D1BF83D6C1A681EA9795030002
:103AF8009385855E25456F90406E03D6E1A64111FA
:103B0800918E979503009385255E254506C6EF900F
:103B180010031387C1A68355070083D7E1A6138531
:103B280001A79D8DC2053E95C1812137B24023A6CC
:103B380001A641018280411183D7C1A622C426C2B1
:103B480006C6AE971307803EAA842E84635AF700F0
:103B5800593F979503009385E5552545EF90E06714
:103B680083D7C1A6138501A72286A6853E95EF3087
:103B7800535003D6C1A6229642062244B24092442C
:103B880041822396C1A69795030093852554254520
:103B980041016F90C07A011126CA06CE22CC4AC8CC
:103BA8004EC652C456C2814459C1D1C183D721855A
:103BB80003D44185638D870663F587081D8C42040D
:103BC8004180AE892A8922869795030093854545C9
:103BD8000145EF90C076A28463F38900CE84C204C5
:103BE8000D6A83D7218503D74185C180938A0185D2
:103BF800130A0A8063FAE704A6864A86B385470152
:103C08002D4597D0FF1FE780E0D783D72A00A697D6
:103C18002399F184EFF09FB083D6418503D621859F
:103C280097950300938505412545EF904071F24033
:103C3800624426854249D244B249224A924A0561E1
:103C4800828015673A949DBF15671D8FB38547011C
:103C580063D5E400A6864A8665B79569B389F940B5
:103C68006D743E94C20993D909012694CE864A867A
:103C780042042D4597D0FF1FE780C0D04180A2861F
:103C880033063901D2852D452399018497D0FF1F2A
:103C9800E78040CF83D72A003E94239981849DBF33
:103CA800184193878129104598C303574500544507
:103CB80090C72392E70058551049D4C7544998CF64
:103CC800979503009385C54E0547254590CBD4CBE2
:103CD800238EE7006F906050397126DA4AD84ED6A5
:103CE80052D456D25AD006DE22DC62CE66CC2A895D
:103CF800EF4073229374F50F8149254BE54A179AD3
:103D08000300130AAA4491ECF25062544E85D2542F
:103D18004259B259225A925A025B724CE24C2161C2
:103D2800828003470900930707FD93F7F70F637C29
:103D3800FB009307F7F993F7F70F63E2FA06930787
:103D480097FA93F7F70F139487016184FD14230002
:103D580089002685EF30030E2A86AE8603250A00E1
:103D680083254A0093F4F40F0509EFC0B00C2AC468
:103D780022852EC6EF30030C2246B246EF20233CA4
:103D88002A8C4E85AE8CEF3003122A86AE86628569
:103D9800E685EF10A34FEF302304AA89ADB7930649
:103DA800F7FB93F6F60F8147E3EFDAF8930797FCF2
:103DB80049BF411122C406C6830795022A8499C7C0
:103DC80013059502EF3033282389A1248307D412E1
:103DD80091CB1305D412EF30B326EF3073089387D5
:103DE8000122C8D3B240224441018280011126CA6F
:103DF8009304150022CC979503009385253F2A84C8
:103E0800268506CE4AC84EC6EF900062631E05108E
:103E1800979503009385C53D2685EF90E060630282
:103E2800050E85448307D4036386070C13059402A3
:103E3800EF30732185491379F50F1305D403638790
:103E4800340F8947638CF418EF30F31FA38AA12439
:103E5800631A39017946814513857127238B0184BB
:103E6800EFE03F888307D40885C31305D408EF30F3
:103E7800931D03C7618593071700238BF1849387EC
:103E88000122BA97A38BA7048307D40D85C3130512
:103E9800D40DEF30531B03C7618593071700238B9D
:103EA800F18493870122BA97A38BA7048307D412BE
:103EB80085C31305D412EF30131903C7618593071F
:103EC8001700238BF18493870122BA97A38BA70449
:103ED8008307D41785C31305D417EF30D31603C748
:103EE800618593071700238BF18493870122BA9782
:103EF800A38BA704F2406244D2444249B249056107
:103F08008280979503009385E52E2685EF90C05112
:103F1800E31905F02685979503009385E52DEF9025
:103F2800A0508944E31005F08144EDBDEF30B31192
:103F3800238BA124631A990079468145138591251D
:103F4800238B0184EFE0EFF98307D40885C31305B9
:103F5800D408EF30530F03C7618593071700238BED
:103F6800F18493870122BA97A38CA7028307D40D03
:103F780085C31305D40DEF30130D03C7618593076F
:103F88001700238BF18493870122BA97A38CA70289
:103F98008307D41285C31305D412EF30D30A03C79D
:103FA800618593071700238BF18493870122BA97C1
:103FB800A38CA7028307D417E38E07F21305D4173F
:103FC800EF30730803C7618593071700238BF184CB
:103FD80093870122BA97A38CA70229BFEF30B306B3
:103FE800A38BA12401BF411122C406C683079507EC
:103FF8002A8499C713059507EF30F304A389A124F0
:104008008307D40899C71305D408EF30D303238A4C
:10401800A1248307540B91CB1305540BEF305302A3
:10402800EF3003649387012288D7B24022444101CC
:104038008280011126CA8146B284014652C456C202
:1040480006CE22CC4AC84EC62A8AAE8AEF105372D0
:1040580041CD9307E0046386F40093073005639528
:10406800F408979903009389691603A6090083A6A3
:1040780049005285D685EF20830C37949800EF20AD
:10408800B355130404682A8933758502EF20B36198
:1040980003A6090083A64900EF105312979703005F
:1040A800938747139043D443EF1053112A8A33550B
:1040B8008902AE8AEF20335F2A86AE865285D6857E
:1040C800EF10C31C13073005AE876395E400B707EC
:1040D8000080AD8FF2406244D2444249B249224A3C
:1040E800924ABE850561828001458147E5B7011185
:1040F80026CA8146B284014652C456C206CE22CC94
:104108004AC84EC62A8AAE8AEF10936641CD9307F5
:1041180050046386F400930770056395F408979933
:1041280003009389A90A03A6090083A649005285BA
:10413800D685EF20C30037949800EF20F349130485
:1041480004682A8933758502EF20F35503A6090010
:1041580083A64900EF109306979703009387870774
:104168009043D443EF1093052A8A33558902AE8AC7
:10417800EF2073532A86AE865285D685EF10031139
:1041880013077005AE876395E400B7070080AD8F0D
:10419800F2406244D2444249B249224A924ABE8518
:1041A8000561828001458147E5B71357850093571C
:1041B800050113D885009376F50F01111377F70FD2
:1041C80093F7F70F618593F5F50F1378F80F99C2F8
:1041D80011C3B9E3230CD100A30CE100230DF100B6
:1041E800A30DA10003459101834781010347A10164
:1041F8002205A30E01014207C98F230EB100034512
:10420800B101D98F0347D1018345C1016205220756
:104218005D8DD98D0561828032951375F50F131365
:104228008501135383415D466357660861463363CE
:10423800C30285071376D70F114593F7F70F630568
:10424800A6002545631AA6007946637FF60205078E
:104258001377F70F85470DA809466312C70413861D
:10426800067D93084006B36816036385080013F5B6
:10427800360011C5130500193366A60219EE7546F6
:104288006374F60085470D47230CD100A30CE100A9
:10429800230DF100A30D6100B1B77146D5B77D4676
:1042A800E374F6FEB147E314F7FA850693F6F60FC2
:1042B80085470547D1BFE35903FC6105FD17131373
:1042C800850193F7F70F13538341DDFF7D171377AC
:1042D800F70F1146F947E309C7FA1946E306C7FA83
:1042E8002546E303C7FA2D46E300C7FA8947631654
:1042F800F7021386067D93074006B367F60291C757
:1043080093F83600F547E38108F893070019B36777
:10431800F60293B71700F10785BFFD4735F7FD167D
:1043280093F6F60F31478DB783471500034705000D
:104338000111A2075D8F834725008346350006CE0D
:10434800C207D98F0347550083454500170600204B
:104358001306C60203060625E206220733E5F60021
:10436800D98DA135135885001356050193D78500BB
:1043780013F7F50F93F7F70F935685011376F60F9A
:104388009375F80F1375F50FEF60404397070020FA
:1043980083C7D7FE05476385E70011476396E700A3
:1043A800F24005616F602051F240056182804971D9
:1043B80023248116138401228307340083C85122E1
:1043C80003C8412203C7212283C6112203C6012242
:1043D80097950300938505E4481023261116232298
:1043E800911623202117232E3115EF40432D481015
:1043F800EF40633218485C48030604033AC03EC2E3
:10440800030814035C4418445410979503009385DB
:1044180065E23695EF40A32A4810EF40C32F5C10A1
:104428003E958307640017960300130626DE89C7A6
:1044380017960300130606DD97A50300938585915B
:10444800EF40E3274810EF40032D544C104C5C100C
:1044580097950300938505DF3E95EF404326481066
:10446800EF40632B030634035C103E9597950300D9
:10447800938505DEEF40A3244810EF40C3290307C6
:104488002403AA8448503ACE13840122EF308312C1
:1044980072475C10AE862A8697950300938545DCA3
:1044A80033859700EF40A3214810EF40C3265C10E6
:1044B80003C6412597950300938505DC3E95EF409B
:1044C80003204810EF4023255C109795030093853F
:1044D800A5DB3E95EF4003231389E123A28497A926
:1044E80003009389A98603C6740519CA481032CEF9
:1044F800EF40632272465C10CE853E95EF40231C48
:104508008504E39224FF4810EF40E3205C10979560
:1045180003009385E5D73E95EF40C31E97A403009B
:104528009384C4820346940319CA481032CEEF40DC
:10453800831E72465C10A6853E95EF40431805041D
:10454800E31224FF4C102545EF8030498320C11623
:104558000324811683244116032901168329C115D2
:1045680075618280411122C406C626C2830755019F
:104578002A84B9C7A946938707FDB387D70203479B
:104588006501130707FDBA97A381F1220307750197
:1045980083478501130707FD3307D702938707FD74
:1045A8003E972382E122830795010347A50193875C
:1045B80007FDB387D702130707FDBA97A382F12235
:1045C8008307940281CB130710046391E71485478E
:1045D8002383F1228307D4039384012299C7130507
:1045E800D403EF30E32588C4CCC40306140509CAF4
:1045F8008844CC442388C124EFF0BFA388C4CCC42A
:104608008307540699C713055406EF30632388C8F7
:10461800CCC80306940709CA8848CC48A388C12493
:10462800EFF0FFAC88C8CCC88307D40899CF13052E
:10463800D408EF30E32097970300938727BC904373
:10464800D443EF10D32F88CCCCCC8307140A99C756
:104658001305140AEF30231F2390A1248307540B5A
:10466800B9C7A946938707FDB387D7020347640BE9
:10467800130707FDBA972381F1220307740B8347B9
:10468800840B130707FD3307D702938707FD3E976F
:10469800A380E1228307940B0347A40B938707FDAC
:1046A800B387D702130707FDBA972380F1228385C2
:1046B8003400856703C64122938707E11307C003C7
:1046C8003307E60283C65122B387F502BA97B69735
:1046D80023A6F12417070020130747428357070032
:1046E8003A8413F5870039E1038564000547631FA1
:1046F800E50203C7212211EF8844CC4401468146D4
:10470800EF10130705E923830122B9A023830122AF
:10471800D1B5FDD175D2EDD293E78700138501227B
:1047280017070020231CF73CEFF01FC083876400A5
:10473800E1F7D1BF8848CC4801468146EF105303C2
:1047480079D183C72122E1D31306800793850122FB
:104758001385811AEF30E31103C581E59D470505EF
:104768003365F5021306800793850122238CA1E4A3
:10477800930780073305F502938701E63E95EF30EE
:10478800430FEFF0DFC21C582244B240924417078F
:1047980000202321F73A130680078145138501225B
:1047A80041016FD01FF40171232C811E232A911E11
:1047B8001306101E2A84AE8468008145232E111E1C
:1047C8002328211FEFD0FFF181458147014701468A
:1047D8005148CD485D436340960899C12306F100CE
:1047E8001306A002A6852285EF8050428347C100A8
:1047F80051473386A440B387E70293051500780034
:104808007D16A29585073305F700EF30830613065A
:10481800A002A685228503491400EF80303F89470E
:1048280063C3A7080345C100D1473305F5027C00DF
:1048380005053E95EFF04FCA631CA90419469795E4
:1048480003009385A5991305D100EF80B04925C5CC
:104858006800093B35A8B306C40003C506009306E3
:1048680065FD93F6D60F91EA850793F7F70F636115
:10487800F302854501470506B9BFB3860703130E42
:10488800011FF296BA96A38EA6E00507E3D5E8FEC7
:104898008320C11F0324811F8324411F0329011F73
:1048A8001301012082803307F400034707008507BE
:1048B8003349E900B5B719469795030093854592A2
:1048C8001305D100EF8010420DED194697950300AE
:1048D800938545911305D100EF80D04019ED194615
:1048E80097950300938545901305D100EF80903F7D
:1048F80045D16800EFF08FCF61BF6800EFF0AFEEF1
:1049080041BF6800EFF0EFCA61B7757122C526C3D1
:104918004AC1CEDED2DCD6DADAD806C7AA892E8911
:10492800814401448147130A4002854A354B139755
:1049380004014183636C2701BA402A449A440A4916
:10494800F659665AD65A465B496182803387990080
:104958000347070063004703639C5701631D670112
:104968009C18A297A2856800238E07F82D3D8147E1
:10497800850475BF01449C18A29705041374F40FAD
:10498800238EE7F893373406E5B7138581E5834727
:10499800050013078007B387E702A1073E958280C9
:1049A8001385811A82809707002083C7A71581CFB6
:1049B8009707002083D7A7C1FD17C207C183130734
:1049C800A0036375F70023AC0184828031714ED750
:1049D8009389818583A7090056D3938A81E5850742
:1049E80022DD26DB52D55AD15ECF62CD66CB6AC9AD
:1049F80006DF4AD96EC723ACF18483C481E5014A36
:104A0800130C80075684978C0300938CAC74054D67
:104A18009D4B154B3389840356998307E900E1CFF1
:104A280003A60C0083A64C0003250902832549022E
:104A3800EF1083656341050C83470904638DA70B59
:104A480093171A001808BA97035789022390E700AA
:104A58003C00D29723809700050A9904B3E47403B5
:104A6800E31A6AFB0357810183570101998F13D712
:104A7800F741B98F998F939407011307400BC180B1
:104A88006358F70093078016B3849740C204C18027
:104A98002686978503009385E56E6808EF303342D4
:104AA8006C082545EF806073938714FFC207C183A4
:104AB8007947636EF70803499100130A8007854513
:104AC800014533094903210922994A86EF70A00656
:104AD8008344B10085450145B3844403A104A294ED
:104AE8002686EF704005CA850D45EF20D016A685AD
:104AF8000D45EF20501683A709001707002003571C
:104B080007AD63E7E70203C581E593048007330532
:104B18009502B30DA4008387ED0099CB83C7412B81
:104B2800138981296397070E21052295EFF04F9786
:104B3800FA506A54DA544A59BA592A5A9A5A0A5BA4
:104B4800FA4B6A4CDA4C4A4DBA4D29618280930778
:104B5800D002E3F297FA834B8100930A80078545D8
:104B6800B38B5B030145138C8B00229C6286EF603C
:104B7800907C034B910085450145330B5B03A29B59
:104B8800210B229B5A86EF60107B034AA1008545C2
:104B98000145330A5A03210A229A5286EF60B079F6
:104BA8000349B10085450145330959032109229973
:104BB8004A86EF6050788344C10085450145B38437
:104BC8005403A104A2942686EF60F076E2850D4591
:104BD800EF207008DA850D45EF20F007D2850D45E6
:104BE800EF207007CA850D45EF20F006A6850D4514
:104BF800EF20700683C781E5B38A570303A74B03E9
:104C0800A29A83A74A03E318F7EE85472380FA049C
:104C1800DDB5178D0300130D6D5403260D00832693
:104C28004D0003A58D0183A5CD01978903009389C4
:104C38006953EF10C35003A6090083A64900EF008B
:104C4800F3572A8BAE8B03260D0083264D000325D0
:104C5800090183254901EF10834E03A6090083A6A5
:104C68004900EF00B3552A8AAE8A2A86AE865A854D
:104C7800DE85EF105318978703009387274F9043DB
:104C8800D443EF10C34BEFB0D0052A8CAE8C5A85B5
:104C9800DE85EFB0E07B2A8BAE8B5285D685EFB0F0
:104CA800207B032689008326C9002A8AAE8A03A5A9
:104CB8000D0183A54D01EF10131403260D00832663
:104CC8004D00EF10C34703A6090083A64900EF0073
:104CD800F34E97870300938767499043D443EF10B7
:104CE8000346EFB010002A89AE895286D6865A85C7
:104CF800DE85EF10C3444A86CE86EF1043444A86C9
:104D0800CE86EF10C3432A89AE896286E68662851D
:104D1800E685EF10C3422A86AE864A85CE85EF0027
:104D2800E356EFB09043EFB010052A86AE86EF0049
:104D3800E355978703009387E7439043D443EF10E5
:104D4800034097870300938767439043D443EF104A
:104D5800033F2A86AE862A89AE89680897850300AC
:104D680093854543EF30B3156C082545EF80E04641
:104D780017F5FF1F0345856AEF20C30B2A86AE8609
:104D88004A85CE85EF106325E354A0DA03C681E592
:104D9800330696028545014521062296EF60B059F3
:104DA80083C581E5B38595020D45A105A295EF2040
:104DB800806A03C581E53305950221052295EFE058
:104DC8003FEE23AC0184ADB3411106C6EF70006914
:104DD800EF70003383C701862147639EE70017F70A
:104DE800FF1FA30BF77097F7FF1F23880770B240C8
:104DF80041016F40B05097F7FF1FA38F076EC5BFE3
:104E0800054863060605411122C406C62A8419CA44
:104E18000948630206058D47630CF604B240224434
:104E280041018280979503009385854D1145EF8058
:104E3800C03AA2851145EF80403A2244B240979586
:104E480003009385A54D114541016F80003995C632
:104E580090426F40D035F9D22244C8C2B24003C54F
:104E6800A6002394B6003686954541016F60B04C84
:104E78002244B24041016FB020548280411106C6DD
:104E880023AEB18401C61C4223ACF12A97F7FF1F59
:104E980083C7374F8DEB0545EF90C02397850300F7
:104EA8009385C5482545EF8040339707002083D771
:104EB800E7C4B24093E70701170700202310F7C49F
:104EC80041016F60706805470545639CE700EF90F6
:104ED80060200545EF80D06197850300938545469E
:104EE800D1B7EF90201F0545EF90C0200545EF8012
:104EF800306097850300938525466DB7411122C41C
:104F08002A848307D40306C626C22E8589C71307B9
:104F1800F0036398E70217F7FF1F1307F74C97F69C
:104F2800FF1F9386564917F6FF1F1306B645978548
:104F380003009385A54D2244B240924441016F304D
:104F4800037897F7FF1FA38F074297F7FF1FA384E4
:104F5800074697F7FF1FA3890748034704008547BB
:104F6800AE8463FAE7009305D40317F5FF1F130512
:104F78007541EF3023798307940791CF03470400E5
:104F8800894763FAE7009305940717F5FF1F130590
:104F98009542EF3023778307540B91CF03470400E2
:104FA8008D4763FAE7009305540B17F5FF1F1305A8
:104FB800B543EF3023750146973500009385254C9E
:104FC8001305C012EF20904EEF40503317F7FF1F24
:104FD8001307974197F6FF1F9386F63D17F6FF1FB5
:104FE8001306563A97850300938585442685A1B70D
:104FF800411126C206C622C4034705008947AE846C
:1050080063F5E7029305D5032A8417F5FF1F1305F7
:105018006530EF30236F13059407EF20D30297F71D
:10502800FF1F239BA734EF40F027EF40B02B17F664
:10503800FF1F1306262E97F6FF1F83D6E633979594
:105048000300938565AD2685EF306367854797F53F
:10505800FF1F9385B53C17F5FF1F1305652A17F742
:10506800FF1FA303F720EF30E36997F5FF1F938530
:10507800753117F5FF1F1305451FEF30A36897F526
:10508800FF1F9385553317F5FF1F13052521EF30B3
:10509800636797F5FF1F9385353517F5FF1F1305D0
:1050A8000523EF30236697850300938525B617F50A
:1050B800FF1F13054529EF30E364EF40B01E22447B
:1050C800B24092440146975500009385053D13056B
:1050D800800241016F20903D411122C426C24AC07E
:1050E80006C68307D503AE841789030013098966AA
:1050F80017040020130484A089C71307F0036391E1
:10510800E70417F5FF1F03455531EF10B352032687
:10511800090083264900EF00730AEF20635468C032
:10512800EF204349AE862A86978503009385056359
:105138002244B24002492685924441016F302358E7
:105148001305D503EF20237097F7FF1FA387A72C1C
:105158001375F50FEF10134E032609008326490037
:10516800EF00D305EF20C34F68C0EF403019684007
:10517800EF204344AE862A86978503009385056011
:1051880045BFAA870387D7032E8509C79306F0036F
:105198006315D70297F7FF1F83C7971E178603006B
:1051A8001306865889E717860300130666589785FD
:1051B8000300938565596F30835041111385D703D8
:1051C80006C622C42E84EF20036897F7FF1FA38921
:1051D800A71AEF40B01297F7FF1F83C7771A978572
:1051E80003009385655589E79785030093854555A1
:1051F80022852244B24041016F30C350411126C27A
:1052080006C6AA8422C48387D4032E8589C71307B8
:10521800F0036396E70497F7FF1F83C797160547C0
:105228006385E70289CB09476386E702B2402244D7
:1052380092444101828097850300938565582244F2
:10524800B240924441016F30E34B97850300938548
:10525800A559F5B7978503009385C55BCDB79384AA
:10526800D4032E842685978503009385A55DEF30AA
:10527800A3501DC1894717F7FF1FA304F71097858F
:105288000300938565602285EF30C3472244B2400E
:10529800924441016F4090062685EF20C35A13754A
:1052A800F50F97F7FF1FA38EA70C85479785030077
:1052B8009385855BE309F5FC97850300938505597C
:1052C80079D18947E30DF5FA17F7FF1FA30BF70A02
:1052D800978503009385855D7DB741112E85978558
:1052E80003009385256006C6EF30C341B2400146EE
:1052F800975500009385651A1305200341016F2017
:10530800F01A411122C426C206C68307D503AE840B
:1053180017F4FF1F1304840689C71307F003639B60
:10532800E70283060425179603001306E68263D670
:105338000600178603001306A6A426859795030082
:105348009385C581EF30A3372244B240924441018E
:105358006F8060431305D503EF20E34E97F7FF1FD7
:105368002386A726EF80204203060425979503008D
:10537800938585802545EF70907C83470425614798
:10538800B10793F7F70F6377F700A14717F7FF1FE8
:10539800230EF722EF408076830604251786030044
:1053A8001306867B63D60600178603001306469D00
:1053B8002244B24026859244978503009385457C14
:1053C80041016F30C32F797122D49307D1012E8404
:1053D80078089306B1011306A101930591011305FD
:1053E800E10106D6EF5040368348D1010348C10198
:1053F8008347B1010347A101834691010356E101A7
:1054080097850300938585202285EF30432B2285DD
:10541800EF30633097F7FF1F9387476E8C5B03A8C5
:1054280087030566130606E19306C00333F3C50236
:1054380022953377D802B378C8023AC0DC5733F7DD
:10544800D502B3D8D8023358C802B356D30233D6DC
:10545800C502978503009385A51DEF304326228555
:10546800EF30632B2A94EF70101117860300130690
:10547800A61909C5178603001306C618228597853D
:1054880003009385E51EEF308323B2502254456113
:105498008280AA870387D7032E8509C79306F0035E
:1054A8006311D70297F7FF1F83C7C7ED97850300DE
:1054B800938545EC89E7978503009385A5EE6F30C2
:1054C800632441111385D70322C406C62E84EF2016
:1054D80083371375F50F97F7FF1F2385A7EA17F78B
:1054E800FF1F0347B7E989476316F7000DE9114520
:1054F800EF80100097F7FF1F83C7C7E89785030061
:105508009385C5EB89E797850300938565EE22852A
:10551800EF30431F2244B24041016F40205E1145E5
:10552800EF80E07FC1BFAA870387D7032E8509C70D
:105538009306F003631ED70297F7FF1F83C767E43C
:105548000547638DE70089C70947638EE7008280B6
:1055580097850300938585F06F30C31A97850300FC
:10556800938505F4D5BF97850300938525F9EDB795
:1055780041111385D70322C406C62E84EF20A32C1D
:105588001375F50F97F7FF1F238DA7DE85479785BE
:1055980003009385E5F06306F5029785030093857C
:1055A800E5EB05C1894797850300938525F5630ACF
:1055B800F50017F7FF1F2306F7DC9785030093858F
:1055C800A5F92285EF3003142244B24041016F400F
:1055D800E052AA870387D7032E8509C79306F003ED
:1055E800631CD70017F6FF1F034646E397850300A1
:1055F8009385050E6F30A30C41111385D70306C69A
:1056080022C42E84EF20A32497F7FF1F2388A7E046
:10561800EF40C04E22852244B24017F6FF1F0346D2
:10562800E6DF978503009385E50C4101E1B7411159
:1056380022C439452E84814506C6EF20F04BEF4041
:1056480060412A8622852244B240978503009385CB
:10565800E50C41016F30A306411122C41305D5039F
:105668002E84978503009385A50106C6EF70D05B4D
:1056780011CD0145EF40804D9785030093850501C5
:1056880022852244B24041016F30C3070545EF40EF
:10569800E04B9785030093852501DDB7411122C4AE
:1056A8002A848307D40306C626C22E8589C7130712
:1056B800F003639CE70297F7FF1F9387D7E017F77C
:1056C800FF1F130737DD97F6FF1F83D666F117F61E
:1056D800FF1F130616D9978503009385E52D2244ED
:1056E800B240924441016F20937DAE8417F5FF1FAD
:1056F800130535D79305D403EF30C3008307940708
:1057080089CB13059407EF20031497F7FF1F2399FC
:10571800A7EC8307540B89CB9305540B17F5FF1F90
:10572800130555D7EF20137E8307140F89CB9305F4
:10573800140F17F5FF1F130515D9EF20B37CEF40A1
:10574800E03B97F7FF1F938717D817F7FF1F13073B
:1057580077D497F6FF1F83D6A6E817F6FF1F130620
:1057680056D0978503009385652626858DBFAA8721
:105778000387D7032E8509C79306F003631CD70058
:1057880017F6FF1F0356A6E4978503009385453651
:105798006F20F37241111385D70306C622C42E84E5
:1057A800EF20630A1316050197F7FF1F2391A7E25D
:1057B8004182978503009385E5342285EF20337075
:1057C80097F7FF1F83C797BB09476388E700F1175F
:1057D80093F7F70F0547636AF70097F7FF1F83D71B
:1057E80007DF89EB0945EF8080532244B24041012D
:1057F8006F40C030EF80004475D517F7FF1F03577F
:1058080007DD9307B003E3EFE7FC0945EF80404E5F
:10581800E9BF797126D206D622D44AD04ECE52CCD0
:1058280056CA5AC85EC68307D503AE8489C713070C
:10583800F0036394E706978503009385650D268535
:10584800EF20536C17F4FF1F130444B317F9FF1F1D
:10585800130989B6178A0300130A0A0B97890300EC
:105868009389490C2685EF20136B8347F4272695E7
:10587800528699C31306F427CE855104EF2033646A
:10588800E31224FFB250225492540259F249624A58
:10589800D24A424BB24B4561828085472A846312C3
:1058A800F604A1C203A906004A85EF20D3662A861A
:1058B80097F5FF1F938535D84A85EF70B04215E1FB
:1058C8002254B2500259F249624AD24A424BB24B70
:1058D80026859254978503009385050545616F20B9
:1058E80073628307D4031307100493F7F7FD639DCE
:1058F800E70817F9FF1F130969A822859305440BC8
:105908004A873A86AA86CD4703C89607FD1793F7B4
:10591800F70FA30F062785060506FDF723090728B5
:105928001305C5035107E31EB5FC9785030093854E
:1059380065022685EF20135D17F4FF1F1304C4A723
:10594800178A0300130A4AFC97890300938989FD83
:105958002685EF20535C8347F9272695528699C3FD
:105968001306F927CE855109EF207355E31224FF5A
:105978002254B25092540259F249624AD24A424BD6
:10598800B24B45616F4080171307400497850300A9
:1059980093858501639EE706130494072285EF200B
:1059A80093577D151375F50FC94763EFA7041309BE
:1059B800F027014A17FBFF1F130B4B9C978B030023
:1059C800938B4BFA930AB02BB3096901A2854E85D4
:1059D800EF70902501CD2685EF20F3534E86DE85A6
:1059E8002695EF20D34D054A238009005109E31D70
:1059F80059FDE31F0AF6228697850300938585F7EC
:105A08002685EF20D34BADB797850300938585F89E
:105A18002685EF20334FA9BF411122C406C626C2EE
:105A28004AC08307D5032E8489C71307F0036395FB
:105A3800E704978503009385A5B82285EF20934C4A
:105A48002285EF20534D97F7FF1F83C7D7BE2295B6
:105A580017860300130646EB89C717F6FF1F1306C0
:105A680096BD2244B240924402499785030093852B
:105A780065EB41016F20B3448547AA84631DF60294
:105A88009DCA03A906004A85EF20F3482A8697F5A0
:105A9800FF1F938555BA4A85EF70D02409ED2285FA
:105AA8002244B24092440249978503009385C5E792
:105AB80041016F2033458387D4031307100493F7FC
:105AC800F7FD639BE7069387940717F7FF1F1307F4
