:04C000006F208063CA
:10C004000000000000000000900000202E08002026
:10C01400A9BDF9F594000020000000000000000014
:10C02400960000209800002000000000000000009E
:10C034009A000020000000009C0000200000000086
:10C044009E000020260300202A030020A4000020D4
:10C05400A6000020A8000020AA000020AC000020B8
:10C06400AE000020B0000020C60000205E010020C9
:10C07400AA080020B8000020BA000020BC0000205C
:10C08400BE000020F60100208E020020C400002023
:10C0940001A001A001A001A001A001A001A001A094
:10C0A40001A001A001A001A001A001A001A001A084
:10C0B40001A001A001A001A001A001A001A001A074
:10C0C40001A001A001A037370040834747009946EB
:10C0D4004111BD8B638ED70231476386E706114752
:10C0E4006390E704A3030100175600000346469437
:10C0F40037370040834771006317F6022C00174559
:10C104000000130565A6976001E0E780A07B09A8FD
:10C114008347570093F7F70F2304F1008347810007
:10C1240041017300203083477100834687000C0867
:10C13400AE97238CD7FE83477100850793F7F70FDB
:10C14400A303F10045BF280097C001E0E780A0FCED
:10C154001375F50FA303A1000346710045B73737E4
:10C1640000408347474099464111BD8B638ED702F7
:10C1740031476386E70611476390E704A303010090
:10C18400175600000346E68A37370040834771009C
:10C194006317F6022C00174500001305259E9760CF
:10C1A40001E0E780207209A88347574093F7F70F0F
:10C1B4002304F10083478100410173002030834749
:10C1C4007100834687400C08AE97238CD7FE8347C3
:10C1D4007100850793F7F70FA303F10045BF28000B
:10C1E40097C001E0E780E0041375F50FA303A100F5
:10C1F4000346710045B73747004083474780994657
:10C204004111BD8B638ED70231476386E706114720
:10C214006390E704A3030100175600000346568108
:10C2240037470040834771006317F6022C00174517
:10C2340000001305E595976001E0E780A06809A870
:10C244008347578093F7F70F2304F1008347810056
:10C2540041017300203083477100834687800C08B6
:10C26400AE97238CD7FE83477100850793F7F70FAA
:10C27400A303F10045BF280097C001E0E780200D2B
:10C284001375F50FA303A1000346710045B73747A3
:10C294000040834747C099464111BD8B638ED70246
:10C2A40031476386E70611476390E704A30301005F
:10C2B40017460000034666793747004083477100FC
:10C2C4006317F6022C00174500001305A58D97602F
:10C2D40001E0E780205F09A8834757C093F7F70F71
:10C2E4002304F10083478100410173002030834718
:10C2F4007100834687C00C08AE97238CD7FE834712
:10C304007100850793F7F70FA303F10045BF2800D9
:10C3140097C001E0E78060151375F50FA303A10032
:10C324000346710045B77300203037170040835728
:10C33400E7098357E709C207C18393F7F7CFC20719
:10C34400C183231FF7087300203041118146014641
:10C354008145114506C60D2DB7270040114723839B
:10C36400E780B7F700E003A707D16D9B23A8E7D0C8
:10C3740003A707D15D9B23A8E7D0730050100100E9
:10C384000100B2404101828041118146814501464C
:10C39400114506C6D52BB727004011472383E780F4
:10C3A400B717004003C7E70283C5E70483D78703B1
:10C3B40091661377F70F93E5350063E5D700719B1A
:10C3C40013671700B7170040130670052380C704CE
:10C3D400930680FA2380D704010001002382070218
:10C3E4002380C7042380D704010001002387E702C8
:10C3F4002387B7042380C7042380D70401000100E6
:10C4040003C7B70413670702A385E704238007045F
:10C4140037F700E0832507D193E545002328B7D0FB
:10C42400832507D1DD992328B7D07300501001006C
:10C4340001002380C7042380D7040100010003C73F
:10C44400B7041377F70DA385E70423800704B240EC
:10C45400410182800111B7F5070022CC8146E10534
:10C464002A840A86194506CE26CA02C02312010070
:10C47400212BB717004003C7E70283C5E70483D71E
:10C48400870391661377F70F93E5350063E5D700CB
:10C49400719B13671700B7170040130670052380BC
:10C4A400C704930680FA2380D70401000100238285
:10C4B40007022380C7042380D704010001002387D7
:10C4C400E7022387B70423800704B7F500E003A736
:10C4D40005D11367470023A8E5D003D50702657784
:10C4E400110713750560418D598D42054181010085
:10C4F4002380C7042380D7040100010003C7F70089
:10C5040037F40700B7F400E013670704A387E700D4
:10C5140003C7B704610413670702A385E7042390E4
:10C52400A70283A704D1DD9B23A8F4D07300501085
:10C534000100010013056004352E81463000A285F8
:10C54400194502C423160100812122478247E31AB8
:10C55400F7FCB7170040130770052380E70413079F
:10C5640080FA2380E7040100010003C7B7041377AE
:10C57400F70DA385E70423800704F2406244D24404
:10C584000561828001114EC681460146AA89814512
:10C59400114506CE22CC26CA4AC8FD26B71600404D
:10C5A40083C7E60203C7E60483D68603116693F7BE
:10C5B400F70F1367370063E5C600F19B93E7170095
:10C5C400371400401309700523002405930480FAEE
:10C5D4002300940401000100230204022300240523
:10C5E40023009404010001002307F4022307E40458
:10C5F40023000404130550025920B7F700E003A7F1
:10C6040007D11367470023A8E7D02300240523009C
:10C614009404010001000347F40013670704A3070F
:10C62400E40023002405230094040100010025678D
:10C63400B3E9E9002310340303A707D15D9B23A8C2
:10C64400E7D0730050100100010081460146814586
:10C6540011451D2E2300240523009404010001002C
:10C664008347640493E717002303F40423000404BA
:10C67400F2406244D2444249B24905618280B7170C
:10C684000040930670052380D704130780FA2380A3
:10C69400E7040100010003C6B7041376F60DA38571
:10C6A400C70423800704137605024DC203C6A700FE
:10C6B400118A1DE22380D7042380E70401000100CE
:10C6C40003C7A700136747002385E7009307004BC0
:10C6D40001000100FD17EDFFB71700409306700538
:10C6E4002380D704130780FA2380E70401000100A4
:10C6F4007D892394A700010001000100010023802B
:10C7040007042380D7042380E7040100010001000B
:10C7140001003727004093061005A303D780238028
:10C724000704B7170040130770052380E7041307B5
:10C7340080FA2380E7040100010003C7B7041367EC
:10C744000708A385E7042380070482801376050481
:10C7540041C603C6A700418A1DE22380D704238073
:10C76400E7040100010003C7A7001367070123853D
:10C77400E7009307007D01000100FD17EDFFB717E7
:10C784000040930670052380D704130780FA2380A2
:10C79400E704010001001376F501136606042394EF
:10C7A400C700010001000100010023800704238069
:10C7B400D704130660042380E7046318C50001004E
:10C7C400010037270040894689BF0100010037274F
:10C7D40000409306200591B72380D7042380E70403
:10C7E4000100010003D787001367070C2394E700B7
:10C7F4000DBF4111814601468145114506C6692296
:10C80400B7170040130770052380E704130780FA65
:10C814002380E7040100010003C7670413671700BE
:10C824002383E70423800704B240410182808146C8
:10C83400014681451145892AB717004093067005C2
:10C844002380D704130780FA2380E7040100010042
:10C854007D562396C7022380D7042380E704010072
:10C86400010003C76704136717002383E7042380C9
:10C87400070401A0BD473305F50201007D1575FDD0
:10C884008280411122C426C206C6AA8401446317C9
:10C894009400B2402244924441018280050413056D
:10C8A400803E4204C13F4180DDB7B7170040130703
:10C8B40000032388E7028547174700002326F72E45
:10C8C40073002030411106C6852DFDBF230304806B
:10C8D40015472303E48001002302A4808280830798
:10C8E4006480E3CE07FE2303048082808307648090
:10C8F400E3CE07FE03454480828083076480E3CE51
:10C9040007FE2302A4808280411126C44AC24EC07D
:10C9140006C61377F50BAD47AA892E89954463069D
:10C92400F70019456537653F8D444E854537FD59F8
:10C93400FD1463983401B240A24412498249410172
:10C944008280135509011375F50F453F2209CDB7B0
:10C95400011126CC06CEB704080051371545BD3762
:10C96400713769372AC6A53F32459377150089EB9D
:10C97400136515001375F50FF240E24405618280DA
:10C98400FD14E9FC0145CDBF397126DC4ADA4ED8E5
:10C9940052D656D45AD25ED006DE62CE66CCB7E703
:10C9A40000E07D5783AA070022C603AA470023A0FC
:10C9B400E71823A2E718B717004013077005238070
:10C9C400E704130780FA2380E70483C74704930B23
:10C9D40075FFB684E20793FBFB0F8546AA892E8B6D
:10C9E400328937240040E187015763FA76016308EE
:10C9F400D5008946130700026313D5000157D98F68
:10CA040093F7F70FB71C00402382FC04114723035C
:10CA1400E4801305F00F5D3D094CD135636D7C1145
:10CA2400B7050700DA9537870700795563F2E504FF
:10CA3400B3879500636EF702370B0800A94733EB01
:10CA440065016399F90689E48144513D26850DA069
:10CA5400DA850945553D05090345F9FFFD14050B24
:10CA6400693D81C49377FB0FFDF7DD3569FD7D5585
:10CA7400B7170040130770052380E704130780FAF3
:10CA84002380E70403C74704418B2382E704F25061
:10CA9400B7E700E023A0571123A24711E254324420
:10CAA4005259C259325AA25A125B825B724CE24CFE
:10CAB40021618280A5476395F90685691309F00F02
:10CAC400B3069900B3742B01B6941349F9FFB374F8
:10CAD4009900856B33796901416B9387F9FFB3F74B
:10CAE400270199E363FC340193D94900C147E3E684
:10CAF40037FF99BF0569C1697D19D9B71305800D41
:10CB04006388690113050002638479011305100821
:10CB1400CA85DD3B353D21DD4E99B3843441D9B717
:10CB2400DA852D45D533CA94E30099F205097D3B96
:10CB3400A30FA9FED5BF9387F9FF93F7F70F63619E
:10CB4400FC0C83C71C0413073008631FF704370762
:10CB54000800636BEB04B3079B00B706100063F592
:10CB6400D704334BEB0089476393F9068980D54991
:10CB7400E38C04ECDA850945413B11090327C9FF1D
:10CB840091472320E48003076480E34E07FE2303D8
:10CB94003481FD17EDFBFD14110B81C49377FB0F5A
:10CBA400E9FF7D3371F5E1B5B717004003C75704BA
:10CBB400B70708001377070219E3B7870700795509
:10CBC400E378FBEA33079B00E3FFE7F855B58547B5
:10CBD400E382F9F2DA852D45053B9389F4FFE38579
:10CBE40004E6293393F7390091EB83260480032765
:10CBF400090093074900E39AE6E43E89CE84F1BF35
:10CC0400B5476396F9001305900BC93135BDB1479B
:10CC14001305B00AE38BF9FE99476391F904B7054C
:10CC24000800B365BB002D45C53181448D4BA14936
:10CC3400753963967401832704802320F9008504E1
:10CC4400E39834FF8327048013172B0163550700EF
:10CC54002312F900D5BB2322F900FDB39D47639944
:10CC6400F90281451305B0044531BD442320090070
:10CC740023220900FD599D3993F77400CA9703C70D
:10CC84000700FD14398D2380A700E39634FF6DBBA4
:10CC9400A1476392F9046D398144630D0B008D47FC
:10CCA4009304C0036308FB009304000563048B0131
:10CCB400930440041375C507E30895D81945393121
:10CCC40039390545213126850D3909453D3149312B
:10CCD400E31C05D669BB91476399F9001305600607
:10CCE400F536F53E130590090DB7E38F09D4F154D9
:10CCF400A9BB19CD91CD09CE81473387F500834671
:10CD040007003307F50085072300D700E317F6FE75
:10CD1400828019C991C909CA910583A7C5FF110564
:10CD24007D16232EF5FEC5BF828001C919C62A9639
:10CD34000505A30FB5FEE31DA6FE828081473307D8
:10CD4400F5000307070019E33E8582808507C5BF08
:10CD540001112E8626CAAA84131506019305F00430
:10CD6400418122CC06CE32C6EF1080632A8401C5ED
:10CD74003246A685BD3F2285F2406244D244056115
:10CD84008280854715C18DC105C28147B306F50070
:10CD94003387F50083C60600034707006398E6005F
:10CDA4008507E315F6FE85473E8582808147EDBF02
:10CDB4009307F6FFBE952A966313C5008280FD157E
:10CDC40083C715000505A30FF5FEFDB7AA87014526
:10CDD40081CF09CE3E96850703C7F7FF6317B700D7
:10CDE400E39BC7FE0545828082800145828079717C
:10CDF400975700009387476322D4804306D626D2F0
:10CE04004AD04ECE52CC56CA5AC85EC662C45DCC15
:10CE140037C9C901814B175A0000130A6A65975430
:10CE240000009384A4601309F937975A0000938A89
:10CE34006A5AB709C0A8370B40578357240095E3B3
:10CE44005C44639D0B0017570000232FF75C032CF1
:10CE5400C4002285EF10E061628499A823A6FB0038
:10CE6400FDB783270A008297838664011C4463DB31
:10CE740006063307F5406367E9089757000023A3C4
:10CE840007568355240003450400970002E0E78019
:10CE940020A55C405844A9CF1444B6978386640106
:10CEA40063C5060063E33701DA971CC4A28B3A8496
:10CEB40049F4975700009387E7519C4B09476378DF
:10CEC400F706F91717570000232EF750B2502254D3
:10CED40092540259F249624AD24A424BB24B224C12
:10CEE40045618280E377F5F83387F9402A9761B783
:10CEF40063970B009757000023A8E75289BF23A626
:10CF0400EB00B1B7D85009CF63DF06003385A740E3
:10CF140083A70A016376F5009757000023A4A74C62
:10CF2400A28B404471B7E3F3A7FECE97C5B79757DA
:10CF3400000023A9074A59BF411122C41754000015
:10CF44001304444C1C4006C626C24AC091C78297AB
:10CF54009757000023A8074A5C4091C382971C405E
:10CF64006391071C9757000083C75768858B9DC73B
:10CF740097570000A38C07661757000003473767CD
:10CF8400954763FDE700EF0050419757000083C7C2
:10CF94001766F5178A07A2979C43829717590000D2
:10CFA400130989688347C900918B99C3EF10A03294
:10CFB4001C4491C38297975400009384A4469840DC
:10CFC40017560000034616419757000083C7874051
:10CFD40093961700BA9683D60600D5CA97570000D1
:10CFE40083C7473F63EFC70A975700002384073E70
:10CFF4001C40639807129757000083C7775F91CF4F
:10D004009757000083C7B75E89EB97570000A38149
:10D01400075E978003E0E780803A97570000938784
:10D0240027459C43638F070EB707C0A81757000016
:10D03400232AF73A6D3B975700009387273FDC5329
:10D04400EDC3175700001307E738184B9757000034
:10D0540083C7173F6367F70C175700000347375917
:10D06400954763E0E70C8347C900918BDDEB904063
:10D074009756000083C6163663CBD70A2244B240C3
:10D0840092440249410117F301E067008362850776
:10D0940093F7F70F97560000238EF632E3E6C7F2B4
:10D0A40035BF86073E97835507002310070097571F
:10D0B40000002397073697570000938767349C43F3
:10D0C400175500000345053113172500BA979C43F3
:10D0D40082979757000083D7A73417570000034758
:10D0E400672F93C7F7FF7D8D9317170098403E97DE
:10D0F400835707005D8D2310A7009757000083C74F
:10D10400672D91C78507175700002305F72C17577C
:10D1140000000347272C9757000083C7B72BE375FC
:10D12400F7ECB240224492440249410182801397B1
:10D1340017003297035707006DF7850735BFAD67B2
:10D1440037C70040BD072326F7200F10000097576C
:10D15400000093872728C84F83278726BD66BD060E
:10D1640093C7F7FF99836A052326D7205D8D8280B4
:10D174004111B7170040985F3AC6945F3247E39C69
:10D18400E6FE3245410182808280032785116300D7
:10D194000712411122C406C68347C5008345C5044E
:10D1A4002A8493F7C70F2306F50083469700035696
:10D1B400C70013958601618563F1C508635A0506A6
:10D1C4000345870093F6F607A304D700054693E6C4
:10D1D40027006314C50093E617002306D4005C43BC
:10D1E40089075CC3A30AB400032504112E864C43AB
:10D1F400090501368327841103465401D44303D718
:10D20400C700B296118FD4C32396E7008947A30DB4
:10D21400F400034744039757000083C74722637809
:10D22400F7048347C40093E707012306F40081A0B1
:10D2340093E717002306F40075B79376F60F635D42
:10D24400050203458700854513E627006314B500EE
:10D2540013E617002306C400A30AD400A30407009E
:10D264008547A30DF400832784119C43DDF3B2406A
:10D27400224401454101828093E717002306F4000C
:10D28400A30AD400A3040700032504114C43090591
:10D294008D348327841103465401D44303D7C70034
:10D2A400B296118FD4C32396E7008D475DBF054521
:10D2B4008280975700009387A7319C43411122C471
:10D2C40006C6858B2A84C5EF4165130525F59700AD
:10D2D40003E0E780808845C58347A5002315F50052
:10D2E40083270412BDE72320A4122322A412854716
:10D2F4002310F404232005008347640154412316BA
:10D30400F5000347D4002304E5000547A304E50022
:10D31400175700001307472D184F1385170215815F
:10D324001C437D151375F50F9CC25C43DCC21C477E
:10D334009CC65C47DCC61C4B9CCA5C4BDCCA1C4FBD
:10D344009CCE5C4FDCCE19CD9386060213070702F0
:10D35400C1BF8327441288C3835704042322A41221
:10D36400850779B79757000083D74735850717573F
:10D3740000002315F734B2402244410182808347E0
:10D38400C40023090400054593C747002306F4009D
:10D39400DDB78347850193F7E70FD5EF8347950101
:10D3A400DDEB034625018346C50009CA83454503D1
:10D3B400175700000347B70863E7E50013F70601B2
:10D3C40041CF014709C6C18A0357651C81C68356EC
:10D3D400A51C369751C31307C712175500000355F0
:10D3E400E501B335A70237460F00411113060624A1
:10D3F400814622C426C206C67D543305A70297106F
:10D4040004E0E780E0D19757000083C7B703B384F3
:10D41400A700975700009387E72903A707098327E5
:10D42400070963F387003E84184375FB9757000090
:10D43400938707049C43829781476364A400B307DE
:10D44400A440B2402244B3B7970093C71700924454
:10D454003E854101828081473E858280797126D252
:10D4640006D622D44AD04ECE52CC56CA5AC85EC62C
:10D474008347350303447513AA843E941374F40F4D
:10D484009307400263F687001304B4FD1374F40F8A
:10D4940003AA841383AAC413A38B841222865285FD
:10D4A400D685971004E0E78020C2058915E503CBF3
:10D4B400D41201498149337B6403930B50024A8699
:10D4C4005285D685971004E0E78000C0058915C50C
:10D4D400639169031374F90F238B8412B25022549D
:10D4E40092540259F249624AD24A424BB24B4561C4
:10D4F40082808509E20993D989410509E31179FDFF
:10D50400E1BF832785090356E503797193D60701A3
:10D51400BD8EC206C182358E13577640935756404E
:10D52400898B058B5D8F93573640918B5D8F935715
:10D534001640A18B5D8F93171600C18B5D8F9317D7
:10D54400360093F707025D8F9317560093558600B4
:10D5540093F707041E065D8F1376F60F518F93D74A
:10D56400554013D63540118A898BD18F13D6754017
:10D57400D18F13D61540218AD18F13961500418A75
:10D58400D18F1396350013760602D18F139655006A
:10D59400137606049E05D18F93F5F50FCD8FA20760
:10D5A40045465D8F3307C70222D42A8426D252CC43
:10D5B40056CA032A8413832AC4135AC806D6369734
:10D5C4004207418393577740135557400989858B08
:10D5D400C98F135537401189C98F135517402189B5
:10D5E400C98F131517004189C98F13153700137597
:10D5F4000502C98F13155700935587001375050449
:10D604001E07C98F1377F70FD98F13D5354013D75A
:10D6140055401189098B498F13D57540498F13D50E
:10D6240015402189498F139515004189498F139518
:10D63400350013750502498F1395550013750504BC
:10D644009E05498F93F5F50F4D8F2207D98FB38728
:10D65400C7024AD04ECE5EC662C4B697C207C18323
:10D6640013D7774013D557400989058B498F13D5B4
:10D6740037401189498F13D517402189498F139554
:10D6840017004189498F1395370013750502498F97
:10D694001395570093D58700137505049E07498F8A
:10D6A40093F7F70FD98F13D5354013D75540118908
:10D6B400098B498F13D57540498F13D5154021899E
:10D6C400498F139515004189498F139535001375BA
:10D6D4000502498F13955500137505049E05498F5E
:10D6E40093F5F50F4D8F2207D98FB387C702130621
:10D6F40050025285D685B697BD8E93940601C1809B
:10D7040033F6C402137BF60F971004E0E780C09B46
:10D7140005890DED8347D41201498149B3849702E9
:10D72400130C5002C1804A865285D685971004E0B6
:10D73400E78080990589937BF90F11C563863403CB
:10D74400850993F9F90F0509E31F89FD230B641378
:10D75400B250225492540259F249624AD24A424B7C
:10D76400B24B224C456182805E8BCDB7011122CC35
:10D77400604126CA4AC84EC652C406CEAA841D4A6F
:10D78400130965058549BC446364F400054581A813
:10D7940003C7D40083474400631B470503C78402BF
:10D7A4006304F7000040C5B70347540083C754051A
:10D7B400E31AF7FE1946CA8513056400EFF06FDC1F
:10D7C400E31235FF0347C40083C79402E31CF7FC4C
:10D7D4000357E40083D7A402E316F7FC0145F240A3
:10D7E4006244D2444249B249224A05618280E31B21
:10D7F400F7FA0347540083C75405E315F7FA1946AB
:10D80400CA8513056400EFF0CFD7E31D35F9F9B7E6
:10D814000111975700009387E7E922CC03A4470B33
:10D8240026CA06CE2AC42EC6854419E40145F24010
:10D834006244D24405618280834791000347140007
:10D84400858B6304F7000044CDB719469305A10006
:10D8540013052400EFF0EFD2E31795FE0545C1BF91
:10D86400011122CC175400001304C4D918402AC64D
:10D874002EC432C206CE3C4B93F7F7F73CCB9780CD
:10D8840003E0E78080B01840975600009386C6D422
:10D894003C4B93E707083CCB9C423245A24523A06E
:10D8A4000700034715000348250022074208429752
:10D8B400034805004297034835006208429798D709
:10D8C400034755000348650022074208429703486E
:10D8D400450042970348750062084297D8D703472A
:10D8E40095000348A5002207420842970348850093
:10D8F40042970348B5006208429798DB0347D50076
:10D904000348E5002207420842970348C50003453F
:10D91400F500429762052A97D8DB03C7150003C5B3
:10D924002500220742052A9703C505002A9703C547
:10D93400350062052A9798CF03C7550003C56500D3
:10D94400220742052A9703C545002A9703C5750097
:10D9540062052A97D8CF03C7950003C5A5002207FF
:10D9640042052A9703C585002A9703C5B5006205B9
:10D974002A9798D303C7D50003C5E50022074205BB
:10D984002A9703C5C50083C5F5002A97E2052E979B
:10D99400D8D3D843759BD8C3D84313671700D8C3CB
:10D9A40098431367170098C3124698425C43858BCB
:10D9B400D1E71C4F01452300F6009C429C4FA183F4
:10D9C400A300F6009C429C4FC1832301F6009C42B5
:10D9D4009C4FE183A301F6009C42D84F2302E6004A
:10D9E400D84F2183A302E600D84F41832303E600E6
:10D9F400D84F6183A303E60098532304E6009853A9
:10DA04002183A304E600985341832305E600985339
:10DA14006183A305E600D8532306E600D853218387
:10DA2400A306E600D85341832307E600DC53E183D1
:10DA3400A307F600F2406244056182800100B5B795
:10DA440017570000130787B91443411122C49C5E81
:10DA54004AC006C6998326C2858B3A8417590000AA
:10DA6400130989B7D1CB9C5E975400009384C4B743
:10DA740093F7F7F99CDE17570000034747B793075E
:10DA84000008631BF700832709009C4393F70704EE
:10DA940017570000230DF7B483C7040093F7070456
:10DAA4009DC3975700009387A79C9C4382979757E1
:10DAB400000023A3A7B483C7040093F7F70B1757F9
:10DAC40000002303F7B283C7440093F707048DE7EC
:10DAD400854717570000A30BF7B0975700009387AB
:10DAE40067B29C43096798C7130700FC9756000068
:10DAF400238EE6AED844F8D31C40985F1183058B7F
:10DB040009CB985F3D9B98DF054797560000238F0C
:10DB1400E6AC985F1D83058B11CB985F1377F7F7FD
:10DB240098DF8547175700002302F7AC83270900C5
:10DB3400D8430583058B19C7D843759BD8C3D843ED
:10DB4400799BD8C3B2402244924402494101828065
:10DB5400397106DE16DC1ADA1ED82AD62ED432D251
:10DB640036D03ACE3ECC42CA46C872C676C47AC2D1
:10DB74007EC0F935F250E2525253C2533255A25587
:10DB8400125682567247E2475248C248324EA24E5B
:10DB9400124F824F21617300203097570000938702
:10DBA40067A6944397570000938707A403C7070009
:10DBB400058B11CB97570000238A07A297570000C3
:10DBC400A38607A2828003C71700058B65F7F85266
:10DBD40071FF83C75700DDB717580000130808A06A
:10DBE400032708001C5F9583858BD1E709C61C5B5E
:10DBF400BD832300F60085CA83270800985B460787
:10DC0400935767016356070093E707C0C207C183B0
:10DC140003970600C207C18709C7BA970947B3C764
:10DC2400E7022390F60085CD834715008DCB9756E8
:10DC3400000083C6C69B93F60604138797008947A2
:10DC44008DCA3A9503470500854699471376F7062A
:10DC54006311D60262076187B947634C07008327C3
:10DC640008009C5FED838D8B17570000A303F79882
:10DC740081473E8582808547EDBF411122C406C697
:10DC84001754000013040498184049E9AE877453EC
:10DC9400FDFE3E85B2859757000023880794977050
:10DCA40003E0E780804497570000938727939C43C1
:10DCB400B70680009843558F98C3D857719BD8D71F
:10DCC40097570000A384079297570000A38E0790EC
:10DCD4001C40094798C3B7F700E003A707D16D9B21
:10DCE40023A8E7D003A707D15D9B23A8E7D073003F
:10DCF40050101440175700001307078F834727005D
:10DD0400858B89EB83473700858BD9C797570000EC
:10DD1400238E078CB2402244410182808D476310D8
:10DD2400F502975700009387678B9C43B7068000E2
:10DD34009843558F98C3D857719BD8D75DBF8547F3
:10DD4400E319F5FAB567BD075CC70F1000001C4066
:10DD54000967094698C7130700F8975600002387F8
:10DD6400E6881757000013076787144398423183E6
:10DD74000D8B6319C7001307E043F8D33D673D07D4
:10DD8400D8C785BF984231830D8B01E7130760190B
:10DD9400EDB71307E01BD5B7FC52ADF3A5BF5D711A
:10DDA40052DC175A0000130A6A8303270A0086C646
:10DDB400A2C4A6C2CAC04EDE1C4397590000938970
:10DDC4002989175900001309E98393F7F7E793E7C3
:10DDD40007081CC383A609003707CEFF7D179C469E
:10DDE400130680022A84F98F9CC68327090013072F
:10DDF40000082800B8CBAE8493051008EFE0FFF2CA
:10DE0400977003E0E7806058977003E0E7806065EF
:10DE140083270A009376F41F370FFCFF23A407001F
:10DE2400984B4E88CA881367F70398CBF84F1305AD
:10DE340010F8D285137707E0558FF8CF9843F5761D
:10DE4400FD16758F98C39843B7063300B7020400D4
:10DE54001377F7E798C398439303401F7D1F137705
:10DE6400F7E71367071098C303A70900930F80020D
:10DE740085491C47D58F1CC7832709001307900DBC
:10DE84003400B8CB11490147135337002693834715
:10DE9400030013767700B3D7C740858BDDCF9C4151
:10DEA400832E0800239C07042390070603AECE02AA
:10DEB400137EDEFF23A6CE0383AE0700137EF7078F
:10DEC40093FE0EF833EECE0123A0C70103AE470242
:10DED400336E5E0023A2C70383AE0800014E23A263
:10DEE4007E0603DA070663074E0303AE0703038ABD
:10DEF4000600135EFE00620E135E8E416358CA0173
:10DF040003AE0703135EFE002380C60103DE07068B
:10DF1400137EFE0F03AA4E0663060A0003DA870582
:10DF2400E37F49FB03AE4702337EEE0123A2C7031E
:10DF340083870600635CF400034E03003396C90034
:10DF44001346F6FF3376C6012300C3003E8663D32F
:10DF5400A7002A8613158601618505071377F70F35
:10DF64008506E313F7F3B640264496440649F2596E
:10DF7400625A61618280974600009386A6689C423B
:10DF8400D84713161701635506029847131617014D
:10DF9400635006027D57B8D717470000130787431D
:10DFA400584F0507174600002324E644116798C715
:10DFB40098470D83058B1DC3174700000347E7628D
:10DFC40013671700174600002301E662130700F8E1
:10DFD40017460000230CE660214798C79847058B35
:10DFE40009CF174700000347376013671700174628
:10DFF4000000A30BE65E054798C798470983058B85
:10E0040009E798470583058B31CF984717460000E9
:10E014001306865D174500001305455C0983058BCF
:10E02400630307101841184331830D8B75EBAC4B18
:10E03400184E93F5050203471700CDCD79EF13076A
:10E044007006D8CF03470600136717001746000071
:10E05400230CE658114798C718415C57F19B93E786
:10E0640017005CD79C4298479316370163D6060283
:10E074009746000083C6466BC18A17470000130702
:10E084006763C5CE03474707136707029746000037
:10E09400238CE668056798C798479316270163D1D0
:10E0A40006021747000003476754620761876357F6
:10E0B4000700054797460000238AE652096798C778
:10E0C40098479316070163D606029746000083C655
:10E0D400B665858A174700001307C75DADCE0347B1
:10E0E40057071367270097460000A38FE66221674E
:10E0F40098C7828029D785456315B7001307B006F2
:10E1040089B789456315B7001307F0061DBF8D4510
:10E114006315B700130730072DB71307500715B75A
:10E124001307600739BF0347360013671700174604
:10E134000000A30CE64A094739BF8346470709464E
:10E14400BD8A6388C600034747078D463D8BE313AA
:10E15400D7F4114725BF83465707918AC9DA034785
:10E1640057071367870041B7397106DE16DC1ADAE0
:10E174001ED82AD62ED432D236D03ACE3ECC42CA7B
:10E1840046C872C676C47AC27EC0F533F250E252F3
:10E194005253C2533255A255125682567247E24721
:10E1A4005248C248324EA24E124F824F2161730030
:10E1B400203017470000130727458346B7019747C8
:10E1C400000083C737474C4BB697FD8B33D7F50018
:10E1D40097460000A38AF64297460000A38CF644B3
:10E1E400058B15EF1747000003471745B3F7E70200
:10E1F400814601471305000233D6E500058A1378EA
:10E20400F70F19CA6397D70097470000A38E073FFB
:10E214008280850693F6F60F0507E31FA7FC82802C
:10E22400974700009387C7249C43011122CC4EC614
:10E2340006CE26CA4AC852C456C2829797470000DF
:10E244009387873E804781496305A406BE84974728
:10E2540000009387A71D038767013E89635507065E
:10E26400018D135455009747000083C7873B93796A
:10E27400F501636DF402370AC0A8B70A4057153F89
:10E284009C449746000083C6C639139756003E97B0
:10E2940083076901158C63C50700636347015697BB
:10E2A4009747000023A6E738E37BD4FC1604B36940
:10E2B4003401F24062444E85D2444249B249224A72
:10E2C400924A05618280E37D85F8B707C0A833844C
:10E2D4008740229579B797470000938767199C4335
:10E2E400411122C406C626C282979747000093872D
:10E2F400A73380476309A406BE8497470000938729
:10E30400E7128387670163D80704018D135455000E
:10E314009747000083C7E7306367F404593D984486
:10E324009747000083C7E72F9396570036971D8CB5
:10E334009746000023AEE62EE372F4FE2244B24078
:10E344009244174500000345352C8145410117735C
:10E3540003E067002358E37A85FAB707C0A833843B
:10E364008740229565B7B24022449244410182809D
:10E37400974700009387C72D9843B75702009387A8
:10E38400079F8326070913965600635806008326C1
:10E3940007091396660063440600FD17FDF38280A7
:10E3A40071C5AA870145E9C58D07C207C183F19BE1
:10E3B400C207C18313074003636FF70217470000C6
:10E3C4001307072F0843174700001307E72D1443CB
:10E3D4006398A6021747000013074705185B014519
:10E3E40041CB4111C20706C60545DD8D0297B240F7
:10E3F400014541018280174700001307272BD9B735
:10E404000357650035E303574500636FF704B3060C
:10E41400F7402146637CD6020328050093868700D3
:10E424001D8FAA96611717460000035606FB239218
:10E43400E60023A006012393060014C12312F5006D
:10E44400130786FF974600002399E6F82313B500C7
:10E454009745000083D565F8B387F540174700005A
:10E46400231DF7F62105828008419DB7014582806E
:10E4740082800DC1974700009387872303A3070079
:10E48400974700009387472283A8070081469A870D
:10E4940063E31701828003A80700636DF50A636BC9
:10E4A400A80A13878700E367E5FE03D667002167A0
:10E4B40005076317E60003C781930507238CE192E0
:10E4C40097450000938505F103D6470003D76500FF
:10E4D4002393070032974207418317450000231E08
:10E4E400E5EE638A6702174500001305251C084101
:10E4F4006303F50203D5660019ED83D7460023A014
:10E50400060121073E9621062392C6009747000084
:10E514002395E7ECB6879843E30E17F79746000078
:10E524009386C6189442E307D7F683566700BDF274
:10E5340083D64700035647001843A106B296239298
:10E54400D70098C383D76500A10717470000231697
:10E55400F7E88280BE86C28725BF01119747000075
:10E564009387471522CC03A4C70B26CA4AC84EC6B4
:10E5740006CEAA8413092500854915C083C7140053
:10E5840003473400858B6304F700405CFDB71946EC
:10E59400930544004A85EFE0CFFEE31835FF22855A
:10E5A400F2406244D2444249B24905618280411139
:10E5B400974700009387071022C403A4C70B26C201
:10E5C4004AC006C693042500054901E82285B240E5
:10E5D40022449244024941018280A6851305A40283
:10E5E40097F003E0E7804068E30225FF405CF1BF59
:10E5F4004111974700009387E70B22C403A4C70B7C
:10E6040026C24AC006C693042500054901E82285AE
:10E61400B24022449244024941018280A6851305F6
:10E62400A40197F003E0E7802064E30225FF405C47
:04E63400F1BF000032
:10E638009751FF1F938101B117A1FF1F1301019C7F
:10E6480017E5FFFF1305C59B9725FF1F9385059BBE
:10E658001746FF1F1306C6FD63FAC500832205008F
:10E6680023A0550011059105E3EAC5FE170504002E
:10E67800130505C49745FF1F938585FB1386018500
:10E6880063FAC5008322050023A0550011059105F2
:10E69800E3EAC5FE138501859785FF1F938505135A
:10E6A8006377B500232005001105E36DB5FEFD4233
:10E6B800739002BC8D4273904280B722000093820F
:10E6C800828873A002309722FF1F9382229393E2DD
:10E6D80032007390523097F20000938222EE7390CA
:10E6E8001234730020303D432A876373C302937743
:10E6F800F700BDEFADE5937606FF3D8ABA960CC3E9
:10E708004CC30CC74CC74107E36BD7FE11E28280AC
:10E71800B306C3408A069702000096966780A60053
:10E728002307B700A306B7002306B700A305B70061
:10E738002305B700A304B7002304B700A303B70059
:10E748002303B700A302B7002302B700A301B70051
:10E758002301B700A300B7002300B700828093F518
:10E76800F50F93968500D58D93960501D58D61B7E4
:10E77800939627009702000096968682E78086FA8D
:10E788009680C1171D8F3E96E374C3F8A5B733670B
:10E79800B500FD530D8B79E7B7877F7F9387F7F730
:10E7A80010419441B372F6003363F600BE92B3E2AF
:10E7B80062006397720C6318D6065041D441B37255
:10E7C800F6003363F600BE92B3E262006398720A01
:10E7D800631BD60410459445B372F6003363F60004
:10E7E800BE92B3E262006391720A631ED60250457C
:10E7F800D445B372F6003363F600BE92B3E262000A
:10E80800639A72086311D60210499449B372F600EC
:10E818003363F600BE92B3E2620063937208510557
:10E82800D105E30FD6F61317060193970601631C6B
:10E83800F7001357060193D706013305F740937580
:10E84800F50F91E982804183C1833305F7409375C1
:10E85800F50F91E182801377F70F93F7F70F3305E0
:10E86800F74082800346050083C605000505850537
:10E878006313D60065FA3305D640828011059105E9
:10E88800E312D6FE014582802105A105E31CD6FCD2
:10E89800014582803105B105E316D6FC0145828029
:10E8A8004105C105E310D6FC0145828001471146A8
:10E8B8004148B386E5008147B308F50083C80800DE
:10E8C8008507C10623A816FFE398C7FE110711059F
:10E8D800E31107FF8280935785019CC19357054137
:10E8E80093F7F70FDCC19357854093F7F70F13752C
:10E8F800F50F9CC5C8C582801C414111130705014D
:10E908003EC05C413EC21C453EC45C453EC6939732
:10E9180025001408B69783A707FF85051105232E40
:10E92800F5FE8D89E315E5FE41018280397122DC0F
:10E9380041661384819B06DE26DA4AD84ED652D425
:10E9480056D25AD05ECE93050501A2863708FF003D
:10E958007D1683070500034735001105E207D98FA7
:10E968000307D5FF9106420733770701D98F0307BD
:10E97800E5FF2207718FD98F23AEF6FEE39BA5FC36
:10E9880081499144930A010117BB0300130BCB196A
:10E9980097BB0300938BCB16130AC00293F734007E
:10E9A800032904004844BDE78A85353785450A852B
:10E9B800A1370A871C43110793F6F70093F7070F4F
:10E9C800DA97B69783C70700232EF7FEE394EAFE8B
:10E9D800024592476205C2075D8DB2475D8DA24729
:10E9E800A2075D8D93972900DE979C4385093D8D8D
:10E9F8003345250108C885041104E39144FBF2500E
:10EA08006254D2544259B259225A925A025BF24B7A
:10EA1800216182803345A90008C8F1BF797122D4E9
:10EA280026D24AD04ECE52CC56CA06D62A8A9399B6
:10EA380045000144938A819B13090101C144B3072E
:10EA48003401D69788438A85793533078A008A87BF
:10EA58001443904391074107B18E2328D7FEE399C9
:10EA680027FF1104E31D94FCB2502254925402591A
:10EA7800F249624AD24A45618280397122DC130424
:10EA8800050106DE22878147C1460C433306F100A3
:10EA980011070CC24C4710083E960CC24C4F101080
:10EAA8003E960CC29107E392D7FE85450A85A935A3
:10EAB8008945080891358D4508103D3D81474147F6
:10EAC800B306F10094421104232ED4FE1408BE9616
:10EAD800944254C41410BE969442910754CCE391C6
:10EAE800E7FEF25062542161828006059377051093
:10EAF80089C71375F50F1345B5018280411106C604
:10EB0800ED37B2404101D5B781471148C148338636
:10EB1800F500B306F500014703AE06003303E6002F
:10EB280005072300C301C106E31807FF9107E39017
:10EB380017FF82809306050117B603001306C60E59
:10EB480013050505138706FF1C43110793F5F70006
:10EB580093F7070FB297AE9783C70700232EF7FEE8
:10EB6800E394E6FEC106E31FD5FC82801C414111F7
:10EB7800FD563EC05C413EC21C453EC45C453EC697
:10EB88008D47B385B7409307C50013972500100834
:10EB98003297032707FFFD1598C36393D5008D456A
:10EBA8001387C7FF6314F50041018280BA87F1BF5C
:10EBB800397122DC1304050106DE22878147C1462C
:10EBC8000C433306F10011070CC24C4710083E965F
:10EBD8000CC24C4F10103E960CC29107E392D7FE20
:10EBE80085450A8561378945080849378D450810E4
:10EBF800B53F81474147B306F10094421104232EE3
:10EC0800D4FE1408BE96944254C41410BE9694427E
:10EC1800910754CCE391E7FEF2506254216182805F
:10EC28009306050117B60300130606F0130505053C
:10EC3800138706FF1C43110793F5F70093F7070F97
:10EC4800B297AE9783C70700232EF7FEE394E6FE3C
:10EC5800C106E31FD5FC8280411122C406C626C224
:10EC680085472E846301F50289476318F50022441D
:10EC7800B24092442E8541018DBD8D47631BF5003E
:10EC88002E85A535298C2285B24022449244410123
:10EC98008280A5476315F5002E858D35DDB7AD4714
:10ECA800631AF5002E85993D8935AA842285353D5C
:10ECB800258DC9BFB5476316F5002E858135AA8411
:10ECC800FDB7B947E311F5FC2E850D3DAA84313D0A
:10ECD800A98C2285193D3344950075B7597186D69C
:10ECE800A2D4A6D2CAD0CECED2CCD6CADAC8DEC674
:10ECF800E2C4E6C2930605040A87AA879043C107BF
:10ED080041072328C7FE03A647FF232AC7FE03A6F9
:10ED180087FF232CC7FE03A6C7FF232EC7FEE39F4A
:10ED2800D7FC17B9030013092904130A050193092D
:10ED38000505832C0900032C4900832B8900032B2C
:10ED4800C900930A0AFF8A848C406685910A29378C
:10ED58008C482A84628509378C50298C5E85ED3D64
:10ED68008C58298C5A85CD3D218D23AEAAFE91045D
:10ED7800E31C5AFD410A4109E39D49FBB65026545C
:10ED880096540659F649664AD64A464BB64B264C1F
:10ED9800964C656182806382051493F7F500639E43
:10EDA80007121571D6C3AA8A3285A2CDA6CB86CF03
:10EDB800CAC9CEC7D2C5DAC15EDF62DD66DB6AD9F1
:10EDC8006ED73284AE84EF601337C147631EF500F7
:10EDD8002285A93E0149130A010697BB0300938BBC
:10EDE800ABF8294C63419902FE406E44DE444E491B
:10EDF800BE492E4A9E4A0E4BFA5B6A5CDA5C4A5D53
:10EE0800BA5D2D618280338B2A010C105A85793CBA
:10EE18008145081021318549081019350810B13984
:10EE28001C10D2863E8710434107C10623A8C6FEA0
:10EE3800032647FF23AAC6FE032687FF23ACC6FE88
:10EE48000326C7FF23AEC6FEE31FEAFC17B703007D
:10EE5800130787ED03280700832D4700032D87003C
:10EE6800832CC7005284138607010C4042853ECE8E
:10EE78003ACC32CA42C8CD330C482AC66E85E93B23
:10EE8800B2460C501104A98E6A8536C6F133B246D3
:10EE98004C54A98E668536C6C133B246F2475246EF
:10EEA800358D88C3910742486247E310F6FC410755
:10EEB800B287E391EBFACE85081085098536E39D84
:10EEC80089F50810B13B08104D3EA9450810B93620
:10EED800DA8508101539410931B78280638D05102C
:10EEE80093F7F500639907105171CECFAA8932853F
:10EEF800A2D5A6D386D7CAD1D2CDD6CBDAC9DEC79A
:10EF08003284AE84EF603323C1476319F50022854C
:10EF1800313C0149138B819B634D9900BE502E549F
:10EF28009E540E59FE496E4ADE4A4E4BBE4B6D61E9
:10EF38008280338A29018C0052858D3AA945880040
:10EF4800F13C138481A4C14A930B00048800DD3688
:10EF58008800B9398800593308408A85AD3A484055
:10EF68000C08953A08440C10BD3248440C18A532D8
:10EF780018018147B306F100944241072328D7FEC0
:10EF88001408BE969442232AD7FE1410BE969442C3
:10EF9800232CD7FE1418BE9694429107232ED7FE31
:10EFA800E39A57FD08011D3B01479C003385E700A4
:10EFB8001C01B305F70081473306F5003388F500D7
:10EFC8001442032808009107B3C6060114C2E3954A
:10EFD80057FF4107E31B77FD4114E31964F78800E5
:10EFE800913E8800F136814588000D3CD285880025
:10EFF800213E410915B782809307F00F6385F60A11
:10F008002D71232A911023282111B284232631112E
:10F01800130600102E89AA89930530020A85232E2B
:10F028001110232C81103684EFF0EFEBA285268592
:10F03800EFA0F06813178500935785003365F70034
:10F048002310A100A68522861305310093043400FD
:10F058002301810093F4F40FEF50B32393F6F400E7
:10F0680089C64D04158C9374F40F1C02A697A685C7
:10F078000A8517B603001306E6D4238007F0213B60
:10F0880026868A854E85EF50D32023009900832059
:10F09800C1110324811183244111032901118329FA
:10F0A800C110156182808280797122D432844AD05D
:10F0B8004ECE2A89AE892285B68517B60300130677
:10F0C80066D026D252CC06D636C6093DB246130AB9
:10F0D80034005285A29623800600834404008347A7
:10F0E800140083452400A204DD8CEFA0505D639AD0
:10F0F800A40203462400D2854A852380C900EF6014
:10F108007307254597B50300938505CAEFA0F05E00
:10F118000545B250225492540259F249624A456157
:10F1280082802380090025452300090097B5030044
:10F13800938545C8EFA0705C0145E1BF411106C643
:10F14800EF70E031B240AA8617B70300130707CE65
:10F158001756FF1F1306861697B50300938585CEAD
:10F16800114541016FA0B06F130101DB23248124F5
:10F17800232021252326112423229124232E3123E1
:10F18800232C4123232A51232328612303470500E5
:10F19800930710042A892E84631DF75A0347150024
:10F1A800930740056317F75A034725009307E005BF
:10F1B8006311F75A2E86AA852545EFA0305F1306FE
:10F1C800D003A2854A85EFA07076AA84635A050009
:10F1D8003546A2854A85EFA07075AA846344050860
:10F1E8009389D4FF9307100363CE37074E869305A0
:10F1F80039002808EF6003781C1CBE9917BA030071
:10F20800130A0AED238409DED28A8149554B8325E6
:10F218004A002808EFA0506B0DC18E09D69983D7F4
:10F2280009005147636FF70017B703001307C7BA00
:10F238008A07BA979C43BA9782878509210AE39877
:10F2480069FD97B503009385E5E7E5A09305F4FF0D
:10F25800858D13851400C20581460146C1814A95F2
:10F26800EF20B0288320C12403248124832441244F
:10F27800032901248329C123032A8123832A4123C3
:10F28800032B01231301012582801306F4FF058E49
:10F298009385140042064182CA95E800EFB06011D8
:10F2A8001305D104EF60236993150501C181130586
:10F2B800D104EFB0801C97B503009385E5B9130519
:10F2C800D104EFA0706019CD97B50300938545B9B7
:10F2D8000545EFA090421765FF1F03454588EF409D
:10F2E800306C49B797B503009385C5B81305D104A9
:10F2F800EFA0905D19CD97B50300938525B8054516
:10F30800EFA0B03F1765FF1F03456585EF40106C00
:10F3180091BF97B50300938565B71305D104EFA096
:10F32800B05A01CD0145EF60F06997B503009385A8
:10F3380065B62545EFA0703C35B797B503009385B2
:10F3480025B61305D104EFA0305809C90D45EF6063
:10F35800706797B50300938525B5E1BF97B503009E
:10F36800938505B51305D104EFA0105611CD3717B5
:10F3780000408327C70A896697B50300938505B4BB
:10F38800D58F2326F70A75B797B50300938505B47B
:10F398001305D104EFA0505311CD37170040832730
:10F3A800870A896697B50300938505B3D58F23240B
:10F3B800F70A41B797B50300938505B31305D10440
:10F3C800EFA0905097B503009385C5B23DF197B56E
:10F3D80003009385E5B21305D104EFA0F04E97B56D
:10F3E80003009385A5B231F597B503009385C5B29F
:10F3F8001305D104EFA0504D11C59757FF1F23AF38
:10F4080007768DB597B503009385C5B11305D1046B
:10F41800EFA0904B01C5EF50E01DA9B597B50300CB
:10F42800938505B11305D104EFA0104A01C5EF502B
:10F4380020210DBD97B50300938545B01305D10470
:10F44800EFA0904801C5EF40906E29BD97B5030025
:10F45800938585AF1305D104EFA0104701C5EF8050
:10F46800803209B597B50300938585AE1305D1049D
:10F47800EFA0904509C50545EF60D054E5B397B5B1
:10F488000300938565AD1305D104EFA0F04319C1BE
:10F498000145DDB70346D104A547130606FD1376DB
:10F4A800F60FE3E1C7DC9757FF1F2382C76C97B5B8
:10F4B80003009385E5AAEFA0903A6DB31306F4FF15
:10F4C800058E138514004206418297B50300938583
:10F4D800254B4A95EFA010539757FF1F938747670F
:10F4E80083D7070009CD93E717001757FF1F23118C
:10F4F800F76697B503009385E5A7114525BDF99BE8
:10F508001757FF1F2316F76497B50300938545A780
:10F51800EDB72D3181BB1306F4FF058E138514005A
:10F528004206418297B50300938585454A95EFA029
:10F53800704D1754FF1F1304A46121C997B5030028
:10F548009385C5A4E800EF60E33DE800EF60A33EC3
:10F55800131605014182EC001745FF1F130545608E
:10F56800EF70B01097B50300938505A51145EFA07E
:10F57800D01883570400414593E717001757FF1F1A
:10F588002318F75CEFB04027F1B997B503009385CE
:10F5980065A31145EFA0701641657D15EFB0E02514
:10F5A80083570400F99B1757FF1F2313F75A5DB9B8
:10F5B800EF6090699757FF1F93878759E843EF508B
:10F5C8006321AE862A8697B50300938565A0114509
:10F5D800EFA0F02841B9EF40504569B117B60300D4
:10F5E8001306863A97B503009385459F1145E1B503
:10F5F800EF60906B97B503009385059FE31F05EEB9
:10F6080097B503009385459FCDBD3545EF80C00C68
:10F61800AA84EF50231C2A86AE86254597B5030099
:10F628009385C59EEFA0B02397B703009387878281
:10F638008843A6851754FF1F130404DFEF40332FB8
:10F64800232EA420EF60D06C0325C421EF5083182B
:10F65800AE862A8697B503009385059C8DBF8145A4
:10F668000D45EF40D065EF60505E2A8697B50300E0
:10F678009385459DA5BF81453145EF40506481453F
:10F688003945EF40D06381453545EF405063EF6021
:10F69800705C2AC6EF60505DB2462A871756FF1F76
:10F6A8001306C6C197B503009385C59A1145EFA007
:10F6B800101B4DBE1757FF1F035767F89756FF1FBC
:10F6C800938696E01756FF1F130646BF97B50300AB
:10F6D8009385859AE1BF85471757FF1F230AF7F6D9
:10F6E800EF60106397B503009385459A39B51757AE
:10F6F800FF1F0347E7F5854797B50300938585996D
:10F70800E31DF7DEC5B785471757FF1FA30CF7F8AA
:10F71800EF60106097B5030093854598F9BB1757BC
:10F72800FF1F034737F8854797B5030093858597EB
:10F73800E315F7DCC5B79757FF1F93876741A843C1
:10F74800EF504309AE862A8697B503009385459600
:10F75800BDBD2286CA851745FF1F13052544EF70D6
:10F76800C07009B6411122C42164930504809946EA
:10F778000146254506C69710FF1FE780A020930580
:10F7880004802244B24099461386018529454101E7
:10F798001713FF1F6700031F99E10145828075DD7C
:10F7A800011152C403DA418526CA93548A0085049C
:10F7B800A204C204C18056C2B38A4441C20A22CC00
:10F7C8004AC82E862E842A8997B50300938585B664
:10F7D800254593DA0A014EC606CE93890185EFA026
:10F7E800100863ED8A0883D5418593F7F50FB1CFEB
:10F7F8008D6783D5418593870780A2864A86BE9503
:10F8080029459710FF1FE780E0171375F50F29EDBD
:10F8180083D749001566A297239AF18403D74185B7
:10F8280083D721856309F70063F3E700B297998FBF
:10F83800139607014182254597B50300938505B1C5
:10F84800EFA0F0011375F40F0DA08D679387078063
:10F85800930600100146BE9525459710FF1FE780C7
:10F8680060121375F50F49D50145F2406244D24440
:10F878004249B249224A924A05618280B3079440BC
:10F88800D297C207C183A18303C74900850793F7AD
:10F89800F70F9396870011EB9386170093740AF07D
:10F8A800A206C204C206C180C18283D7218563F63D
:10F8B800F40033879600E3C9E7FA0D6A130A0A8051
:10F8C8000146B385440125459710FF1FE780800B4B
:10F8D8001375F50F51F983D54185A2864A86D295CD
:10F8E80005B7411122C41384018522858145194633
:10F8F80006C69710FF1FE78000439307B0FA23005E
:10F90800F4008D352244B24097B503009385059BDA
:10F91800254541016FA0605EA16541119946138696
:10F928000185938505802D4506C69710FF1FE78042
:10F93800600503C701859307B00A6303F7005537CD
:10F94800B24083D6418503D6218597B503009385B8
:10F95800A597254541016FA0807083D781A60145F1
:10F96800638C071003D5A1A66366F50023A401A63E
:10F97800014582803385A740D1473355F502137579
:10F98800F50F01E5239401A68280130101BD23240C
:10F998008142232611422322914223202143232EF0
:10F9A8003141232C4141232A514195471374F50FC6
:10F9B80063F3A7001544228697B503009385C59A7B
:10F9C8002545EFA0C069014981449389C1A6514AE0
:10F9D800A14A9377F90F03D5A1A61757FF1F03472D
:10F9E80037BB63E98704D1473304F4022A9423958B
:10F9F80081A6A147631CF706A6850808EF30B02A40
:10FA080003D7A1A683D781A605456364F70023A47D
:10FA180001A68320C1420324814283244142032951
:10FA280001428329C141032A8141832A41411301AB
:10FA380001438280B30749031408AA97CE973385F8
:10FA48009600631E5701BE85EF3070452317A1004D
:10FA58008357E1000509BE94C204C1809DBFAA85F1
:10FA68001306E1003E85EF80D00EDDB726860C0830
:10FA78000145EF60C06E69B78280011106CE22CCC5
:10FA880026CA4AC84EC691E901442285F24062441A
:10FA9800D2444249B24905618280AA8975D583D783
:10FAA800418503D621852E849564638AC7006374D3
:10FAB800F60015673A961D8E93140601C1802686B6
:10FAC80097A503009385857C2545EFA0405993872A
:10FAD80014F06356F4009307F00F63EA970097A5B4
:10FAE80003009385257C2545EFA0605771BF83D41B
:10FAF800418533878400956763C7E700A2854E85F3
:10FB080061398D3159B7156933099940420913593B
:10FB18000901CA854E85493125D9ED75A695A29565
:10FB2800C205239A0184C18133852901D1BF83D6B7
:10FB380081A681EA97A503009385457D25456FA099
:10FB4800C03B03D6A1A64111918E97A503009385CA
:10FB5800E57C254506C6EFA08050138781A683550E
:10FB6800070083D7A1A61385C1A69D8DC2053E9522
:10FB7800C1812137B24023A401A6410182804111ED
:10FB880083D781A622C426C206C6AE971307803E35
:10FB9800AA842E84635AF700593F97A503009385DA
:10FBA800A5742545EFA0603583D781A61385C1A626
:10FBB8002286A6853E95EF40D36D03D681A6229670
:10FBC80042062244B240924441822394C1A697A59A
:10FBD80003009385E572254541016FA04048011156
:10FBE80026CA06CE22CC4AC84EC652C456C2814442
:10FBF80059C1D1C183D7218503D44185638D870637
:10FC080063F587081D8C42044180AE892A892286C3
:10FC180097A50300938505640145EFA04044A2849D
:10FC280063F38900CE84C2040D6A83D7218503D784
:10FC38004185C180938A0185130A0A8063FAE70423
:10FC4800A6864A86B38547012D459710FF1FE78092
:10FC580060D383D72A00A6972399F184EFF09FB049
:10FC680083D6418503D6218597A503009385C55F73
:10FC78002545EFA0C03EF240624426854249D24461
:10FC8800B249224A924A0561828015673A949DBF1B
:10FC980015671D8FB385470163D5E400A6864A869C
:10FCA80065B79569B389F9406D743E94C20993D9D3
:10FCB80009012694CE864A8642042D459710FF1FD7
:10FCC800E78040CC4180A28633063901D2852D4594
:10FCD800239901849710FF1FE780C0CA83D72A00A1
:10FCE8003E94239981849DBF1841938781291045AB
:10FCF80098C303574500544590C72392E7005855C9
:10FD08001049D4C7544998CF97A503009385456DEA
:10FD18000547254590CBD4CB238EE7006FA0E01D87
:10FD2800397126DA4AD84ED652D456D25AD006DE7F
:10FD380022DC62CE66CC2A89EF50F33F9374F50F2C
:10FD48008149254BE54A17AA0300130A2A6391EC57
:10FD5800F25062544E85D2544259B259225A925A9C
:10FD6800025B724CE24C21618280034709009307D1
:10FD780007FD93F7F70F637CFB009307F7F993F7F9
:10FD8800F70F63E2FA06930797FA93F7F70F1394BE
:10FD980087016184FD14230089002685EF40832BA9
:10FDA8002A86AE8603250A0083254A0093F4F40FB9
:10FDB8000509EFD0302A2AC422852EC6EF408329B0
:10FDC8002246B246EF30A3592A8C4E85AE8CEF40BE
:10FDD800832F2A86AE866285E685EF20236DEF4065
:10FDE800A321AA89ADB79306F7FB93F6F60F8147CF
:10FDF800E3EFDAF8930797FC49BF411122C406C61E
:10FE0800830795022A8499C713059502EF40B345E5
:10FE18002389A1248307D41291CB1305D412EF4070
:10FE28003344EF40F32593870122C8D3B2402244DC
:10FE380041018280011126CA9304150022CC97A59E
:10FE480003009385A55D2A84268506CE4AC84EC63A
:10FE5800EFA0802F631E051097A503009385455CCE
:10FE68002685EFA0602E6302050E85448307D40320
:10FE78006386070C13059402EF40F33E8549137916
:10FE8800F50F1305D4036387340F8947638CF4187F
:10FE9800EF40733DA38AA124631A3901794681454D
:10FEA80013857127238B0184EFE0FF838307D40830
:10FEB80085C31305D408EF40133B03C76185930737
:10FEC8001700238BF18493870122BA97A38BA70489
:10FED8008307D40D85C31305D40DEF40D33803C76A
:10FEE800618593071700238BF18493870122BA97C2
:10FEF800A38BA7048307D41285C31305D412EF403C
:10FF0800933603C7618593071700238BF184938782
:10FF18000122BA97A38BA7048307D41785C31305B7
:10FF2800D417EF40533403C7618593071700238B19
:10FF3800F18493870122BA97A38BA704F240624405
:10FF4800D2444249B2490561828097A5030093854E
:10FF5800654D2685EFA0401FE31905F0268597A576
:10FF680003009385654CEFA0201E8944E31005F03B
:10FF78008144EDBDEF40332F238BA124631A9900F0
:10FF88007946814513859125238B0184EFE0AFF5F0
:10FF98008307D40885C31305D408EF40D32C03C7BF
:10FFA800618593071700238BF18493870122BA9701
:10FFB800A38CA7028307D40D85C31305D40DEF4086
:10FFC800932A03C7618593071700238BF1849387CE
:10FFD8000122BA97A38CA7028307D41285C31305FD
:10FFE800D412EF40532803C7618593071700238B6A
:08FFF800F18493870122BA97FE
:020000021000EC
:10000000A38CA7028307D417E38E07F21305D41736
:10001000EF40F32503C7618593071700238BF18415
:1000200093870122BA97A38CA70229BFEF403324FC
:10003000A38BA12401BF411122C406C683079507E3
:100040002A8499C713059507EF407322A389A12439
:100050008307D40899C71305D408EF405321238A96
:10006000A1248307540B91CB1305540BEF40D31FEE
:10007000EF4093019387012288D7B2402244410187
:100080008280011126CA8146B284014652C456C2FA
:1000900006CE22CC4AC84EC62A8AAE8AEF30C30F9B
:1000A00041CD9307E0046386F40093073005639520
:1000B000F40897A903009389E93403A6090083A6ED
:1000C00049005285D685EF30032A37949800EF30E7
:1000D0003373130404682A8933758502EF30337F44
:1000E00003A6090083A64900EF20D32F97A703009A
:1000F0009387C7319043D443EF20D32E2A8A3355B8
:100100008902AE8AEF30B37C2A86AE865285D685C8
:10011000EF20433A13073005AE876395E400B70735
:100120000080AD8FF2406244D2444249B249224A33
:10013000924ABE850561828001458147E5B701117C
:1001400026CA8146B284014652C456C206CE22CC8B
:100150004AC84EC62A8AAE8AEF30030441CD9307BF
:1001600050046386F400930770056395F40897A91B
:1001700003009389292903A6090083A64900528513
:10018000D685EF30431E37949800EF307367130421
:1001900004682A8933758502EF30737303A609005A
:1001A00083A64900EF20132497A70300938707260F
:1001B0009043D443EF2013232A8A33558902AE8A11
:1001C000EF30F3702A86AE865285D685EF20832ED7
:1001D00013077005AE876395E400B7070080AD8F05
:1001E000F2406244D2444249B249224A924ABE8510
:1001F0000561828001458147E5B713578500935714
:10020000050113D885009376F50F01111377F70FC9
:1002100093F7F70F618593F5F50F1378F80F99C2EF
:1002200011C3B9E3230CD100A30CE100230DF100AD
:10023000A30DA10003459101834781010347A1015B
:100240002205A30E01014207C98F230EB100034509
:10025000B101D98F0347D1018345C101620522074E
:100260005D8DD98D0561828032951375F50F13135D
:100270008501135383415D466357660861463363C6
:10028000C30285071376D70F114593F7F70F630560
:10029000A6002545631AA6007946637FF602050786
:1002A0001377F70F85470DA809466312C704138615
:1002B000067D93084006B36816036385080013F5AE
:1002C000360011C5130500193366A60219EE7546EE
:1002D0006374F60085470D47230CD100A30CE100A1
:1002E000230DF100A30D6100B1B77146D5B77D466E
:1002F000E374F6FEB147E314F7FA850693F6F60FBA
:1003000085470547D1BFE35903FC6105FD1713136A
:10031000850193F7F70F13538341DDFF7D171377A3
:10032000F70F1146F947E309C7FA1946E306C7FA7A
:100330002546E303C7FA2D46E300C7FA894763164B
:10034000F7021386067D93074006B367F60291C74E
:1003500093F83600F547E38108F893070019B3676F
:10036000F60293B71700F10785BFFD4735F7FD1675
:1003700093F6F60F31478DB7834715000347050005
:100380000111A2075D8F834725008346350006CE05
:10039000C207D98F03475500834545001746FF1F05
:1003A0001306060903061620E206220733E5F600C7
:1003B000D98DA135135885001356050193D78500B3
:1003C00013F7F50F93F7F70F935685011376F60F92
:1003D0009375F80F1375F50FEF70800F9747FF1F98
:1003E00083C7170505476385E70011476396E70054
:1003F000F24005616F70401DF240056182804971D5
:1004000023248116138401228307340083C85122D8
:1004100003C8412203C7212283C6112203C6012239
:1004200097A50300938585024810232611162322E1
:10043000911623202117232E3115EF50C34A48105F
:10044000EF50E34F18485C48030604033AC03EC22D
:10045000030814035C441844541097A503009385C3
:10046000E5003695EF5023484810EF50434D5C109F
:100470003E958307640017A603001306A6FC89C7F0
:1004800017A60300130686FB97B50300938585B175
:10049000EF5063454810EF50834A544C104C5C10A9
:1004A00097A50300938585FD3E95EF50C343481003
:1004B000EF50E348030634035C103E9597A5030014
:1004C000938585FCEF5023424810EF5043470307C4
:1004D0002403AA8448503ACE13840122EF4003300B
:1004E00072475C10AE862A8697A503009385C5FAED
:1004F00033859700EF50233F4810EF5043445C1082
:1005000003C6412597A50300938585FA3E95EF50D4
:10051000833D4810EF50A3425C1097A503009385DC
:1005200025FA3E95EF5083401389E123A28497B9C1
:1005300003009389A9A603C6740519CA481032CED0
:10054000EF50E33F72465C10CE853E95EF50A339E5
:100550008504E39224FF4810EF50633E5C1097A59A
:100560000300938565F63E95EF50433C97B4030036
:100570009384C4A20346940319CA481032CEEF50A4
:10058000033C72465C10A6853E95EF50C3350504CA
:10059000E31224FF4C102545EF90B0168320C116BE
:1005A0000324811683244116032901168329C115CA
:1005B00075618280411122C406C626C28307550197
:1005C0002A84B9C7A946938707FDB387D702034793
:1005D0006501130707FDBA97A381F122030775018F
:1005E00083478501130707FD3307D702938707FD6C
:1005F0003E972382E122830795010347A501938754
:1006000007FDB387D702130707FDBA97A382F1222C
:100610008307940281CB130710046391E714854785
:100620002383F1228307D4039384012299C71305FE
:10063000D403EF40634388C4CCC40306140509CA3D
:100640008844CC442388C124EFF0BFA388C4CCC421
:100650008307540699C713055406EF40E34088C842
:10066000CCC80306940709CA8848CC48A388C1248B
:10067000EFF0FFAC88C8CCC88307D40899CF130526
:10068000D408EF40633E97A703009387A7DA90430F
:10069000D443EF20534D88CCCCCC8307140A99C7A0
:1006A0001305140AEF40A33C2390A1248307540BA5
:1006B000B9C7A946938707FDB387D7020347640BE1
:1006C000130707FDBA972381F1220307740B8347B1
:1006D000840B130707FD3307D702938707FD3E9767
:1006E000A380E1228307940B0347A40B938707FDA4
:1006F000B387D702130707FDBA972380F1228385BA
:100700003400856703C64122938707E11307C003BE
:100710003307E60283C65122B387F502BA97B6972C
:1007200023A6F1241747FF1F13070743835707002A
:100730003A8413F5870039E1038564000547631F98
:10074000E50203C7212211EF8844CC4401468146CB
:10075000EF20932405E923830122B9A023830122FA
:10076000D1B5FDD175D2EDD293E787001385012273
:100770001747FF1F2312F73EEFF01FC08387640067
:10078000E1F7D1BF8848CC4801468146EF20D3200D
:1007900079D183C72122E1D31306800793850122F3
:1007A0001385811AEF40632F03C581E59D47050539
:1007B0003365F5021306800793850122238CA1E49B
:1007C000930780073305F502938701E63E95EF40D6
:1007D000C32CEFF0DFC21C582244B24092441747AA
:1007E000FF1F2327F73A130680078145138501224F
:1007F00041016FD0DFEF0171232C811E232A911E4E
:100800001306101E2A84AE8468008145232E111E13
:100810002328211FEFD0BFED8145814701470146C5
:100820005148CD485D436340960899C12306F100C5
:100830001306A002A6852285EF90D00F8347C10042
:1008400051473386A440B387E7029305150078002B
:100850007D16A29585073305F700EF4003241306A4
:10086000A002A685228503491400EF90B00C8947A9
:1008700063C3A7080345C100D1473305F5027C00D7
:1008800005053E95EFF04FCA631CA904194697A5CC
:100890000300938525B81305D100EF90301725C5C7
:1008A0006800093B35A8B306C40003C506009306DB
:1008B00065FD93F6D60F91EA850793F7F70F63610D
:1008C000F302854501470506B9BFB3860703130E3A
:1008D000011FF296BA96A38EA6E00507E3D5E8FEBF
:1008E0008320C11F0324811F8324411F0329011F6B
:1008F0001301012082803307F400034707008507B6
:100900003349E900B5B7194697A503009385C5B0EB
:100910001305D100EF90900F0DED194697A5030038
:100920009385C5AF1305D100EF90500E19ED194610
:1009300097A503009385C5AE1305D100EF90100D68
:1009400045D16800EFF08FCF61BF6800EFF0AFEEE8
:1009500041BF6800EFF0EFCA61B7757122C526C3C9
:100960004AC1CEDED2DCD6DADAD806C7AA892E8909
:10097000814401448147130A4002854A354B13974D
:1009800004014183636C2701BA402A449A440A490E
:10099000F659665AD65A465B496182803387990078
:1009A0000347070063004703639C5701631D67010A
:1009B0009C18A297A2856800238E07F82D3D8147D9
:1009C000850475BF01449C18A29705041374F40FA5
:1009D000238EE7F893373406E5B7138581E583471F
:1009E000050013078007B387E702A1073E958280C1
:1009F0001385811A82809747FF1F83C7871681CF8F
:100A00009747FF1F83D7E7C2FD17C207C1831307AC
:100A1000A0036375F70023AC0184828031714ED747
:100A20009389818583A7090056D3938A81E5850739
:100A300022DD26DB52D55AD15ECF62CD66CB6AC9A4
:100A400006DF4AD96EC723ACF18483C481E5014A2D
:100A5000130C8007568497AC0300938C2C93054DA0
:100A60009D4B154B3389840356998307E900E1CFE9
:100A700003A60C0083A64C00032509028325490226
:100A8000EF2013036341050C83470904638DA70B13
:100A900093171A001808BA97035789022390E700A2
:100AA0003C00D29723809700050A9904B3E47403AD
:100AB000E31A6AFB0357810183570101998F13D70A
:100AC000F741B98F998F939407011307400BC180A9
:100AD0006358F70093078016B3849740C204C1801F
:100AE000268697A503009385658D6808EF40B35F60
:100AF0006C082545EF90E040938714FFC207C1833F
:100B00007947636EF70803499100130A800785450A
:100B1000014533094903210922994A86EF70D052D1
:100B20008344B10085450145B3844403A104A294E4
:100B30002686EF707051CA850D45EF201039A685C5
:100B40000D45EF20903883A709001747FF1F035773
:100B500047AE63E7E70203C581E5930480073305E9
:100B60009502B30DA4008387ED0099CB83C7412B79
:100B7000138981296397070E21052295EFF04F977E
:100B8000FA506A54DA544A59BA592A5A9A5A0A5B9C
:100B9000FA4B6A4CDA4C4A4DBA4D29618280930770
:100BA000D002E3F297FA834B8100930A80078545D0
:100BB000B38B5B030145138C8B00229C6286EF7024
:100BC000B048034B910085450145330B5B03A29B65
:100BD000210B229B5A86EF703047034AA1008545BE
:100BE0000145330A5A03210A229A5286EF70D045F2
:100BF0000349B1008545014533095903210922996B
:100C00004A86EF7070448344C10085450145B38432
:100C10005403A104A2942686EF701043E2850D458B
:100C2000EF20B02ADA850D45EF20302AD2850D4518
:100C3000EF20B029CA850D45EF203029A6850D4546
:100C4000EF20B02883C781E5B38A570303A74B037E
:100C5000A29A83A74A03E318F7EE85472380FA0494
:100C6000DDB5179D0300130DED7203260D008326DD
:100C70004D0003A58D0183A5CD01979903009389AC
:100C8000E971EF20436E03A6090083A64900EF1027
:100C900073752A8BAE8B03260D0083264D0003252A
:100CA000090183254901EF20036C03A6090083A6EF
:100CB0004900EF1033732A8AAE8A2A86AE865A8597
:100CC000DE85EF20D335979703009387A76D904378
:100CD000D443EF204369EFC050232A8CAE8C5A8551
:100CE000DE85EFC070192A8BAE8B5285D685EFC09A
:100CF000B018032689008326C9002A8AAE8A03A574
:100D00000D0183A54D01EF20933103260D008326AD
:100D10004D00EF20436503A6090083A64900EF10AC
:100D2000736C979703009387E7679043D443EF2052
:100D30008363EFC0901D2A89AE895286D6865A8574
:100D4000DE85EF2043624A86CE86EF20C3614A8665
:100D5000CE86EF2043612A89AE896286E686628567
:100D6000E685EF2043602A86AE864A85CE85EF1061
:100D70006374EFC01061EFC090222A86AE86EF1038
:100D8000637397970300938767629043D443EF2080
:100D9000835D979703009387E7619043D443EF20E7
:100DA000835C2A86AE862A89AE89680897950300F7
:100DB0009385C561EF4033336C082545EF9060148F
:100DC0001735FF1F0345C570EF3043292A86AE86CD
:100DD0004A85CE85EF20E342E354A0DA03C681E5DD
:100DE000330696028545014521062296EF70D025EF
:100DF00083C581E5B38595020D45A105A295EF2038
:100E0000D00C03C581E53305950221052295EFE05D
:100E10003FEE23AC0184ADB3411106C6EF80C0356F
:100E2000B24041016F70F07C914763E6C7061797A7
:100E300003001307276A0A063A961C42BA9782876C
:100E4000411122C497A50300938585702A8411451A
:100E500006C6EF90000BA2851145EF90800A224450
:100E6000B24097A5030093856570114541016F90CD
:100E7000400995C290426F50405591CEC8C203C5FB
:100E8000A6002394B600368695456F70F01B6FC0A0
:100E900020756F20704E8280411106C623AEB1844A
:100EA00001C61C4223ACF12A9737FF1F83C7B758EE
:100EB0008DEB0545EF905068979503009385C56BC2
:100EC0002545EF9000049747FF1F83D7E7C8B2403E
:100ED00093E707011747FF1F2310F7C841016F7001
:100EE000D03705470545639CE700EF90F064054562
:100EF000EF9010119795030093854569D1B7EF9056
:100F0000B0630545EF9050650545EF90700F9795DC
:100F10000300938525696DB7411122C42A84830794
:100F2000D40306C626C22E8589C71307F00363982B
:100F3000E7021737FF1F130777569736FF1F938671
:100F4000D6521736FF1F1306364F97950300938529
:100F5000A5702244B240924441016F40D3189737A4
:100F6000FF1FA38B074C9737FF1FA38007509737AE
:100F7000FF1FA3850752034704008547AE8463FA29
:100F8000E7009305D4031735FF1F1305F54AEF401B
:100F9000F3198307940791CF03470400894763FA45
:100FA000E700930594071735FF1F1305154CEF4015
:100FB000F3178307540B91CF034704008D4763FA5F
:100FC000E7009305540B1735FF1F1305354DEF4010
:100FD000F315014697350000938545671305C01248
:100FE000EF20F078EF5040531737FF1F1307174BD0
:100FF0009736FF1F938676471736FF1F1306D64393
:1010000097950300938585672685A1B7411126C270
:1010100006C622C4034705008947AE8463F5E7028C
:101020009305D5032A841735FF1F1305E539EF40D3
:10103000F30F13059407EF3093239737FF1F239780
:10104000A73EEF50E047EF50A04B9736FF1F83D6E7
:10105000E63D1736FF1F1306263797A50300938535
:10106000A5D02685EF40330885479735FF1F938528
:1010700065251735FF1F1305E5331737FF1FA30F2E
:10108000F728EF40B30A9735FF1F9385F53A1735D8
:10109000FF1F1305C528EF4073099735FF1F938580
:1010A000D53C1735FF1F1305A52AEF4033089735A8
:1010B000FF1F9385B53E1735FF1F1305852CEF40A5
:1010C000F306979503009385E5D61735FF1F1305A3
:1010D000C532EF40B305EF50A03E01469735000002
:1010E000938505527945EF2090682244B24092449E
:1010F000014697650000938545E21305C003410151
:101100006F20F066411122C426C24AC006C683077A
:10111000D503AE8417A903001309C9881744FF1F1C
:10112000130484A389C71307F0036391E7041735F9
:10113000FF1F0345D539EF2073720326090083266C
:101140004900EF10332AEF30237428C4EF300369CD
:10115000AE862A8697A50300938545852244B24032
:1011600002492685924441016F40E3771305D50378
:10117000EF30F30F9737FF1FA38BA7341375F50FCD
:10118000EF20D36D0326090083264900EF10932535
:10119000EF30836F28C4EF5020382844EF300364C9
:1011A000AE862A8697A503009385458245BFAA8708
:1011B0000387D7032E8509C79306F0036315D7026B
:1011C0009737FF1F83C71727179603001306867AE2
:1011D00089E7179603001306667A979503009385AF
:1011E000657B6F40437041111385D70306C622C447
:1011F0002E84EF30D3079737FF1FA38DA722EF5020
:10120000A0319737FF1F83C7F72297950300938577
:10121000657789E797950300938545772285224472
:10122000B24041016F408370411126C206C6AA84B4
:1012300022C48387D4032E8589C71307F0036396DE
:10124000E7049737FF1F83C7171F05476385E7022A
:1012500089CB09476386E702B240224492444101A8
:101260008280979503009385A57A2244B2409244E8
:1012700041016F40A36B979503009385E57BF5B71C
:10128000979503009385057ECDB79384D4032E8470
:101290002685979503009385E57FEF4063701DC118
:1012A00089471737FF1FA308F71897A503009385F1
:1012B000A5822285EF4083672244B24092444101D7
:1012C0006F5080252685EF30837A1375F50F973799
:1012D000FF1FA382A7168547979503009385C57DB9
:1012E000E309F5FC979503009385457B79D1894700
:1012F000E30DF5FA1737FF1FA30FF71297950300B9
:101300009385C57F7DB741112E8597A503009385F1
:10131000658206C6EF4083610146973500009385DC
:10132000252E7945EF20B044B24001469765000074
:101330009385A5BE1305C00341016F2050434111A1
:1013400022C426C206C68307D503AE841734FF1F06
:101350001304040E89C71307F003639BE702830697
:10136000142017A60300130626A463D606001796BA
:1013700003001306A6C4268597A50300938505A33D
:10138000EF4063562244B240924441016F902012D4
:101390001305D503EF30A36D9737FF1FA38AA72846
:1013A000EF90E0100306142097A503009385C5A1D4
:1013B0002545EF80504B834714206147B10793F7D1
:1013C000F70F6377F700A1471737FF1FA302F72630
:1013D000EF5080148306142017A603001306C69C42
:1013E00063D6060017960300130646BD2244B2409A
:1013F0002685924497A503009385859D41016F4002
:10140000834E797122D49307D1012E8478089306F4
:10141000B1011306A101930591011305E10106D65F
:10142000EF60E0048348D1010348C1018347B10163
:101430000347A101834691010356E10197950300FB
:10144000938585412285EF40034A2285EF40234F53
:101450009737FF1F938747708C5B03A88703056648
:10146000130606E19306C00333F3C50222953377D2
:10147000D802B378C8023AC0DC5733F7D502B3D8E4
:10148000D8023358C802B356D30233D6C502979553
:1014900003009385A53EEF4003452285EF40234A94
:1014A0002A94EF80C05F179603001306A63A09C579
:1014B000179603001306C639228597950300938576
:1014C000E53FEF404342B250225445618280AA87F3
:1014D0000387D7032E8509C79306F0036311D7024C
:1014E0009737FF1F83C747F5979503009385450DF1
:1014F00089E7979503009385A50F6F40234341111A
:101500001385D70322C406C62E84EF3043561375C5
:10151000F50F9737FF1F2381A7F21737FF1F0347E8
:1015200037F189476316F7000DE91145EF90402D1B
:101530009737FF1F83C747F0979503009385C50C26
:1015400089E7979503009385650F2285EF40033E59
:101550002244B24041016F40307C1145EF90602A37
:10156000C1BFAA870387D7032E8509C79306F00357
:10157000631ED7029737FF1F83C7E7EB0547638DCD
:10158000E70089C70947638EE700828097950300CB
:10159000938585116F4083399795030093850515D1
:1015A000D5BF979503009385251AEDB74111138593
:1015B000D70322C406C62E84EF30634B1375F50F94
:1015C0009737FF1F2389A7E68547979503009385E3
:1015D000E5116306F502979503009385E50C05C1B7
:1015E00089479795030093852516630AF5001737F9
:1015F000FF1F2302F7E4979503009385A51A228520
:10160000EF40C3322244B24041016F40F070AA87DC
:101610000387D7032E8509C79306F003631CD70001
:101620001736FF1F0346C6EA979503009385052FDB
:101630006F40632B41111385D70306C622C42E8445
:10164000EF3063439737FF1F2384A7E8EF40D06C48
:1016500022852244B2401736FF1F034666E797955E
:1016600003009385E52D4101E1B7411122C43945BD
:101670002E84814506C6EF201065EF40705F2A86F4
:1016800022852244B240979503009385E52D4101C0
:101690006F406325411122C41305D5032E8497950D
:1016A00003009385A52206C6EF80902A11CD01453F
:1016B000EF401071979503009385052222852244FF
:1016C000B24041016F4083260545EF40706F97950A
:1016D000030093852522DDB7411122C42A848307A4
:1016E000D40306C626C22E8589C71307F003639C60
:1016F000E7029737FF1F938717E71737FF1F130777
:1017000077E39736FF1F83D6A6F31736FF1F13061E
:1017100056DF979503009385254F2244B2409244AB
:1017200041016F40431CAE841735FF1F130575DD63
:101730009305D403EF40831F8307940789CB1305D8
:101740009407EF30C3329737FF1F239BA7EE830721
:10175000540B89CB9305540B1735FF1F130595DDEB
:10176000EF40C31C8307140F89CB9305140F173563
:10177000FF1F130555DFEF40631BEF40F05997370C
:10178000FF1F938757DE1737FF1F1307B7DA973608
:10179000FF1F83D6E6EA1736FF1F130696D69795E6
:1017A00003009385A54726858DBFAA870387D703A6
:1017B0002E8509C79306F003631CD7001736FF1F59
:1017C000035626E797950300938585576F40A3112D
:1017D00041111385D70306C622C42E84EF30232976
:1017E000131605019737FF1F2395A7E441829795AC
:1017F0000300938525562285EF40E30E9737FF1FA0
:1018000083C717C309476388E700F11793F7F70FFA
:101810000547636AF7009737FF1F83D787E189EB96
:101820000945EF80107E2244B24041016F40D04E06
:10183000EF80507175D51737FF1F035787DF930768
:10184000B003E3EFE7FC0945EF80907BE9BF7971D6
:1018500026D206D622D44AD04ECE52CC56CA5AC828
:101860005EC68307D503AE8489C71307F00363946C
:10187000E706979503009385A52E2685EF40030B79
:101880001734FF1F1304C4BA1739FF1F130909BE09
:10189000179A0300130A4A2C979903009389892DFC
:1018A0002685EF40C309834794222695528699C323
:1018B00013069422CE855104EF40E302E31224FF85
:1018C000B250225492540259F249624AD24A424BCF
:1018D000B24B4561828085472A846312F604A1C217
:1018E00003A906004A85EF4083052A869735FF1F26
:1018F000938555DA4A85EF80701115E12254B25074
:101900000259F249624AD24A424BB24B268592545E
:10191000979503009385452645616F402301830712
:10192000D4031307100493F7F7FD639DE7081739F5
:10193000FF1F1309E9AF22859305440B4A873A86B6
:10194000AA86CD4703C89607FD1793F7F70FA304A0
:10195000062385060506FDF7230E07221305C5039A
:101960005107E31EB5FC979503009385A5232685B3
:10197000EF30D37B1734FF1F130444AF179A0300D3
:10198000130A8A1D979903009389C91E2685EF3093
:10199000137B834799222695528699C31306992271
:1019A000CE855109EF303374E31224FF2254B25034
:1019B00092540259F249624AD24A424BB24B4561B3
:1019C0006F40903513074004979503009385C52217
:1019D000639EE706130494072285EF3053767D1546
:1019E0001375F50FC94763EFA70413099022014A45
:1019F000173BFF1F130BCBA3979B0300938B8B1BF2
:101A0000930A5026B3096901A2854E85EF80407480
:101A100001CD2685EF30B3724E86DE852695EF30F8
:101A2000936C054A238009005109E31D59FDE31F0A
:101A30000AF62286979503009385C5182685EF3010
:101A4000936AADB7979503009385C5192685EF3046
:101A5000F36DA9BF411122C406C626C24AC083073E
:101A6000D5032E8489C71307F0036395E704979580
:101A700003009385A5D92285EF30536B2285EF3083
:101A8000136C9737FF1F83C7F7C022951796030083
:101A90001306860C89C71736FF1F1306B6BF2244EC
:101AA000B24092440249979503009385A50C4101E9
:101AB0006F3073638547AA84631DF6029DCA03A92C
:101AC00006004A85EF30B3672A869735FF1F938556
