:04C000006F208063CA
:10C004000000000000000000900000202E08002026
:10C01400A9BDF9F594000020000000000000000014
:10C02400960000209800002000000000000000009E
:10C034009A000020000000009C0000200000000086
:10C044009E000020260300202A030020A4000020D4
:10C05400A6000020A8000020AA000020AC000020B8
:10C06400AE000020B0000020C60000205E010020C9
:10C07400AA080020B8000020BA000020BC0000205C
:10C08400BE000020F60100208E020020C400002023
:10C0940001A001A001A001A001A001A001A001A094
:10C0A40001A001A001A001A001A001A001A001A084
:10C0B40001A001A001A001A001A001A001A001A074
:10C0C40001A001A001A037370040834747009946EB
:10C0D4004111BD8B638ED70231476386E706114752
:10C0E4006390E704A3030100175600000346468F3C
:10C0F40037370040834771006317F6022C00174559
:10C104000000130565A1976001E0E78080F309A8AA
:10C114008347570093F7F70F2304F1008347810007
:10C1240041017300203083477100834687000C0867
:10C13400AE97238CD7FE83477100850793F7F70FDB
:10C14400A303F10045BF280097B001E0E780A06990
:10C154001375F50FA303A1000346710045B73737E4
:10C1640000408347474099464111BD8B638ED702F7
:10C1740031476386E70611476390E704A303010090
:10C18400175600000346E6853737004083477100A1
:10C194006317F6022C0017450000130525999760D4
:10C1A40001E0E78000EA09A88347574093F7F70FB7
:10C1B4002304F10083478100410173002030834749
:10C1C4007100834687400C08AE97238CD7FE8347C3
:10C1D4007100850793F7F70FA303F10045BF28000B
:10C1E40097B001E0E780E0711375F50FA303A10098
:10C1F4000346710045B73747004083474780994657
:10C204004111BD8B638ED70231476386E706114720
:10C214006390E704A3030100174600000346567C1D
:10C2240037470040834771006317F6022C00174517
:10C2340000001305E590976001E0E78080E009A81D
:10C244008347578093F7F70F2304F1008347810056
:10C2540041017300203083477100834687800C08B6
:10C26400AE97238CD7FE83477100850793F7F70FAA
:10C27400A303F10045BF280097B001E0E780207ACE
:10C284001375F50FA303A1000346710045B73747A3
:10C294000040834747C099464111BD8B638ED70246
:10C2A40031476386E70611476390E704A30301005F
:10C2B4001746000003466674374700408347710001
:10C2C4006317F6022C00174500001305A588976034
:10C2D40001E0E78000D709A8834757C093F7F70F19
:10C2E4002304F10083478100410173002030834718
:10C2F4007100834687C00C08AE97238CD7FE834712
:10C304007100850793F7F70FA303F10045BF2800D9
:10C3140097C001E0E78060821375F50FA303A100C5
:10C324000346710045B77300203037170040835728
:10C33400E7098357E709C207C18393F7F7CFC20719
:10C34400C183231FF7087300203041118146014641
:10C354008145114506C60D2DB7270040114723839B
:10C36400E780B7F700E003A707D16D9B23A8E7D0C8
:10C3740003A707D15D9B23A8E7D0730050100100E9
:10C384000100B2404101828041118146814501464C
:10C39400114506C6D52BB727004011472383E780F4
:10C3A400B717004003C7E70283C5E70483D78703B1
:10C3B40091661377F70F93E5350063E5D700719B1A
:10C3C40013671700B7170040130670052380C704CE
:10C3D400930680FA2380D704010001002382070218
:10C3E4002380C7042380D704010001002387E702C8
:10C3F4002387B7042380C7042380D70401000100E6
:10C4040003C7B70413670702A385E704238007045F
:10C4140037F700E0832507D193E545002328B7D0FB
:10C42400832507D1DD992328B7D07300501001006C
:10C4340001002380C7042380D7040100010003C73F
:10C44400B7041377F70DA385E70423800704B240EC
:10C45400410182800111B7F5070022CC8146E10534
:10C464002A840A86194506CE26CA02C02312010070
:10C47400212BB717004003C7E70283C5E70483D71E
:10C48400870391661377F70F93E5350063E5D700CB
:10C49400719B13671700B7170040130670052380BC
:10C4A400C704930680FA2380D70401000100238285
:10C4B40007022380C7042380D704010001002387D7
:10C4C400E7022387B70423800704B7F500E003A736
:10C4D40005D11367470023A8E5D003D50702657784
:10C4E400110713750560418D598D42054181010085
:10C4F4002380C7042380D7040100010003C7F70089
:10C5040037F40700B7F400E013670704A387E700D4
:10C5140003C7B704610413670702A385E7042390E4
:10C52400A70283A704D1DD9B23A8F4D07300501085
:10C534000100010013056004352E81463000A285F8
:10C54400194502C423160100812122478247E31AB8
:10C55400F7FCB7170040130770052380E70413079F
:10C5640080FA2380E7040100010003C7B7041377AE
:10C57400F70DA385E70423800704F2406244D24404
:10C584000561828001114EC681460146AA89814512
:10C59400114506CE22CC26CA4AC8FD26B71600404D
:10C5A40083C7E60203C7E60483D68603116693F7BE
:10C5B400F70F1367370063E5C600F19B93E7170095
:10C5C400371400401309700523002405930480FAEE
:10C5D4002300940401000100230204022300240523
:10C5E40023009404010001002307F4022307E40458
:10C5F40023000404130550025920B7F700E003A7F1
:10C6040007D11367470023A8E7D02300240523009C
:10C614009404010001000347F40013670704A3070F
:10C62400E40023002405230094040100010025678D
:10C63400B3E9E9002310340303A707D15D9B23A8C2
:10C64400E7D0730050100100010081460146814586
:10C6540011451D2E2300240523009404010001002C
:10C664008347640493E717002303F40423000404BA
:10C67400F2406244D2444249B24905618280B7170C
:10C684000040930670052380D704130780FA2380A3
:10C69400E7040100010003C6B7041376F60DA38571
:10C6A400C70423800704137605024DC203C6A700FE
:10C6B400118A1DE22380D7042380E70401000100CE
:10C6C40003C7A700136747002385E7009307004BC0
:10C6D40001000100FD17EDFFB71700409306700538
:10C6E4002380D704130780FA2380E70401000100A4
:10C6F4007D892394A700010001000100010023802B
:10C7040007042380D7042380E7040100010001000B
:10C7140001003727004093061005A303D780238028
:10C724000704B7170040130770052380E7041307B5
:10C7340080FA2380E7040100010003C7B7041367EC
:10C744000708A385E7042380070482801376050481
:10C7540041C603C6A700418A1DE22380D704238073
:10C76400E7040100010003C7A7001367070123853D
:10C77400E7009307007D01000100FD17EDFFB717E7
:10C784000040930670052380D704130780FA2380A2
:10C79400E704010001001376F501136606042394EF
:10C7A400C700010001000100010023800704238069
:10C7B400D704130660042380E7046318C50001004E
:10C7C400010037270040894689BF0100010037274F
:10C7D40000409306200591B72380D7042380E70403
:10C7E4000100010003D787001367070C2394E700B7
:10C7F4000DBF4111814601468145114506C6692296
:10C80400B7170040130770052380E704130780FA65
:10C814002380E7040100010003C7670413671700BE
:10C824002383E70423800704B240410182808146C8
:10C83400014681451145892AB717004093067005C2
:10C844002380D704130780FA2380E7040100010042
:10C854007D562396C7022380D7042380E704010072
:10C86400010003C76704136717002383E7042380C9
:10C87400070401A0BD473305F50201007D1575FDD0
:10C884008280411122C426C206C6AA8401446317C9
:10C894009400B2402244924441018280050413056D
:10C8A400803E4204C13F4180DDB7B7170040130703
:10C8B40000032388E702854717470000232CF72845
:10C8C40073002030411106C6852DFDBF230304806B
:10C8D40015472303E48001002302A4808280830798
:10C8E4006480E3CE07FE2303048082808307648090
:10C8F400E3CE07FE03454480828083076480E3CE51
:10C9040007FE2302A4808280411126C44AC24EC07D
:10C9140006C61377F50BAD47AA892E89954463069D
:10C92400F70019456537653F8D444E854537FD59F8
:10C93400FD1463983401B240A24412498249410172
:10C944008280135509011375F50F453F2209CDB7B0
:10C95400011126CC06CEB704080051371545BD3762
:10C96400713769372AC6A53F32459377150089EB9D
:10C97400136515001375F50FF240E24405618280DA
:10C98400FD14E9FC0145CDBF397126DC4ADA4ED8E5
:10C9940052D656D45AD25ED006DE62CE66CCB7E703
:10C9A40000E07D5783AA070022C603AA470023A0FC
:10C9B400E71823A2E718B717004013077005238070
:10C9C400E704130780FA2380E70483C74704930B23
:10C9D40075FFB684E20793FBFB0F8546AA892E8B6D
:10C9E400328937240040E187015763FA76016308EE
:10C9F400D5008946130700026313D5000157D98F68
:10CA040093F7F70FB71C00402382FC04114723035C
:10CA1400E4801305F00F5D3D094CD135636D7C1145
:10CA2400B7050700DA9537870700795563F2E504FF
:10CA3400B3879500636EF702370B0800A94733EB01
:10CA440065016399F90689E48144513D26850DA069
:10CA5400DA850945553D05090345F9FFFD14050B24
:10CA6400693D81C49377FB0FFDF7DD3569FD7D5585
:10CA7400B7170040130770052380E704130780FAF3
:10CA84002380E70403C74704418B2382E704F25061
:10CA9400B7E700E023A0571123A24711E254324420
:10CAA4005259C259325AA25A125B825B724CE24CFE
:10CAB40021618280A5476395F90685691309F00F02
:10CAC400B3069900B3742B01B6941349F9FFB374F8
:10CAD4009900856B33796901416B9387F9FFB3F74B
:10CAE400270199E363FC340193D94900C147E3E684
:10CAF40037FF99BF0569C1697D19D9B71305800D41
:10CB04006388690113050002638479011305100821
:10CB1400CA85DD3B353D21DD4E99B3843441D9B717
:10CB2400DA852D45D533CA94E30099F205097D3B96
:10CB3400A30FA9FED5BF9387F9FF93F7F70F63619E
:10CB4400FC0C83C71C0413073008631FF704370762
:10CB54000800636BEB04B3079B00B706100063F592
:10CB6400D704334BEB0089476393F9068980D54991
:10CB7400E38C04ECDA850945413B11090327C9FF1D
:10CB840091472320E48003076480E34E07FE2303D8
:10CB94003481FD17EDFBFD14110B81C49377FB0F5A
:10CBA400E9FF7D3371F5E1B5B717004003C75704BA
:10CBB400B70708001377070219E3B7870700795509
:10CBC400E378FBEA33079B00E3FFE7F855B58547B5
:10CBD400E382F9F2DA852D45053B9389F4FFE38579
:10CBE40004E6293393F7390091EB83260480032765
:10CBF400090093074900E39AE6E43E89CE84F1BF35
:10CC0400B5476396F9001305900BC93135BDB1479B
:10CC14001305B00AE38BF9FE99476391F904B7054C
:10CC24000800B365BB002D45C53181448D4BA14936
:10CC3400753963967401832704802320F9008504E1
:10CC4400E39834FF8327048013172B0163550700EF
:10CC54002312F900D5BB2322F900FDB39D47639944
:10CC6400F90281451305B0044531BD442320090070
:10CC740023220900FD599D3993F77400CA9703C70D
:10CC84000700FD14398D2380A700E39634FF6DBBA4
:10CC9400A1476392F9046D398144630D0B008D47FC
:10CCA4009304C0036308FB009304000563048B0131
:10CCB400930440041375C507E30895D81945393121
:10CCC40039390545213126850D3909453D3149312B
:10CCD400E31C05D669BB91476399F9001305600607
:10CCE400F536F53E130590090DB7E38F09D4F154D9
:10CCF400A9BB19CD91CD09CE81473387F500834671
:10CD040007003307F50085072300D700E317F6FE75
:10CD1400828019C991C909CA910583A7C5FF110564
:10CD24007D16232EF5FEC5BF828001C919C62A9639
:10CD34000505A30FB5FEE31DA6FE828081473307D8
:10CD4400F5000307070019E33E8582808507C5BF08
:10CD540001112E8626CAAA84131506019305F00430
:10CD6400418122CC06CE32C6EF1080632A8401C5ED
:10CD74003246A685BD3F2285F2406244D244056115
:10CD84008280854715C18DC105C28147B306F50070
:10CD94003387F50083C60600034707006398E6005F
:10CDA4008507E315F6FE85473E8582808147EDBF02
:10CDB4009307F6FFBE952A966313C5008280FD157E
:10CDC40083C715000505A30FF5FEFDB7AA87014526
:10CDD40081CF09CE3E96850703C7F7FF6317B700D7
:10CDE400E39BC7FE0545828082800145828079717C
:10CDF400975700009387075E22D4804306D626D235
:10CE04004AD04ECE52CC56CA5AC85EC662C45DCC15
:10CE140037C9C901814B175A0000130A2A60975475
:10CE240000009384645B1309F937975A0000938ACE
:10CE34002A55B709C0A8370B40578357240095E3F8
:10CE44005C44639D0B00175700002325F758032CFF
:10CE5400C4002285EF10E061628499A823A6FB0038
:10CE6400FDB783270A008297838664011C4463DB31
:10CE740006063307F5406367E9089757000023A9BE
:10CE84000750835524000345040097F001E0E78030
:10CE940020125C405844A9CF1444B6978386640199
:10CEA40063C5060063E33701DA971CC4A28B3A8496
:10CEB40049F4975700009387A74C9C4B0947637824
:10CEC400F706F917175700002324F74CB2502254E1
:10CED40092540259F249624AD24A424BB24B224C12
:10CEE40045618280E377F5F83387F9402A9761B783
:10CEF40063970B009757000023AEE74C89BF23A626
:10CF0400EB00B1B7D85009CF63DF06003385A740E3
:10CF140083A70A016376F5009757000023AAA74662
:10CF2400A28B404471B7E3F3A7FECE97C5B79757DA
:10CF3400000023AF074459BF411122C41754000015
:10CF4400130404471C4006C626C24AC091C78297F0
:10CF54009757000023AE07445C4091C382971C405E
:10CF64006391071C9757000083C71763858B9DC780
:10CF740097570000A3820762175700000347F76121
:10CF8400954763FDE700EF0050419757000083C7C2
:10CF9400D760F5178A07A2979C4382971759000018
:10CFA400130949638347C900918B99C3EF10A032D9
:10CFB4001C4491C382979754000093846441984021
:10CFC400175600000346D63B9757000083C7473BDC
:10CFD40093961700BA9683D60600D5CA97570000D1
:10CFE40083C7073A63EFC70A97570000238A0738B5
:10CFF4001C40639807129757000083C7375A91CF94
:10D004009757000083C7775989EB97570000A38788
:10D014000758978003E0E78080A79757000093871D
:10D02400E73F9C43638F070EB707C0A8175700005C
:10D034002320F7366D3B975700009387E739DC537D
:10D04400EDC3175700001307A733184B9757000079
:10D0540083C7D7396367F70C175700000347F753A3
:10D06400954763E0E70C8347C900918BDDEB904063
:10D074009756000083C6D63063CBD70A2244B24009
:10D0840092440249410117F301E0670083CF850709
:10D0940093F7F70F975600002384F62EE3E6C7F2C2
:10D0A40035BF86073E97835507002310070097571F
:10D0B4000000239D0730975700009387272F9C4338
:10D0C400175500000345C52B13172500BA979C4339
:10D0D40082979757000083D7672F1757000003479D
:10D0E400272A93C7F7FF7D8D9317170098403E9723
:10D0F400835707005D8D2310A7009757000083C74F
:10D10400272891C7850717570000230BF7261757C1
:10D1140000000347E7269757000083C77726E37587
:10D12400F7ECB240224492440249410182801397B1
:10D1340017003297035707006DF7850735BFAD67B2
:10D1440037C70040BD072326F7200F10000097576C
:10D1540000009387E722C84F83278726BD66BD0654
:10D1640093C7F7FF99836A052326D7205D8D8280B4
:10D174004111B7170040985F3AC6945F3247E39C69
:10D18400E6FE3245410182808280032785116300D7
:10D194000712411122C406C68347C5008345C5044E
:10D1A4002A8493F7C70F2306F50083469700035696
:10D1B400C70013958601618563F1C508635A0506A6
:10D1C4000345870093F6F607A304D700054693E6C4
:10D1D40027006314C50093E617002306D4005C43BC
:10D1E40089075CC3A30AB400032504112E864C43AB
:10D1F400090501368327841103465401D44303D718
:10D20400C700B296118FD4C32396E7008947A30DB4
:10D21400F400034744039757000083C7071D63784E
:10D22400F7048347C40093E707012306F40081A0B1
:10D2340093E717002306F40075B79376F60F635D42
:10D24400050203458700854513E627006314B500EE
:10D2540013E617002306C400A30AD400A30407009E
:10D264008547A30DF400832784119C43DDF3B2406A
:10D27400224401454101828093E717002306F4000C
:10D28400A30AD400A3040700032504114C43090591
:10D294008D348327841103465401D44303D7C70034
:10D2A400B296118FD4C32396E7008D475DBF054521
:10D2B4008280975700009387672C9C43411122C4B6
:10D2C40006C6858B2A84C5EF4165130525F597F0BD
:10D2D40002E0E78080F545C58347A5002315F500E6
:10D2E40083270412BDE72320A4122322A412854716
:10D2F4002310F404232005008347640154412316BA
:10D30400F5000347D4002304E5000547A304E50022
:10D314001757000013070728184F138517021581A4
:10D324001C437D151375F50F9CC25C43DCC21C477E
:10D334009CC65C47DCC61C4B9CCA5C4BDCCA1C4FBD
:10D344009CCE5C4FDCCE19CD9386060213070702F0
:10D35400C1BF8327441288C3835704042322A41221
:10D36400850779B79757000083D747308507175744
:10D374000000231DF72EB2402244410182808347DE
:10D38400C40023090400054593C747002306F4009D
:10D39400DDB78347850193F7E70FD5EF8347950101
:10D3A400DDEB034625018346C50009CA83454503D1
:10D3B400175700000347770363E7E50013F70601F7
:10D3C40041CF014709C6C18A0357651C81C68356EC
:10D3D400A51C369751C31307C712175500000355F0
:10D3E400A5FCB335A70237460F00411113060624E6
:10D3F400814622C426C206C67D543305A70297007F
:10D4040004E0E780E03E9757000083C777FEB384CB
:10D41400A700975700009387E72403A707098327EA
:10D42400070963F387003E84184375FB9757000090
:10D434009387C7FE9C43829781476364A400B30724
:10D44400A440B2402244B3B7970093C71700924454
:10D454003E854101828081473E858280797126D252
:10D4640006D622D44AD04ECE52CC56CA5AC85EC62C
:10D474008347350303447513AA843E941374F40F4D
:10D484009307400263F687001304B4FD1374F40F8A
:10D4940003AA841383AAC413A38B841222865285FD
:10D4A400D685970004E0E780202F058915E503CB96
:10D4B400D41201498149337B6403930B50024A8699
:10D4C4005285D685970004E0E780002D058915C5AF
:10D4D400639169031374F90F238B8412B25022549D
:10D4E40092540259F249624AD24A424BB24B4561C4
:10D4F40082808509E20993D989410509E31179FDFF
:10D50400E1BF832785090356E503797193D60701A3
:10D51400BD8EC206C182358E13577640935756404E
:10D52400898B058B5D8F93573640918B5D8F935715
:10D534001640A18B5D8F93171600C18B5D8F9317D7
:10D54400360093F707025D8F9317560093558600B4
:10D5540093F707041E065D8F1376F60F518F93D74A
:10D56400554013D63540118A898BD18F13D6754017
:10D57400D18F13D61540218AD18F13961500418A75
:10D58400D18F1396350013760602D18F139655006A
:10D59400137606049E05D18F93F5F50FCD8FA20760
:10D5A40045465D8F3307C70222D42A8426D252CC43
:10D5B40056CA032A8413832AC4135AC806D6369734
:10D5C4004207418393577740135557400989858B08
:10D5D400C98F135537401189C98F135517402189B5
:10D5E400C98F131517004189C98F13153700137597
:10D5F4000502C98F13155700935587001375050449
:10D604001E07C98F1377F70FD98F13D5354013D75A
:10D6140055401189098B498F13D57540498F13D50E
:10D6240015402189498F139515004189498F139518
:10D63400350013750502498F1395550013750504BC
:10D644009E05498F93F5F50F4D8F2207D98FB38728
:10D65400C7024AD04ECE5EC662C4B697C207C18323
:10D6640013D7774013D557400989058B498F13D5B4
:10D6740037401189498F13D517402189498F139554
:10D6840017004189498F1395370013750502498F97
:10D694001395570093D58700137505049E07498F8A
:10D6A40093F7F70FD98F13D5354013D75540118908
:10D6B400098B498F13D57540498F13D5154021899E
:10D6C400498F139515004189498F139535001375BA
:10D6D4000502498F13955500137505049E05498F5E
:10D6E40093F5F50F4D8F2207D98FB387C702130621
:10D6F40050025285D685B697BD8E93940601C1809B
:10D7040033F6C402137BF60F970004E0E780C008E9
:10D7140005890DED8347D41201498149B3849702E9
:10D72400130C5002C1804A865285D685970004E0C6
:10D73400E78080060589937BF90F11C5638634035E
:10D74400850993F9F90F0509E31F89FD230B641378
:10D75400B250225492540259F249624AD24A424B7C
:10D76400B24B224C456182805E8BCDB7011122CC35
:10D77400604126CA4AC84EC652C406CEAA841D4A6F
:10D78400130965058549BC446364F400054581A813
:10D7940003C7D40083474400631B470503C78402BF
:10D7A4006304F7000040C5B70347540083C754051A
:10D7B400E31AF7FE1946CA8513056400EFF06FDC1F
:10D7C400E31235FF0347C40083C79402E31CF7FC4C
:10D7D4000357E40083D7A402E316F7FC0145F240A3
:10D7E4006244D2444249B249224A05618280E31B21
:10D7F400F7FA0347540083C75405E315F7FA1946AB
:10D80400CA8513056400EFF0CFD7E31D35F9F9B7E6
:10D814000111975700009387E7E422CC03A4470B38
:10D8240026CA06CE2AC42EC6854419E40145F24010
:10D834006244D24405618280834791000347140007
:10D84400858B6304F7000044CDB719469305A10006
:10D8540013052400EFF0EFD2E31795FE0545C1BF91
:10D86400011122CC17540000130484D418402AC692
:10D874002EC432C206CE3C4B93F7F7F73CCB9770DD
:10D8840003E0E780801D184097560000938686CFFA
:10D894003C4B93E707083CCB9C423245A24523A06E
:10D8A4000700034715000348250022074208429752
:10D8B400034805004297034835006208429798D709
:10D8C400034755000348650022074208429703486E
:10D8D400450042970348750062084297D8D703472A
:10D8E40095000348A5002207420842970348850093
:10D8F40042970348B5006208429798DB0347D50076
:10D904000348E5002207420842970348C50003453F
:10D91400F500429762052A97D8DB03C7150003C5B3
:10D924002500220742052A9703C505002A9703C547
:10D93400350062052A9798CF03C7550003C56500D3
:10D94400220742052A9703C545002A9703C5750097
:10D9540062052A97D8CF03C7950003C5A5002207FF
:10D9640042052A9703C585002A9703C5B5006205B9
:10D974002A9798D303C7D50003C5E50022074205BB
:10D984002A9703C5C50083C5F5002A97E2052E979B
:10D99400D8D3D843759BD8C3D84313671700D8C3CB
:10D9A40098431367170098C3124698425C43858BCB
:10D9B400D1E71C4F01452300F6009C429C4FA183F4
:10D9C400A300F6009C429C4FC1832301F6009C42B5
:10D9D4009C4FE183A301F6009C42D84F2302E6004A
:10D9E400D84F2183A302E600D84F41832303E600E6
:10D9F400D84F6183A303E60098532304E6009853A9
:10DA04002183A304E600985341832305E600985339
:10DA14006183A305E600D8532306E600D853218387
:10DA2400A306E600D85341832307E600DC53E183D1
:10DA3400A307F600F2406244056182800100B5B795
:10DA440017570000130747B41443411122C49C5EC6
:10DA54004AC006C6998326C2858B3A8417590000AA
:10DA6400130949B2D1CB9C5E97540000938484B2CD
:10DA740093F7F7F99CDE17570000034707B29307A3
:10DA84000008631BF700832709009C4393F70704EE
:10DA9400175700002303F7B083C7040093F7070464
:10DAA4009DC397570000938767979C438297975726
:10DAB400000023A9A7AE83C7040093F7F70B1757F9
:10DAC40000002309F7AC83C7440093F707048DE7EC
:10DAD400854717570000A301F7AC975700009387B9
:10DAE40027AD9C43096798C7130700FC97560000AD
:10DAF4002384E6AAD844F8D31C40985F1183058B8D
:10DB040009CB985F3D9B98DF054797560000238516
:10DB1400E6A8985F1D83058B11CB985F1377F7F701
:10DB240098DF8547175700002308F7A683270900C5
:10DB3400D8430583058B19C7D843759BD8C3D843ED
:10DB4400799BD8C3B2402244924402494101828065
:10DB5400397106DE16DC1ADA1ED82AD62ED432D251
:10DB640036D03ACE3ECC42CA46C872C676C47AC2D1
:10DB74007EC0F935F250E2525253C2533255A25587
:10DB8400125682567247E2475248C248324EA24E5B
:10DB9400124F824F21617300203097570000938702
:10DBA40027A19443975700009387C79E03C7070094
:10DBB400058B11CB975700002380079E97570000D1
:10DBC400A38C079C828003C71700058B65F7F85266
:10DBD40071FF83C75700DDB7175800001308C89AB0
:10DBE400032708001C5F9583858BD1E709C61C5B5E
:10DBF400BD832300F60085CA83270800985B460787
:10DC0400935767016356070093E707C0C207C183B0
:10DC140003970600C207C18709C7BA970947B3C764
:10DC2400E7022390F60085CD834715008DCB9756E8
:10DC3400000083C6869693F60604138797008947E7
:10DC44008DCA3A9503470500854699471376F7062A
:10DC54006311D60262076187B947634C07008327C3
:10DC640008009C5FED838D8B17570000A309F79282
:10DC740081473E8582808547EDBF411122C406C697
:10DC8400175400001304C492184049E9AE87745332
:10DC9400FDFE3E85B28597570000238E078E977050
:10DCA40003E0E78080B1975700009387E78D9C439A
:10DCB400B70680009843558F98C3D857719BD8D71F
:10DCC40097570000A38A078C97570000A384078CFA
:10DCD4001C40094798C3B7F700E003A707D16D9B21
:10DCE40023A8E7D003A707D15D9B23A8E7D073003F
:10DCF40050101440175700001307C78983472700A3
:10DD0400858B89EB83473700858BD9C797570000EC
:10DD140023840788B2402244410182808D476310E6
:10DD2400F50297570000938727869C43B706800027
:10DD34009843558F98C3D857719BD8D75DBF8547F3
:10DD4400E319F5FAB567BD075CC70F1000001C4066
:10DD54000967094698C7130700F897560000238DF2
:10DD6400E682175700001307278214439842318331
:10DD74000D8B6319C7001307E043F8D33D673D07D4
:10DD8400D8C785BF984231830D8B01E7130760190B
:10DD9400EDB71307E01BD5B7FC52ADF3A5BF5D711A
:10DDA40052DC174A0000130A2A7E03270A0086C69B
:10DDB400A2C4A6C2CAC04EDE1C4397590000938970
:10DDC400E983174900001309A97E93F7F7E793E75E
:10DDD40007081CC383A609003707CEFF7D179C469E
:10DDE400130680022A84F98F9CC68327090013072F
:10DDF40000082800B8CBAE8493051008EFE0FFF2CA
:10DE0400977003E0E78060C5977003E0E78060D215
:10DE140083270A009376F41F370FFCFF23A407001F
:10DE2400984B4E88CA881367F70398CBF84F1305AD
:10DE340010F8D285137707E0558FF8CF9843F5761D
:10DE4400FD16758F98C39843B7063300B7020400D4
:10DE54001377F7E798C398439303401F7D1F137705
:10DE6400F7E71367071098C303A70900930F80020D
:10DE740085491C47D58F1CC7832709001307900DBC
:10DE84003400B8CB11490147135337002693834715
:10DE9400030013767700B3D7C740858BDDCF9C4151
:10DEA400832E0800239C07042390070603AECE02AA
:10DEB400137EDEFF23A6CE0383AE0700137EF7078F
:10DEC40093FE0EF833EECE0123A0C70103AE470242
:10DED400336E5E0023A2C70383AE0800014E23A263
:10DEE4007E0603DA070663074E0303AE0703038ABD
:10DEF4000600135EFE00620E135E8E416358CA0173
:10DF040003AE0703135EFE002380C60103DE07068B
:10DF1400137EFE0F03AA4E0663060A0003DA870582
:10DF2400E37F49FB03AE4702337EEE0123A2C7031E
:10DF340083870600635CF400034E03003396C90034
:10DF44001346F6FF3376C6012300C3003E8663D32F
:10DF5400A7002A8613158601618505071377F70F35
:10DF64008506E313F7F3B640264496440649F2596E
:10DF7400625A6161828097460000938666639C4280
:10DF8400D84713161701635506029847131617014D
:10DF9400635006027D57B8D7174700001307473E62
:10DFA400584F050717460000232AE63E116798C715
:10DFB40098470D83058B1DC3174700000347A75DD2
:10DFC40013671700174600002307E65C130700F8E1
:10DFD400174600002302E65C214798C79847058B43
:10DFE40009CF174700000347F75A1367170017466E
:10DFF4000000A301E65A054798C798470983058B93
:10E0040009E798470583058B31CF984717460000E9
:10E014001306465817450000130505570983058B59
:10E02400630307101841184331830D8B75EBAC4B18
:10E03400184E93F5050203471700CDCD79EF13076A
:10E044007006D8CF03470600136717001746000071
:10E054002302E654114798C718415C57F19B93E794
:10E0640017005CD79C4298479316370163D6060283
:10E074009746000083C64666C18A17470000130707
:10E08400675EC5CE0347470713670702974600003C
:10E094002384E664056798C798479316270163D1DC
:10E0A4000602174700000347274F6207618763573B
:10E0B40007000547974600002380E64E096798C786
:10E0C40098479316070163D606029746000083C655
:10E0D400B660858A174700001307C758ADCE0347BB
:10E0E40057071367270097460000A387E65E21675A
:10E0F40098C7828029D785456315B7001307B006F2
:10E1040089B789456315B7001307F0061DBF8D4510
:10E114006315B700130730072DB71307500715B75A
:10E124001307600739BF0347360013671700174604
:10E134000000A302E646094739BF8346470709465C
:10E14400BD8A6388C600034747078D463D8BE313AA
:10E15400D7F4114725BF83465707918AC9DA034785
:10E1640057071367870041B7397106DE16DC1ADAE0
:10E174001ED82AD62ED432D236D03ACE3ECC42CA7B
:10E1840046C872C676C47AC27EC0F533F250E252F3
:10E194005253C2533255A255125682567247E24721
:10E1A4005248C248324EA24E124F824F2161730030
:10E1B4002030174700001307E73F8346B70197470E
:10E1C400000083C7F7414C4BB697FD8B33D7F5005E
:10E1D40097460000A380F63E97460000A382F640CF
:10E1E400058B15EF174700000347D73FB3F7E70246
:10E1F400814601471305000233D6E500058A1378EA
:10E20400F70F19CA6397D70097470000A384073B09
:10E214008280850693F6F60F0507E31FA7FC82802C
:10E22400974700009387871F9C43011122CC4EC659
:10E2340006CE26CA4AC852C456C2829797470000DF
:10E2440093874739804781496305A406BE8497476D
:10E25400000093876718038767013E8963550706A3
:10E26400018D135455009747000083C747369379AF
:10E27400F501636DF402370AC0A8B70A4057153F89
:10E284009C449746000083C68634139756003E97F5
:10E2940083076901158C63C50700636347015697BB
:10E2A4009747000023ACE732E37BD4FC1604B36940
:10E2B4003401F24062444E85D2444249B249224A72
:10E2C400924A05618280E37D85F8B707C0A833844C
:10E2D4008740229579B797470000938727149C437A
:10E2E400411122C406C626C282979747000093872D
:10E2F400672E80476309A406BE849747000093876E
:10E30400A70D8387670163D80704018D1354550053
:10E314009747000083C7A72B6367F404593D9844CB
:10E324009747000083C7A72A9396570036971D8CFA
:10E334009746000023A4E62AE372F4FE2244B24086
:10E344009244174500000345F526814541011773A2
:10E3540003E0670023C5E37A85FAB707C0A83384CE
:10E364008740229565B7B24022449244410182809D
:10E3740097470000938787289843B75702009387ED
:10E38400079F8326070913965600635806008326C1
:10E3940007091396660063440600FD17FDF38280A7
:10E3A40071C5AA870145E9C58D07C207C183F19BE1
:10E3B400C207C18313074003636FF70217470000C6
:10E3C4001307C7290843174700001307A728144356
:10E3D4006398A6021747000013070700185B01455E
:10E3E40041CB4111C20706C60545DD8D0297B240F7
:10E3F400014541018280174700001307E725D9B77B
:10E404000357650035E303574500636FF704B3060C
:10E41400F7402146637CD6020328050093868700D3
:10E424001D8FAA966117174600000356C6F523925E
:10E43400E60023A006012393060014C12312F5006D
:10E44400130786FF97460000239FE6F22313B500C7
:10E454009745000083D525F3B387F540174700009F
:10E464002313F7F22105828008419DB7014582807C
:10E4740082800DC1974700009387471E03A30700BE
:10E48400974700009387071D83A8070081469A8752
:10E4940063E31701828003A80700636DF50A636BC9
:10E4A400A80A13878700E367E5FE03D667002167A0
:10E4B40005076317E60003C7C1930507238EE1929E
:10E4C400974500009385C5EB03D6470003D7650045
:10E4D4002393070032974207418317450000231412
:10E4E400E5EA638A6702174500001305E51608414B
:10E4F4006303F50203D5660019ED83D7460023A014
:10E50400060121073E9621062392C6009747000084
:10E51400239BE7E6B6879843E30E17F79746000078
:10E52400938686139442E307D7F683566700BDF2B9
:10E5340083D64700035647001843A106B296239298
:10E54400D70098C383D76500A10717470000231C91
:10E55400F7E28280BE86C28725BF0111974700007B
:10E564009387471022CC03A4C70B26CA4AC84EC6B9
:10E5740006CEAA8413092500854915C083C7140053
:10E5840003473400858B6304F700405CFDB71946EC
:10E59400930544004A85EFE0CFFEE31835FF22855A
:10E5A400F2406244D2444249B24905618280411139
:10E5B400974700009387070B22C403A4C70B26C206
:10E5C4004AC006C693042500054901E82285B240E5
:10E5D40022449244024941018280A6851305A40283
:10E5E40097F003E0E78040D5E30225FF405CF1BFEC
:10E5F4004111974700009387E70622C403A4C70B81
:10E6040026C24AC006C693042500054901E82285AE
:10E61400B24022449244024941018280A6851305F6
:10E62400A40197F003E0E78020D1E30225FF405CDA
:04E63400F1BF000032
:10E638009751FF1F938101B117A1FF1F1301019C7F
:10E6480017E5FFFF1305C59B9725FF1F9385059BBE
:10E658001746FF1F1306C6FD63FAC500832205008F
:10E6680023A0550011059105E3EAC5FE17F503003F
:10E67800130505279745FF1F938585FB138601859D
:10E6880063FAC5008322050023A0550011059105F2
:10E69800E3EAC5FE138501859785FF1F9385050E5F
:10E6A8006377B500232005001105E36DB5FEFD4233
:10E6B800739002BC8D4273904280B722000093820F
:10E6C800828873A002309722FF1F9382229393E2DD
:10E6D80032007390523097E200009382225B73906D
:10E6E8001234730020303D432A876373C302937743
:10E6F800F700BDEFADE5937606FF3D8ABA960CC3E9
:10E708004CC30CC74CC74107E36BD7FE11E28280AC
:10E71800B306C3408A069702000096966780A60053
:10E728002307B700A306B7002306B700A305B70061
:10E738002305B700A304B7002304B700A303B70059
:10E748002303B700A302B7002302B700A301B70051
:10E758002301B700A300B7002300B700828093F518
:10E76800F50F93968500D58D93960501D58D61B7E4
:10E77800939627009702000096968682E78086FA8D
:10E788009680C1171D8F3E96E374C3F8A5B733670B
:10E79800B500FD530D8B79E7B7877F7F9387F7F730
:10E7A80010419441B372F6003363F600BE92B3E2AF
:10E7B80062006397720C6318D6065041D441B37255
:10E7C800F6003363F600BE92B3E262006398720A01
:10E7D800631BD60410459445B372F6003363F60004
:10E7E800BE92B3E262006391720A631ED60250457C
:10E7F800D445B372F6003363F600BE92B3E262000A
:10E80800639A72086311D60210499449B372F600EC
:10E818003363F600BE92B3E2620063937208510557
:10E82800D105E30FD6F61317060193970601631C6B
:10E83800F7001357060193D706013305F740937580
:10E84800F50F91E982804183C1833305F7409375C1
:10E85800F50F91E182801377F70F93F7F70F3305E0
:10E86800F74082800346050083C605000505850537
:10E878006313D60065FA3305D640828011059105E9
:10E88800E312D6FE014582802105A105E31CD6FCD2
:10E89800014582803105B105E316D6FC0145828029
:10E8A8004105C105E310D6FC0145828001471146A8
:10E8B8004148B386E5008147B308F50083C80800DE
:10E8C8008507C10623A816FFE398C7FE110711059F
:10E8D800E31107FF8280935785019CC19357054137
:10E8E80093F7F70FDCC19357854093F7F70F13752C
:10E8F800F50F9CC5C8C582801C414111130705014D
:10E908003EC05C413EC21C453EC45C453EC6939732
:10E9180025001408B69783A707FF85051105232E40
:10E92800F5FE8D89E315E5FE41018280397122DC0F
:10E9380041661384C19B06DE26DA4AD84ED652D4E5
:10E9480056D25AD05ECE93050501A2863708FF003D
:10E958007D1683070500034735001105E207D98FA7
:10E968000307D5FF9106420733770701D98F0307BD
:10E97800E5FF2207718FD98F23AEF6FEE39BA5FC36
:10E9880081499144930A010117BB0300130BCB86FD
:10E9980097BB0300938BCB83130AC00293F7340011
:10E9A800032904004844BDE78A85353785450A852B
:10E9B800A1370A871C43110793F6F70093F7070F4F
:10E9C800DA97B69783C70700232EF7FEE394EAFE8B
:10E9D800024592476205C2075D8DB2475D8DA24729
:10E9E800A2075D8D93972900DE979C4385093D8D8D
:10E9F8003345250108C885041104E39144FBF2500E
:10EA08006254D2544259B259225A925A025BF24B7A
:10EA1800216182803345A90008C8F1BF797122D4E9
:10EA280026D24AD04ECE52CC56CA06D62A8A9399B6
:10EA380045000144938AC19B13090101C144B307EE
:10EA48003401D69788438A85793533078A008A87BF
:10EA58001443904391074107B18E2328D7FEE399C9
:10EA680027FF1104E31D94FCB2502254925402591A
:10EA7800F249624AD24A45618280397122DC130424
:10EA8800050106DE22878147C1460C433306F100A3
:10EA980011070CC24C4710083E960CC24C4F101080
:10EAA8003E960CC29107E392D7FE85450A85A935A3
:10EAB8008945080891358D4508103D3D81474147F6
:10EAC800B306F10094421104232ED4FE1408BE9616
:10EAD800944254C41410BE969442910754CCE391C6
:10EAE800E7FEF25062542161828006059377051093
:10EAF80089C71375F50F1345B5018280411106C604
:10EB0800ED37B2404101D5B781471148C148338636
:10EB1800F500B306F500014703AE06003303E6002F
:10EB280005072300C301C106E31807FF9107E39017
:10EB380017FF82809306050117A603001306C67BFC
:10EB480013050505138706FF1C43110793F5F70006
:10EB580093F7070FB297AE9783C70700232EF7FEE8
:10EB6800E394E6FEC106E31FD5FC82801C414111F7
:10EB7800FD563EC05C413EC21C453EC45C453EC697
:10EB88008D47B385B7409307C50013972500100834
:10EB98003297032707FFFD1598C36393D5008D456A
:10EBA8001387C7FF6314F50041018280BA87F1BF5C
:10EBB800397122DC1304050106DE22878147C1462C
:10EBC8000C433306F10011070CC24C4710083E965F
:10EBD8000CC24C4F10103E960CC29107E392D7FE20
:10EBE80085450A8561378945080849378D450810E4
:10EBF800B53F81474147B306F10094421104232EE3
:10EC0800D4FE1408BE96944254C41410BE9694427E
:10EC1800910754CCE391E7FEF2506254216182805F
:10EC28009306050117A603001306065D13050505DF
:10EC3800138706FF1C43110793F5F70093F7070F97
:10EC4800B297AE9783C70700232EF7FEE394E6FE3C
:10EC5800C106E31FD5FC8280411122C406C626C224
:10EC680085472E846301F50289476318F50022441D
:10EC7800B24092442E8541018DBD8D47631BF5003E
:10EC88002E85A535298C2285B24022449244410123
:10EC98008280A5476315F5002E858D35DDB7AD4714
:10ECA800631AF5002E85993D8935AA842285353D5C
:10ECB800258DC9BFB5476316F5002E858135AA8411
:10ECC800FDB7B947E311F5FC2E850D3DAA84313D0A
:10ECD800A98C2285193D3344950075B7597186D69C
:10ECE800A2D4A6D2CAD0CECED2CCD6CADAC8DEC674
:10ECF800E2C4E6C2930605040A87AA879043C107BF
:10ED080041072328C7FE03A647FF232AC7FE03A6F9
:10ED180087FF232CC7FE03A6C7FF232EC7FEE39F4A
:10ED2800D7FC17A9030013092971130A05019309D0
:10ED38000505832C0900032C4900832B8900032B2C
:10ED4800C900930A0AFF8A848C406685910A29378C
:10ED58008C482A84628509378C50298C5E85ED3D64
:10ED68008C58298C5A85CD3D218D23AEAAFE91045D
:10ED7800E31C5AFD410A4109E39D49FBB65026545C
:10ED880096540659F649664AD64A464BB64B264C1F
:10ED9800964C656182806382051493F7F500639E43
:10EDA80007121571D6C3AA8A3285A2CDA6CB86CF03
:10EDB800CAC9CEC7D2C5DAC15EDF62DD66DB6AD9F1
:10EDC8006ED73284AE84EF600324C147631EF5001A
:10EDD8002285A93E0149130A010697AB0300938BCC
:10EDE800AB65294C63419902FE406E44DE444E49AE
:10EDF800BE492E4A9E4A0E4BFA5B6A5CDA5C4A5D53
:10EE0800BA5D2D618280338B2A010C105A85793CBA
:10EE18008145081021318549081019350810B13984
:10EE28001C10D2863E8710434107C10623A8C6FEA0
:10EE3800032647FF23AAC6FE032687FF23ACC6FE88
:10EE48000326C7FF23AEC6FEE31FEAFC17A703008D
:10EE58001307875A03280700832D4700032D8700CF
:10EE6800832CC7005284138607010C4042853ECE8E
:10EE78003ACC32CA42C8CD330C482AC66E85E93B23
:10EE8800B2460C501104A98E6A8536C6F133B246D3
:10EE98004C54A98E668536C6C133B246F2475246EF
:10EEA800358D88C3910742486247E310F6FC410755
:10EEB800B287E391EBFACE85081085098536E39D84
:10EEC80089F50810B13B08104D3EA9450810B93620
:10EED800DA8508101539410931B78280638D05102C
:10EEE80093F7F500639907105171CECFAA8932853F
:10EEF800A2D5A6D386D7CAD1D2CDD6CBDAC9DEC79A
:10EF08003284AE84EF602310C1476319F50022856F
:10EF1800313C0149138BC19B634D9900BE502E545F
:10EF28009E540E59FE496E4ADE4A4E4BBE4B6D61E9
:10EF38008280338A29018C0052858D3AA945880040
:10EF4800F13C1384C1A4C14A930B00048800DD3648
:10EF58008800B9398800593308408A85AD3A484055
:10EF68000C08953A08440C10BD3248440C18A532D8
:10EF780018018147B306F100944241072328D7FEC0
:10EF88001408BE969442232AD7FE1410BE969442C3
:10EF9800232CD7FE1418BE9694429107232ED7FE31
:10EFA800E39A57FD08011D3B01479C003385E700A4
:10EFB8001C01B305F70081473306F5003388F500D7
:10EFC8001442032808009107B3C6060114C2E3954A
:10EFD80057FF4107E31B77FD4114E31964F78800E5
:10EFE800913E8800F136814588000D3CD285880025
:10EFF800213E410915B782809307F00F6385F60A11
:10F008002D71232A911023282111B284232631112E
:10F01800130600102E89AA89930530020A85232E2B
:10F028001110232C81103684EFF0EFEBA285268592
:10F03800EFA0005B13178500935785003365F70031
:10F048002310A100A68522861305310093043400FD
:10F058002301810093F4F40FEF50A31093F6F4000A
:10F0680089C64D04158C9374F40F1C02A697A685C7
:10F078000A8517A603001306E641238007F0213B03
:10F0880026868A854E85EF50C30D2300990083207C
:10F09800C1110324811183244111032901118329FA
:10F0A800C110156182808280797122D432844AD05D
:10F0B8004ECE2A89AE892285B68517A60300130687
:10F0C800663D26D252CC06D636C6093DB246130A4C
:10F0D80034005285A29623800600834404008347A7
:10F0E800140083452400A204DD8CEFA0604F639ACE
:10F0F800A40203462400D2854A852380C900EF5024
:10F108007374254597A5030093850537EFA0005133
:10F118000545B250225492540259F249624A456157
:10F1280082802380090025452300090097A5030054
:10F1380093854535EFA0804E0145E1BF411106C6D4
:10F14800EF60D029B240AA8617A703001307073B30
:10F158001756FF1F1306861197A503009385853B55
:10F16800114541016FA0C061130101DB23248124F3
:10F17800232021252326112423229124232E3123E1
:10F18800232C4123232A51232328612303470500E5
:10F19800930710042A892E84631DF75A0347150024
:10F1A800930740056317F75A034725009307E005BF
:10F1B8006311F75A2E86AA852545EFA040511306FC
:10F1C800D003A2854A85EFA08068AA84635A050007
:10F1D8003546A2854A85EFA08067AA84634405085E
:10F1E8009389D4FF9307100363CE37074E869305A0
:10F1F80039002808EF5013651C1CBE9917AA030094
:10F20800130A0A5A238409DED28A8149554B832579
:10F218004A002808EFA0605D0DC18E09D69983D7F2
:10F2280009005147636FF70017A703001307C727A3
:10F238008A07BA979C43BA9782878509210AE39877
:10F2480069FD97A503009385E554E5A09305F4FFB0
:10F25800858D13851400C20581460146C1814A95F2
:10F26800EF20B0268320C124032481248324412451
:10F27800032901248329C123032A8123832A4123C3
:10F28800032B01231301012582801306F4FF058E49
:10F298009385140042064182CA95E800EFA09003C6
:10F2A8001305D104EF50335693150501C181130599
:10F2B800D104EFA0B00E97A503009385E5261305AA
:10F2C800D104EFA0805219CD97A503009385452658
:10F2D8000545EFA0A0341765FF1F03454583EF40A0
:10F2E800B04949B797A503009385C5251305D104EF
:10F2F800EFA0A04F19CD97A50300938525250545B7
:10F30800EFA0C0311765FF1F03456580EF409049A6
:10F3180091BF97A50300938565241305D104EFA039
:10F32800C04C01CD0145EF60C06297A503009385ED
:10F3380065232545EFA0802E35B797A50300938553
:10F3480025231305D104EFA0404A09C90D45EF60F4
:10F35800406097A5030093852522E1BF97A5030088
:10F36800938505221305D104EFA0204811CD371746
:10F3780000408327C70A896697A50300938505215E
:10F38800D58F2326F70A75B797A50300938505211E
:10F398001305D104EFA0604511CD3717004083272E
:10F3A800870A896697A5030093850520D58F2324AE
:10F3B800F70A41B797A50300938505201305D104E3
:10F3C800EFA0A04297A503009385C51F3DF197A51F
:10F3D80003009385E51F1305D104EFA0004197A50D
:10F3E80003009385A51F31F597A503009385C51FD5
:10F3F8001305D104EFA0603F11C59757FF1F23A73E
:10F4080007728DB597A503009385C51E1305D10412
:10F41800EFA0A03D01C5EF40307BA9B597A503003B
:10F428009385051E1305D104EFA0203C01C5EF40CC
:10F43800707E0DBD97A503009385451D1305D10466
:10F44800EFA0A03A01C5EF40104C29BD97A50300D5
:10F458009385851C1305D104EFA0203901C5EF70F1
:10F46800702A09B597A503009385851B1305D10458
:10F47800EFA0A03709C50545EF60A04DE5B397A5F6
:10F4880003009385651A1305D104EFA0003619C14E
:10F498000145DDB70346D104A547130606FD1376DB
:10F4A800F60FE3E1C7DC9757FF1F238AC76697A5C6
:10F4B80003009385E517EFA0A02C6DB31306F4FFA6
:10F4C800058E138514004206418297B50300938583
:10F4D80025B84A95EFA020459757FF1F93874762A5
:10F4E80083D7070009CD93E717001757FF1F231984
:10F4F800F76097A503009385E514114525BDF99B91
:10F508001757FF1F231EF75E97A503009385451421
:10F51800EDB72D3181BB1306F4FF058E138514005A
:10F528004206418297B50300938585B24A95EFA0BC
:10F53800803F1754FF1F1304A45C21C997A503003B
:10F548009385C511E800EF50F32AE800EF50B32B7C
:10F55800131605014182EC001745FF1F1305455B93
:10F56800EF70800897A50300938505121145EFA059
:10F57800E00A83570400414593E717001757FF1F18
:10F588002310F758EFA03017F1B997A5030093851A
:10F5980065101145EFA0800841657D15EFA0901812
:10F5A80083570400F99B1757FF1F231BF7545DB9B6
:10F5B800EF6060619757FF1F93878754A843EF4018
:10F5C800730EAE862A8697A503009385650D1145AF
:10F5D800EFA0001B41B9EF40D02269B117B6030074
:10F5E800130686A797A503009385450C1145E1B539
:10F5F800EF60606397A503009385050CE31F05EE94
:10F6080097A503009385450CCDBD3545EF70B00433
:10F61800AA84EF4033092A86AE86254597A50300BC
:10F628009385C50BEFA0C01597A70300938787EFB5
:10F638008843A6851754FF1F130404DAEF40231CE0
:10F64800232EA420EF60A0640325C421EF40930576
:10F65800AE862A8697A50300938505098DBF814547
:10F668000D45EF401043EF6020562A8697A503000A
:10F678009385450AA5BF81453145EF4090418145B5
:10F688003945EF40104181453545EF409040EF60E6
:10F6980040542AC6EF602055B2462A871756FF1FE6
:10F6A8001306C6BC97A503009385C5071145EFA0AF
:10F6B800200D4DBE1757FF1F035767F39756FF1FBF
:10F6C800938696DB1756FF1F130646BA97A50300C5
:10F6D80093858507E1BF85471757FF1F2302F7F278
:10F6E800EF60E05A97A503009385450739B517578A
:10F6F800FF1F0347E7F0854797A503009385850615
:10F70800E31DF7DEC5B785471757FF1FA304F7F4B6
:10F71800EF60E05797A5030093854505F9BB175798
:10F72800FF1F034737F3854797A503009385850493
:10F73800E315F7DCC5B79757FF1F9387673CC85F8A
:10F74800EF404376AE862A8697A503009385450346
:10F75800BDBD2286CA851745FF1F1305253FEF60EB
:10F76800B06809B6411122C4216493050480994602
:10F778000146254506C69710FF1FE780A020930580
:10F7880004802244B24099461386018529454101E7
:10F798001713FF1F6700031F99E10145828075DD7C
:10F7A800011152C403DA418526CA93548A0085049C
:10F7B800A204C204C18056C2B38A4441C20A22CC00
:10F7C8004AC82E862E842A8997A503009385852307
:10F7D800254593DA0A014EC606CE93890185EF9036
:10F7E800307A63ED8A0883D5418593F7F50FB1CF59
:10F7F8008D6783D5418593870780A2864A86BE9503
:10F8080029459710FF1FE780E0171375F50F29EDBD
:10F8180083D749001566A297239AF18403D74185B7
:10F8280083D721856309F70063F3E700B297998FBF
:10F83800139607014182254597A503009385051E68
:10F84800EF9010741375F40F0DA08D6793870780E0
:10F85800930600100146BE9525459710FF1FE780C7
:10F8680060121375F50F49D50145F2406244D24440
:10F878004249B249224A924A05618280B3079440BC
:10F88800D297C207C183A18303C74900850793F7AD
:10F89800F70F9396870011EB9386170093740AF07D
:10F8A800A206C204C206C180C18283D7218563F63D
:10F8B800F40033879600E3C9E7FA0D6A130A0A8051
:10F8C8000146B385440125459710FF1FE780800B4B
:10F8D8001375F50F51F983D54185A2864A86D295CD
:10F8E80005B7411122C41384018522858145194633
:10F8F80006C69710FF1FE78000439307B0FA23005E
:10F90800F4008D352244B24097A50300938505087D
:10F91800254541016F909050A16541119946138684
:10F928000185938505802D4506C69710FF1FE78042
:10F93800600503C701859307B00A6303F7005537CD
:10F94800B24083D6418503D6218597A503009385C8
:10F95800A504254541016F90B06283D7C1A6014532
:10F96800638C071003D5E1A66366F50023A601A6FC
:10F97800014582803385A740D1473355F502137579
:10F98800F50F01E5239601A68280130101BD23240A
:10F998008142232611422322914223202143232EF0
:10F9A8003141232C4141232A514195471374F50FC6
:10F9B80063F3A7001544228697A503009385C5071E
:10F9C8002545EF90F05B01498144938901A7514A8D
:10F9D800A14A9377F90F03D5E1A61757FF1F0347ED
:10F9E80037B663E98704D1473304F4022A9423978E
:10F9F80081A6A147631CF706A6850808EF303008E2
:10FA080003D7E1A683D7C1A605456364F70023A6FB
:10FA180001A68320C1420324814283244142032951
:10FA280001428329C141032A8141832A41411301AB
:10FA380001438280B30749031408AA97CE973385F8
:10FA48009600631E5701BE85EF30F0222317A100F0
:10FA58008357E1000509BE94C204C1809DBFAA85F1
:10FA68001306E1003E85EF80A006DDB726860C0868
:10FA78000145EF50B06769B78280011106CE22CCEC
:10FA880026CA4AC84EC691E901442285F24062441A
:10FA9800D2444249B24905618280AA8975D583D783
:10FAA800418503D621852E849564638AC7006374D3
:10FAB800F60015673A961D8E93140601C1802686B6
:10FAC80097A50300938585E92545EF90704B9387AB
:10FAD80014F06356F4009307F00F63EA970097A5B4
:10FAE8000300938525E92545EF90904971BF83D49C
:10FAF800418533878400956763C7E700A2854E85F3
:10FB080061398D3159B7156933099940420913593B
:10FB18000901CA854E85493125D9ED75A695A29565
:10FB2800C205239A0184C18133852901D1BF83D6B7
:10FB3800C1A681EA97A50300938545EA25456F90FC
:10FB4800F02D03D6E1A64111918E97A50300938568
:10FB5800E5E9254506C6EF90B0421387C1A683554F
:10FB6800070083D7E1A6138501A79D8DC2053E95A1
:10FB7800C1812137B24023A601A6410182804111EB
:10FB880083D7C1A622C426C206C6AE971307803EF5
:10FB9800AA842E84635AF700593F97A503009385DA
:10FBA800A5E12545EF90902783D7C1A6138501A726
:10FBB8002286A6853E95EF40C35A03D6C1A6229653
:10FBC80042062244B240924441822396C1A697A598
:10FBD80003009385E5DF254541016F90703A0111D7
:10FBE80026CA06CE22CC4AC84EC652C456C2814442
:10FBF80059C1D1C183D7218503D44185638D870637
:10FC080063F587081D8C42044180AE892A892286C3
:10FC180097A50300938505D10145EF907036A2841E
:10FC280063F38900CE84C2040D6A83D7218503D784
:10FC38004185C180938A0185130A0A8063FAE70423
:10FC4800A6864A86B38547012D459710FF1FE78092
:10FC580060D383D72A00A6972399F184EFF09FB049
:10FC680083D6418503D6218597A503009385C5CC06
:10FC78002545EF90F030F240624426854249D2444F
:10FC8800B249224A924A0561828015673A949DBF1B
:10FC980015671D8FB385470163D5E400A6864A869C
:10FCA80065B79569B389F9406D743E94C20993D9D3
:10FCB80009012694CE864A8642042D459710FF1FD7
:10FCC800E78040CC4180A28633063901D2852D4594
:10FCD800239901849710FF1FE780C0CA83D72A00A1
:10FCE8003E94239981849DBF1841938781291045AB
:10FCF80098C303574500544590C72392E7005855C9
:10FD08001049D4C7544998CF97A50300938545DA7D
:10FD18000547254590CBD4CB238EE7006F90101074
:10FD2800397126DA4AD84ED652D456D25AD006DE7F
:10FD380022DC62CE66CC2A89EF50E32C9374F50F4F
:10FD48008149254BE54A17AA0300130A2AD091ECEA
:10FD5800F25062544E85D2544259B259225A925A9C
:10FD6800025B724CE24C21618280034709009307D1
:10FD780007FD93F7F70F637CFB009307F7F993F7F9
:10FD8800F70F63E2FA06930797FA93F7F70F1394BE
:10FD980087016184FD14230089002685EF309318BC
:10FDA8002A86AE8603250A0083254A0093F4F40FB9
:10FDB8000509EFD020172AC422852EC6EF309316E6
:10FDC8002246B246EF20B3462A8C4E85AE8CEF30E1
:10FDD800931C2A86AE866285E685EF10335AEF308B
:10FDE800B30EAA89ADB79306F7FB93F6F60F8147D2
:10FDF800E3EFDAF8930797FC49BF411122C406C61E
:10FE0800830795022A8499C713059502EF40A33208
:10FE18002389A1248307D41291CB1305D412EF4070
:10FE28002331EF40E31293870122C8D3B240224422
:10FE380041018280011126CA9304150022CC97A59E
:10FE480003009385A5CA2A84268506CE4AC84EC6CD
:10FE5800EF90B021631E051097A50300938545C94F
:10FE68002685EF9090206302050E85448307D4030E
:10FE78006386070C13059402EF40E32B8549137939
:10FE8800F50F1305D4036387340F8947638CF4187F
:10FE9800EF40632AA38AA124631A39017946814570
:10FEA80013857127238B0184EFE0FF838307D40830
:10FEB80085C31305D408EF40032803C7618593075A
:10FEC8001700238BF18493870122BA97A38BA70489
:10FED8008307D40D85C31305D40DEF40C32503C78D
:10FEE800618593071700238BF18493870122BA97C2
:10FEF800A38BA7048307D41285C31305D412EF403C
:10FF0800832303C7618593071700238BF1849387A5
:10FF18000122BA97A38BA7048307D41785C31305B7
:10FF2800D417EF40432103C7618593071700238B3C
:10FF3800F18493870122BA97A38BA704F240624405
:10FF4800D2444249B2490561828097A5030093854E
:10FF580065BA2685EF907011E31905F0268597A5F7
:10FF68000300938565B9EF9050108944E31005F0BC
:10FF78008144EDBDEF40231C238BA124631A990013
:10FF88007946814513859125238B0184EFE0AFF5F0
:10FF98008307D40885C31305D408EF40C31903C7E2
:10FFA800618593071700238BF18493870122BA9701
:10FFB800A38CA7028307D40D85C31305D40DEF4086
:10FFC800831703C7618593071700238BF1849387F1
:10FFD8000122BA97A38CA7028307D41285C31305FD
:10FFE800D412EF40431503C7618593071700238B8D
:08FFF800F18493870122BA97FE
:020000021000EC
:10000000A38CA7028307D417E38E07F21305D41736
:10001000EF40E31203C7618593071700238BF18438
:1000200093870122BA97A38CA70229BFEF4023111F
:10003000A38BA12401BF411122C406C683079507E3
:100040002A8499C713059507EF40630FA389A1245C
:100050008307D40899C71305D408EF40430E238AB9
:10006000A1248307540B91CB1305540BEF40C30C11
:10007000EF30936E9387012288D7B240224441012A
:100080008280011126CA8146B284014652C456C2FA
:1000900006CE22CC4AC84EC62A8AAE8AEF20C37C3E
:1000A00041CD9307E0046386F40093073005639520
:1000B000F40897A903009389E9A103A6090083A680
:1000C00049005285D685EF20131737949800EF30FA
:1000D0002360130404682A8933758502EF30236C8A
:1000E00003A6090083A64900EF20C31C97A70300BD
:1000F0009387C79E9043D443EF20C31B2A8A33556E
:100100008902AE8AEF30A3692A86AE865285D685EB
:10011000EF10532713073005AE876395E400B70748
:100120000080AD8FF2406244D2444249B249224A33
:10013000924ABE850561828001458147E5B701117C
:1001400026CA8146B284014652C456C206CE22CC8B
:100150004AC84EC62A8AAE8AEF20037141CD930762
:1001600050046386F400930770056395F40897A91B
:1001700003009389299603A6090083A649005285A6
:10018000D685EF20530B37949800EF306354130457
:1001900004682A8933758502EF30636003A609007D
:1001A00083A64900EF20031197A7030093870793C5
:1001B0009043D443EF2003102A8A33558902AE8A34
:1001C000EF30E35D2A86AE865285D685EF10931B0D
:1001D00013077005AE876395E400B7070080AD8F05
:1001E000F2406244D2444249B249224A924ABE8510
:1001F0000561828001458147E5B713578500935714
:10020000050113D885009376F50F01111377F70FC9
:1002100093F7F70F618593F5F50F1378F80F99C2EF
:1002200011C3B9E3230CD100A30CE100230DF100AD
:10023000A30DA10003459101834781010347A1015B
:100240002205A30E01014207C98F230EB100034509
:10025000B101D98F0347D1018345C101620522074E
:100260005D8DD98D0561828032951375F50F13135D
:100270008501135383415D466357660861463363C6
:10028000C30285071376D70F114593F7F70F630560
:10029000A6002545631AA6007946637FF602050786
:1002A0001377F70F85470DA809466312C704138615
:1002B000067D93084006B36816036385080013F5AE
:1002C000360011C5130500193366A60219EE7546EE
:1002D0006374F60085470D47230CD100A30CE100A1
:1002E000230DF100A30D6100B1B77146D5B77D466E
:1002F000E374F6FEB147E314F7FA850693F6F60FBA
:1003000085470547D1BFE35903FC6105FD1713136A
:10031000850193F7F70F13538341DDFF7D171377A3
:10032000F70F1146F947E309C7FA1946E306C7FA7A
:100330002546E303C7FA2D46E300C7FA894763164B
:10034000F7021386067D93074006B367F60291C74E
:1003500093F83600F547E38108F893070019B3676F
:10036000F60293B71700F10785BFFD4735F7FD1675
:1003700093F6F60F31478DB7834715000347050005
:100380000111A2075D8F834725008346350006CE05
:10039000C207D98F03475500834545001746FF1F05
:1003A0001306060403061620E206220733E5F600CC
:1003B000D98DA135135885001356050193D78500B3
:1003C00013F7F50F93F7F70F935685011376F60F92
:1003D0009375F80F1375F50FEF6070079747FF1FC0
:1003E00083C7170005476385E70011476396E70059
:1003F000F24005616F603015F240056182804971FD
:1004000023248116138401228307340083C85122D8
:1004100003C8412203C7212283C6112203C6012239
:10042000979503009385856F481023261116232284
:10043000911623202117232E3115EF40D337481072
:10044000EF40F33C18485C48030604033AC03EC240
:10045000030814035C4418445410979503009385D3
:10046000E56D3695EF4033354810EF40533A5C1058
:100470003E9583076400179603001306A66989C793
:10048000179603001306866897A503009385851EBB
:10049000EF4073324810EF409337544C104C5C10CF
:1004A000979503009385856A3E95EF40D3304810B9
:1004B000EF40F335030634035C103E959795030037
:1004C00093858569EF40332F4810EF40533403077D
:1004D0002403AA8448503ACE13840122EF30131D1E
:1004E00072475C10AE862A86979503009385C56790
:1004F00033859700EF40332C4810EF4053315C10A8
:1005000003C6412597950300938585673E95EF4087
:10051000932A4810EF40B32F5C1097950300938502
:1005200025673E95EF40932D1389E123A28497A977
:1005300003009389A91303C6740519CA481032CE63
:10054000EF40F32C72465C10CE853E95EF40B3260B
:100550008504E39224FF4810EF40732B5C109795BD
:100560000300938565633E95EF40532997A40300EC
:100570009384C40F0346940319CA481032CEEF4047
:10058000132972465C10A6853E95EF40D3220504E0
:10059000E31224FF4C102545EF90C0088320C116BC
:1005A0000324811683244116032901168329C115CA
:1005B00075618280411122C406C626C28307550197
:1005C0002A84B9C7A946938707FDB387D702034793
:1005D0006501130707FDBA97A381F122030775018F
:1005E00083478501130707FD3307D702938707FD6C
:1005F0003E972382E122830795010347A501938754
:1006000007FDB387D702130707FDBA97A382F1222C
:100610008307940281CB130710046391E714854785
:100620002383F1228307D4039384012299C71305FE
:10063000D403EF30733088C4CCC40306140509CA50
:100640008844CC442388C124EFF0BFA388C4CCC421
:100650008307540699C713055406EF30F32D88C855
:10066000CCC80306940709CA8848CC48A388C1248B
:10067000EFF0FFAC88C8CCC88307D40899CF130526
:10068000D408EF30732B979703009387A7479043C5
:10069000D443EF20433A88CCCCCC8307140A99C7C3
:1006A0001305140AEF30B3292390A1248307540BB8
:1006B000B9C7A946938707FDB387D7020347640BE1
:1006C000130707FDBA972381F1220307740B8347B1
:1006D000840B130707FD3307D702938707FD3E9767
:1006E000A380E1228307940B0347A40B938707FDA4
:1006F000B387D702130707FDBA972380F1228385BA
:100700003400856703C64122938707E11307C003BE
:100710003307E60283C65122B387F502BA97B6972C
:1007200023A6F1241747FF1F1307073E835707002F
:100730003A8413F5870039E1038564000547631F98
:10074000E50203C7212211EF8844CC4401468146CB
:10075000EF20831105E923830122B9A0238301221D
:10076000D1B5FDD175D2EDD293E787001385012273
:100770001747FF1F231AF738EFF01FC08387640065
:10078000E1F7D1BF8848CC4801468146EF20C30D30
:1007900079D183C72122E1D31306800793850122F3
:1007A0001385811AEF30731C03C581E59D4705054C
:1007B0003365F5021306800793850122238CA1E49B
:1007C000930780073305F502938701E63E95EF30E6
:1007D000D319EFF0DFC21C582244B24092441747AD
:1007E000FF1F232FF734130680078145138501224D
:1007F00041016FD0DFEF0171232C811E232A911E4E
:100800001306101E2A84AE8468008145232E111E13
:100810002328211FEFD0BFED8145814701470146C5
:100820005148CD485D436340960899C12306F100C5
:100830001306A002A6852285EF90E0018347C10040
:1008400051473386A440B387E7029305150078002B
:100850007D16A29585073305F700EF3013111306B7
:10086000A002A685228503491400EF80D07E894727
:1008700063C3A7080345C100D1473305F5027C00D7
:1008800005053E95EFF04FCA631CA90419469795DC
:100890000300938525251305D100EF90400925C558
:1008A0006800093B35A8B306C40003C506009306DB
:1008B00065FD93F6D60F91EA850793F7F70F63610D
:1008C000F302854501470506B9BFB3860703130E3A
:1008D000011FF296BA96A38EA6E00507E3D5E8FEBF
:1008E0008320C11F0324811F8324411F0329011F6B
:1008F0001301012082803307F400034707008507B6
:100900003349E900B5B71946979503009385C51D8E
:100910001305D100EF90A0010DED19469795030046
:100920009385C51C1305D100EF90600019ED1946A1
:10093000979503009385C51B1305D100EF80307F89
:1009400045D16800EFF08FCF61BF6800EFF0AFEEE8
:1009500041BF6800EFF0EFCA61B7757122C526C3C9
:100960004AC1CEDED2DCD6DADAD806C7AA892E8909
:10097000814401448147130A4002854A354B13974D
:1009800004014183636C2701BA402A449A440A490E
:10099000F659665AD65A465B496182803387990078
:1009A0000347070063004703639C5701631D67010A
:1009B0009C18A297A2856800238E07F82D3D8147D9
:1009C000850475BF01449C18A29705041374F40FA5
:1009D000238EE7F893373406E5B7138581E583471F
:1009E000050013078007B387E702A1073E958280C1
:1009F0001385811A82809747FF1F83C7871181CF94
:100A00009747FF1F83D7E7BDFD17C207C1831307B1
:100A1000A0036375F70023AC0184828031714ED747
:100A20009389818583A7090056D3938A81E5850739
:100A300022DD26DB52D55AD15ECF62CD66CB6AC9A4
:100A400006DF4AD96EC723ACF18483C481E5014A2D
:100A5000130C80075684979C0300938C2C00054D43
:100A60009D4B154B3389840356998307E900E1CFE9
:100A700003A60C0083A64C00032509028325490226
:100A8000EF1013706341050C83470904638DA70BB6
:100A900093171A001808BA97035789022390E700A2
:100AA0003C00D29723809700050A9904B3E47403AD
:100AB000E31A6AFB0357810183570101998F13D70A
:100AC000F741B98F998F939407011307400BC180A9
:100AD0006358F70093078016B3849740C204C1801F
:100AE000268697950300938565FA6808EF40A34C26
:100AF0006C082545EF801033938714FFC207C1832C
:100B00007947636EF70803499100130A800785450A
:100B1000014533094903210922994A86EF70A04A09
:100B20008344B10085450145B3844403A104A294E4
:100B30002686EF704049CA850D45EF209016A685A0
:100B40000D45EF20101683A709001747FF1F035715
:100B500047A963E7E70203C581E5930480073305EE
:100B60009502B30DA4008387ED0099CB83C7412B79
:100B7000138981296397070E21052295EFF04F977E
:100B8000FA506A54DA544A59BA592A5A9A5A0A5B9C
:100B9000FA4B6A4CDA4C4A4DBA4D29618280930770
:100BA000D002E3F297FA834B8100930A80078545D0
:100BB000B38B5B030145138C8B00229C6286EF7024
:100BC0008040034B910085450145330B5B03A29B9D
:100BD000210B229B5A86EF70003F034AA1008545F6
:100BE0000145330A5A03210A229A5286EF70A03D2A
:100BF0000349B1008545014533095903210922996B
:100C00004A86EF70403C8344C10085450145B3846A
:100C10005403A104A2942686EF70E03AE2850D45C4
:100C2000EF203008DA850D45EF20B007D2850D455D
:100C3000EF203007CA850D45EF20B006A6850D458B
:100C4000EF20300683C781E5B38A570303A74B0320
:100C5000A29A83A74A03E318F7EE85472380FA0494
:100C6000DDB5179D0300130DEDDF03260D00832670
:100C70004D0003A58D0183A5CD01979903009389AC
:100C8000E9DEEF10535B03A6090083A64900EF10CD
:100C900063622A8BAE8B03260D0083264D0003254D
:100CA000090183254901EF10135903A6090083A602
:100CB0004900EF1023602A8AAE8A2A86AE865A85BA
:100CC000DE85EF20C322979703009387A7DA90432E
:100CD000D443EF105356EFC040102A8CAE8C5A8587
:100CE000DE85EFC060062A8BAE8B5285D685EFC0BD
:100CF000A005032689008326C9002A8AAE8A03A597
:100D00000D0183A54D01EF20831E03260D008326D0
:100D10004D00EF10535203A6090083A64900EF10BF
:100D20006359979703009387E7D49043D443EF1018
:100D30009350EFC0800A2A89AE895286D6865A859A
:100D4000DE85EF10534F4A86CE86EF10D34E4A868B
:100D5000CE86EF10534E2A89AE896286E68662857A
:100D6000E685EF10534D2A86AE864A85CE85EF0084
:100D70007361EFC0004EEFC0800F2A86AE86EF0091
:100D8000736097970300938767CF9043D443EF1026
:100D9000934A979703009387E7CE9043D443EF108D
:100DA00093492A86AE862A89AE89680897950300FA
:100DB0009385C5CEEF4023206C082545EF80900633
:100DC0001735FF1F0345C56BEF2053162A86AE86E5
:100DD0004A85CE85EF10F32FE354A0DA03C681E5F0
:100DE000330696028545014521062296EF70A01D27
:100DF00083C581E5B38595020D45A105A295EF2038
:100E0000406A03C581E53305950221052295EFE08F
:100E10003FEE23AC0184ADB3411106C6EF70302B19
:100E2000B24041016F70A075914763E6C7061797FE
:100E30000300130727D70A063A961C42BA978287FF
:100E4000411122C497A50300938585DD2A841145AD
:100E500006C6EF80207DA2851145EF80A07C22444C
:100E6000B24097A50300938565DD114541016F8070
:100E7000607B95C290426F40304D91CEC8C203C591
:100E8000A6002394B600368695456F70C0136FB0E8
:100E900030626F20F02B8280411106C623AEB184F0
:100EA00001C61C4223ACF12A9737FF1F83C7B753F3
:100EB0008DEB0545EF90E05A979503009385C5D8D3
:100EC0002545EF8020769747FF1F83D7E7C3B240C1
:100ED00093E707011747FF1F2318F7C241016F70FF
:100EE000A02F05470545639CE700EF908057054517
:100EF000EF90E00097950300938545D6D1B7EF902A
:100F000040560545EF90E0570545EF80507F979597
:100F10000300938525D66DB7411122C42A84830727
:100F2000D40306C626C22E8589C71307F00363982B
:100F3000E7021737FF1F130777519736FF1F938676
:100F4000D64D1736FF1F1306364A97950300938533
:100F5000A5DD2244B240924441016F40C30597375A
:100F6000FF1FA38307489737FF1FA388074A9737B8
:100F7000FF1FA38D074C034704008547AE8463FA27
:100F8000E7009305D4031735FF1F1305F545EF4020
:100F9000E3068307940791CF03470400894763FA68
:100FA000E700930594071735FF1F13051547EF401A
:100FB000E3048307540B91CF034704008D4763FA82
:100FC000E7009305540B1735FF1F13053548EF4015
:100FD000E302014697350000938585441305C0124E
:100FE000EF207056EF40304B1737FF1F130717469F
:100FF0009736FF1F938676421736FF1F1306D63E9D
:1010000097950300938585D42685A1B7411126C203
:1010100006C622C4034705008947AE8463F5E7028C
:101020009305D5032A841735FF1F1305E534EF30E8
:10103000F37C13059407EF3083109737FF1F239F2E
:10104000A738EF40D03FEF4090431736FF1F1306FD
:10105000A6329736FF1F83D666389795030093858F
:10106000A53D2685EF30337585479735FF1F93855E
:1010700065201735FF1F1305E52E1737FF1FA30740
:10108000F724EF30B3779735FF1F9385F535173584
:10109000FF1F1305C523EF3073769735FF1F938528
:1010A000D5371735FF1F1305A525EF303375973555
:1010B000FF1F9385B5391735FF1F13058527EF30BF
:1010C000F373978503009385E5431735FF1F1305D9
:1010D000C52DEF30B372EF4090362244B2409244B7
:1010E0000146975500009385255B13058002410159
:1010F0006F207045411122C426C24AC006C683072C
:10110000D503AE84179903001309C9F61744FF1FCE
:101110001304849F89C71307F0036391E70417350D
:10112000FF1F0345D535EF206360032609008326A2
:101130004900EF102318EF20336268C0EF201357E7
:10114000AE862A8697950300938545F32244B240E4
:1011500002492685924441016F30F3651305D5039A
:10116000EF20F37D9737FF1FA38BA7301375F50F83
:10117000EF20C35B0326090083264900EF10831389
:10118000EF20935D68C0EF4010316840EF201352AC
:10119000AE862A8697950300938545F045BFAA87BA
:1011A0000387D7032E8509C79306F0036315D7027B
:1011B0009737FF1F83C7172317960300130686E888
:1011C00089E717960300130666E897950300938551
:1011D00065E96F30535E41111385D70306C622C4FB
:1011E0002E84EF20D3759737FF1FA38DA71EEF40E6
:1011F000902A9737FF1F83C7F71E979503009385A3
:1012000065E589E797950300938545E522852244A6
:10121000B24041016F30935E411126C206C6AA84D6
:1012200022C48387D4032E8589C71307F0036396EE
:10123000E7049737FF1F83C7171B05476385E7023E
:1012400089CB09476386E702B240224492444101B8
:101250008280979503009385A5E82244B24092448A
:1012600041016F30B359979503009385E5E9F5B7D0
:1012700097950300938505ECCDB79384D4032E8412
:101280002685979503009385E5EDEF30735E1DC1CC
:1012900089471737FF1FA308F71497950300938515
:1012A000A5F02285EF3093552244B240924441018B
:1012B0006F40701E2685EF2093681375F50F9737E2
:1012C000FF1FA382A7128547979503009385C5EB5F
:1012D000E309F5FC97950300938545E979D18947A2
:1012E000E30DF5FA1737FF1FA30FF70E97950300CD
:1012F0009385C5ED7DB741112E85979503009385A4
:1013000065F006C6EF30934FB24001469755000096
:10131000938585381305200341016F20D0224111A8
:1013200022C426C206C68307D503AE841734FF1F26
:101330001304040B89C71307F003639BE7028306BA
:101340001420179603001306261363D6060017868B
:1013500003001306A633268597950300938505128F
:10136000EF3073452244B240924441016F805006F1
:101370001305D503EF20B35C9737FF1FA382A72681
:10138000EF80100503061420979503009385C51080
:101390002545EF80603F834714206147B10793F7ED
:1013A000F70F6377F700A1471737FF1FA30AF7224C
:1013B000EF40700E83061420179603001306C60B29
:1013C00063D60600178603001306462C2244B2405B
:1013D00026859244979503009385850C41016F30D3
:1013E000933D797122D49307D1012E847808930616
:1013F000B1011306A101930591011305E10106D680
:10140000EF50C07E8348D1010348C1018347B10139
:101410000347A101834691010356E101979503001B
:10142000938585B02285EF3013392285EF30333E26
:101430009737FF1F9387476D8C5B03A8870305666B
:10144000130606E19306C00333F3C50222953377F2
:10145000D802B378C8023AC0DC5733F7D502B3D804
:10146000D8023358C802B356D30233D6C502979573
:1014700003009385A5ADEF3013342285EF30333967
:101480002A94EF70F053179603001306A6A909C516
:10149000179603001306C6A8228597950300938527
:1014A000E5AEEF305331B250225445618280AA87B5
:1014B0000387D7032E8509C79306F0036311D7026C
:1014C0009737FF1F83C747F2978503009385457CB5
:1014D00089E7978503009385A57E6F3033324111EC
:1014E0001385D70322C406C62E84EF2053451375F7
:1014F000F50F9737FF1F2389A7EE1737FF1F034705
:1015000037EE89476316F7000DE91145EF80301F6C
:101510009737FF1F83C747ED978503009385C57BEA
:1015200089E7978503009385657E2285EF30132D2B
:101530002244B24041016F4000761145EF80101FF8
:10154000C1BFAA870387D7032E8509C79306F00377
:10155000631ED7029737FF1F83C7E7E80547638DF0
:10156000E70089C70947638EE700828097950300EB
:10157000938585806F309328979503009385058424
:10158000D5BF9795030093852589EDB74111138544
:10159000D70322C406C62E84EF20733A1375F50FC5
:1015A0009737FF1F2381A7E485479795030093850D
:1015B000E5806306F502978503009385E57B05C109
:1015C00089479795030093852585630AF5001737AA
:1015D000FF1F230AF7E0979503009385A5892285CD
:1015E000EF30D3212244B24041016F40C06AAA8744
:1015F0000387D7032E8509C79306F003631CD70022
:101600001736FF1F0346C6E7979503009385059E8F
:101610006F30731A41111385D70306C622C42E8476
:10162000EF2073329737FF1F238CA7E4EF40A066AB
:1016300022852244B2401736FF1F034666E4979581
:1016400003009385E59C4101E1B7411122C439456E
:101650002E84814506C6EF205044EF4040592A862B
:1016600022852244B240979503009385E59C410171
:101670006F307314411122C41305D5032E8497953E
:1016800003009385A59106C6EF80A01E11CD0145EC
:10169000EF40E06A979503009385059122852244E7
:1016A000B24041016F3093150545EF404069979571
:1016B000030093852591DDB7411122C42A84830755
:1016C000D40306C626C22E8589C71307F003639C80
:1016D000E7029737FF1F938717E41737FF1F13079A
:1016E00077E09736FF1F83D6A6F01736FF1F130645
:1016F00056DC97950300938525BE2244B240924460
:1017000041016F30530BAE841735FF1F130575DA97
:101710009305D403EF30930E8307940789CB130509
:101720009407EF20D3219737FF1F2393A7EC83075C
:10173000540B89CB9305540B1735FF1F130595DA0E
:10174000EF30D30B8307140F89CB9305140F173594
:10175000FF1F130555DCEF30730AEF40C053973776
:10176000FF1F938757DB1737FF1F1307B7D797362E
:10177000FF1F83D6E6E71736FF1F130696D397950C
:1017800003009385A5B626858DBFAA870387D70357
:101790002E8509C79306F003631CD7001736FF1F79
:1017A000035626E497950300938585C66F30B300F2
:1017B00041111385D70306C622C42E84EF203318A7
:1017C000131605019737FF1F239DA7E041829795C8
:1017D0000300938525C52285EF30E37D9737FF1FF2
:1017E00083C717C009476388E700F11793F7F70F1E
:1017F0000547636AF7009737FF1F83D787DE89EBBA
:101800000945EF80A0722244B24041016F40A048D8
:10181000EF80206375D51737FF1F035787DC9307C9
:10182000B003E3EFE7FC0945EF80606DE9BF797134
:1018300026D206D622D44AD04ECE52CC56CA5AC848
:101840005EC68307D503AE8489C71307F00363948C
:10185000E706979503009385A59D2685EF30037ACB
:101860001734FF1F1304C4B71739FF1F130909BB2F
:10187000179A0300130A4A9B979903009389899C3E
:101880002685EF30C378834794222695528699C3E4
:1018900013069422CE855104EF30E371E31224FF46
:1018A000B250225492540259F249624AD24A424BEF
:1018B000B24B4561828085472A846312F604A1C237
:1018C00003A906004A85EF3083742A869735FF1FE7
:1018D000938555D74A85EF80800515E12254B25093
:1018E0000259F249624AD24A424BB24B268592547F
:1018F000979503009385459545616F302370830765
:10190000D4031307100493F7F7FD639DE708173915
:10191000FF1F1309E9AC22859305440B4A873A86D9
:10192000AA86CD4703C89607FD1793F7F70FA304C0
:10193000062385060506FDF7230E07221305C503BA
:101940005107E31EB5FC979503009385A592268564
:10195000EF30C36A1734FF1F130444AC179A030017
:10196000130A8A8C979903009389C98D2685EF30D5
:10197000036A834799222695528699C313069922B2
:10198000CE855109EF302363E31224FF2254B25075
:1019900092540259F249624AD24A424BB24B4561D3
:1019A0006F40602F13074004979503009385C591FE
:1019B000639EE706130494072285EF3043657D1587
:1019C0001375F50FC94763EFA70413099022014A65
:1019D000173BFF1F130BCBA0979B0300938B8B8AA6
:1019E000930A5026B3096901A2854E85EF7070688D
:1019F00001CD2685EF30A3614E86DE852695EF303A
:101A0000835B054A238009005109E31D59FDE31F4B
:101A10000AF62286979503009385C5872685EF30C1
:101A20008359ADB7979503009385C5882685EF3018
:101A3000E35CA9BF411122C406C626C24AC083077F
:101A4000D5032E8489C71307F0036395E7049785B0
:101A500003009385A5482285EF30435A2285EF3055
:101A6000035B9737FF1F83C7F7BD229517860300D7
:101A70001306867B89C71736FF1F1306B6BC2244A0
:101A8000B24092440249978503009385A57B4101AA
:101A90006F3063528547AA84631DF6029DCA03A96D
:101AA00006004A85EF30A3562A869735FF1F938597
:101AB00075B94A85EF70B06709ED22852244B240BE
:101AC00092440249978503009385057841016F3060
